:020000040800F2
:1000000000000220FD050008E1050008E3050008E6
:10001000E5050008E7050008E90500080000000004
:10002000000000000000000000000000EB050008D8
:10003000ED05000800000000EF050008F1050008CC
:100040004D0600084D0600084D0600084D06000844
:100050004D0600084D0600084D0600084D06000834
:100060004D0600084D0600084D0600084D06000824
:100070004D0600084D0600084D0600084D06000814
:100080004D0600084D0600084D0600084D06000804
:100090004D0600084D0600084D0600084D060008F4
:1000A0004D0600084D0600084D0600084D060008E4
:1000B0004D0600084D0600084D0600084D060008D4
:1000C0004D0600084D0600084D0600084D060008C4
:1000D0004D0600084D0600084D0600084D060008B4
:1000E0004D0600084D0600084D0600084D060008A4
:1000F0004D0600084D0600084D0600084D06000894
:100100004D0600084D0600084D0600084D06000883
:100110004D0600084D0600084D0600084D06000873
:100120004D0600084D0600084D0600084D06000863
:100130004D0600084D0600084D0600084D06000853
:100140004D0600084D0600084D0600084D06000843
:100150004D0600084D0600084D0600084D06000833
:100160004D0600084D0600084D0600084D06000823
:100170004D0600084D0600084D060008000000006E
:080180004D0600084D060008C1
:1001880010B5054C237833B9044B13B10448AFF3C9
:1001980000800123237010BD3C04002000000000F3
:1001A800780F000808B5034B1BB103490348AFF3A8
:1001B800008008BD0000000040040020780F0008FF
:1001C80053B94AB9002908BF00281CBF4FF0FF31B6
:1001D8004FF0FF3000F074B9ADF1080C6DE904CEB2
:1001E80000F006F8DDF804E0DDE9022304B070470A
:1001F8002DE9F047089E0D4604468846002B4DD150
:100208008A42944668D9B2FA82F252B101FA02F3EC
:10021800C2F1200120FA01F10CFA02FC41EA0308BC
:1002280094404FEA1C45210CB8FBF5FE1FFA8CF7E9
:1002380005FB1E8341EA03430EFB07F199420BD9E4
:100248001CEB03030EF1FF3080F01E81994240F24F
:100258001B81AEF1020E63445B1AA4B2B3FBF5F046
:1002680005FB103344EA034400FB07F7A7420AD909
:100278001CEB040400F1FF3380F00881A74240F230
:10028800058164440238E41B40EA0E4000211EB197
:10029800D4400023C6E90043BDE8F0878B4208D963
:1002A800002E00F0EE800021C6E900050846BDE8F2
:1002B800F087B3FA83F100294AD1AB4202D38242D4
:1002C80000F2F980841A65EB030301209846002E9A
:1002D800E2D0C6E90048DFE702B9FFDEB2FA82F2EF
:1002E800002A40F09180A1EB0C054FEA1C471FFA49
:1002F8008CFE0121B5FBF7F307FB1350250C45EAEB
:1003080000450EFB03F0A84208D91CEB050503F1D4
:10031800FF3802D2A84200F2CB8043462D1AA4B27D
:10032800B5FBF7F007FB105544EA05440EFB00FE49
:10033800A64508D91CEB040400F1FF3502D2A645F6
:1003480000F2BB802846A4EB0E0440EA03409EE777
:10035800C1F120078B4022FA07FC4CEA030C20FA73
:1003680007F405FA01F31C43FD404FEA1C4900FA63
:1003780001F3B5FBF9F8200C1FFA8CFE09FB1855A0
:1003880040EA054508FB0EF0A84202FA01F20BD933
:100398001CEB050508F1FF3A80F08880A84240F27E
:1003A8008580A8F1020865442D1AA4B2B5FBF9F0BE
:1003B80009FB105544EA054500FB0EFEAE4508D979
:1003C8001CEB050500F1FF346CD2AE456AD9023842
:1003D800654440EA0840A0FB0294A5EB0E05A5423F
:1003E800C846A64656D353D05EB1B3EB080265EBB8
:1003F8000E0505FA07F722FA01F3CD401F43C6E9B7
:1004080000750021BDE8F087C2F1200320FA03F14E
:100418000CFA02FC25FA03F395400D434FEA1C47FA
:100428001FFA8CFEB3FBF7F107FB11302B0C43EAE4
:10043800004301FB0EF0984204FA02F408D91CEBC1
:10044800030301F1FF382FD298422DD902396344B2
:100458001B1AADB2B3FBF7F007FB103345EA0345AF
:1004680000FB0EF3AB4208D91CEB050500F1FF3881
:1004780016D2AB4214D902386544ED1A40EA01415C
:1004880038E73146304607E78646E5E61846FAE695
:100498004B45A9D2B9EB020864EB0C0E0138A3E76F
:1004A8004046EAE7204694E74146D1E7D0467BE755
:1004B800023B654432E7084609E76444023842E7EC
:1004C800704700BF82B000230193064B1A6B42F0BD
:1004D80001021A631B6B03F001030193019B02B035
:1004E800704700BF0038024072B6FEE700B595B00D
:1004F8003022002108A800F079FC0023039304931C
:1005080005930693079301931F4A116C41F080519C
:100518001164126C02F080520192019A02931B4AF4
:10052800116841F480411160126802F4804202921D
:10053800029A0222089201210B9110210C910E922D
:100548000F9308231093A823119312920423139353
:1005580008A800F029F998B90F23039302230493FC
:10056800002305934FF4A05306934FF48053079349
:10057800052103A800F066FB20B915B05DF804FB5F
:10058800FFF7B2FFFFF7B0FF0038024000700040ED
:1005980008B500F07FF8FFF7A9FFFFF793FFFEE724
:1005A80082B0002100910B4B5A6C42F480425A648D
:1005B8005A6C02F480420092009A01911A6C42F03F
:1005C80080521A641B6C03F080530193019B02B0A4
:1005D800704700BF00380240FEE7FEE7FEE7FEE78F
:1005E800FEE770477047704708B500F06DF808BD22
:1005F80070470000DFF834D0FFF7FAFF0C480D49C8
:100608000D4A002302E0D458C4500433C4188C4265
:10061800F9D30A4A0A4C002301E013600432A242CB
:10062800FBD300F0BFFBFFF7B3FF704700000220C9
:10063800000000203C040020B80F00083C04002003
:1006480060040020FEE7000010B504460E4B187841
:100658004FF47A73B3FBF0F30C4A1068B0FBF3F075
:1006680000F08EF868B90F2C01D901200AE00022A9
:1006780021464FF0FF3000F04BF8054B1C6000207E
:1006880000E0012010BD00BF040000200000002091
:100698000800002008B50B4B1A6842F400721A6073
:1006A8001A6842F480621A601A6842F480721A600A
:1006B800032000F01BF80F20FFF7C6FFFFF770FFBD
:1006C800002008BD003C0240034A1168034B1B7818
:1006D8000B441360704700BF58040020040000203A
:1006E800014B1868704700BF58040020074AD368B8
:1006F80023F4E0631B041B0C000200F4E0600343D6
:1007080043F0BF6343F40033D360704700ED00E06B
:1007180000B5194BDB68C3F30223C3F1070CBCF126
:10072800040F28BF4FF0040C03F1040EBEF1060FAE
:1007380018D9033B4FF0FF3E0EFA0CFC21EA0C01DE
:1007480099400EFA03F322EA0303194300280BDB4E
:100758000901C9B200F1604000F5614080F800135A
:100768005DF804FB0023E5E700F00F000901C9B2BA
:10077800024B1954F4E700BF00ED00E014ED00E06F
:100788000138B0F1807F0BD24FF0E0235861054A61
:10079800F02182F823100020986107221A6170471F
:1007A8000120704700ED00E0002800F0E08170B5FE
:1007B80082B00446036813F0010F3BD09F4B9B683F
:1007C80003F00C03042B2CD09C4B9B6803F00C0308
:1007D800082B21D06368B3F5803F4FD0B3F5A02F25
:1007E80052D0964B1A6822F480321A601A6822F4A2
:1007F80080221A606368002B50D0FFF771FF05460E
:100808008E4B1B6813F4003F14D1FFF769FF401BA0
:100818006428F5D90320B1E1884B5B6813F4800F95
:10082800D8D0864B1B6813F4003F03D06368002BB5
:1008380000F09F81236813F0020F54D07F4B9B6810
:1008480013F00C0F3ED07D4B9B6803F00C03082B74
:1008580033D0E368002B68D0794B01221A60FFF788
:100868003FFF0546754B1B6813F0020F54D1FFF785
:1008780037FF401B0228F5D903207FE16F4A136830
:1008880043F480331360B5E76C4B1A6842F4802256
:100898001A601A6842F480321A60ABE7FFF720FF4B
:1008A8000546664B1B6813F4003FC3D0FFF718FFDB
:1008B800401B6428F5D9032060E1604B5B6813F4A2
:1008C800800FC6D15D4B1B6813F0020F03D0E3689D
:1008D800012B40F05081594A136823F0F80321692D
:1008E80043EAC1031360236813F0080F42D0636919
:1008F8006BB3534B0122C3F8802EFFF7F1FE054678
:100908004E4B5B6F13F0020F34D1FFF7E9FE401B2B
:100918000228F5D9032031E1484A136823F0F80387
:10092800216943EAC1031360DDE7454B00221A60E1
:10093800FFF7D6FE0546414B1B6813F0020FD2D0D5
:10094800FFF7CEFE401B0228F5D9032016E13C4BE9
:100958000022C3F8802EFFF7C3FE0546374B5B6FB6
:1009680013F0020F06D0FFF7BBFE401B0228F5D993
:10097800032003E1236813F0040F77D02F4B1B6C7F
:1009880013F0805F33D1002301932C4B1A6C42F093
:1009980080521A641B6C03F080530193019B01255C
:1009A800284B1B6813F4807F23D0A368012B34D015
:1009B800052B38D0214B1A6F22F001021A671A6FE3
:1009C80022F004021A67A368002B3DD0FFF788FEC7
:1009D80006461A4B1B6F13F0020F46D1FFF780FE35
:1009E800801B41F288339842F3D90320C6E00025E2
:1009F800D6E7144A136843F480731360FFF770FE58
:100A08000646104B1B6813F4807FCED1FFF768FEB3
:100A1800801B0228F5D90320B0E0084A136F43F081
:100A280001031367CFE7054B1A6F42F004021A67F8
:100A38001A6F42F001021A67C5E700BF003802408A
:100A48000000474200700040FFF74AFE0646524B3E
:100A58001B6F13F0020F08D0FFF742FE801B41F214
:100A680088339842F3D9032088E0EDB9A369002BB5
:100A780000F08380484A926802F00C02082A51D09C
:100A8800022B17D0454B00221A66FFF729FE0446B1
:100A9800414B1B6813F0007F42D0FFF721FE001B7B
:100AA8000228F5D9032069E03B4A136C23F08053F0
:100AB8001364DBE7394B00221A66FFF711FE05467F
:100AC800354B1B6813F0007F06D0FFF709FE401B6B
:100AD8000228F5D9032051E0E369226A1343626AC8
:100AE80043EA8213A26A5208013A43EA0243E26ADD
:100AF80043EA0263284A5360284B01221A66FFF72B
:100B0800EFFD0446244B1B6813F0007F06D1FFF766
:100B1800E7FD001B0228F5D903202FE000202DE077
:100B280000202BE0012B2BD01B4B5B6803F48001CA
:100B3800E269914226D103F03F02216A8A4223D119
:100B4800616A47F6C0721A40B2EB811F1ED103F4E6
:100B58004031A26A5208013AB1EB024F18D103F0B2
:100B68007063E26AB3EB026F14D1002006E0012043
:100B78007047012002E0012000E0002002B070BDB3
:100B88000120FBE70120F9E70120F7E70120F5E75D
:100B98000120F3E70120F1E7003802400000474256
:100BA80008B5254B9B6803F00C03042B3FD0082B9A
:100BB8003FD1214B5A6802F03F025B6813F4800F63
:100BC80012D01D4B5968C1F388111C480023A1FBA2
:100BD8000001FFF7F5FA184B5B68C3F301430133D3
:100BE8005B00B0FBF3F025E0134B5968C1F3881C98
:100BF8004FEA4C11B1EB0C006EEB0E0E4FEA8E1360
:100C080043EA90638101091A63EB0E03DB0043EAB0
:100C18005173C90011EB0C0C43F100039902002336
:100C28004FEA8C2041EA9C51FFF7CAFAD3E7034800
:100C380000E0034808BD00BF0038024040787D014D
:100C48000024F400002800F09B8070B50D4604468F
:100C58004F4B1B6803F007038B4208D2CBB24C4AB8
:100C68001370136803F007038B4240F08B802368EE
:100C780013F0020F17D013F0040F04D0454A9368FD
:100C880043F4E0539360236813F0080F04D0414AFB
:100C9800936843F4604393603E4A936823F0F003FB
:100CA800A1680B439360236813F0010F32D0636887
:100CB800012B21D09A1E012A25D9364A126812F032
:100CC800020F61D033498A6822F0030213438B6014
:100CD800FFF706FD06462F4B9B6803F00C0362687E
:100CE800B3EB820F16D0FFF7FBFC801B41F2883371
:100CF8009842F0D9032042E0264A126812F4003FD5
:100D0800E0D101203BE0234A126812F0007FD9D1DC
:100D1800012034E01E4B1B6803F00703AB4207D9E0
:100D2800EAB21B4B1A701B6803F00703AB422DD1C4
:100D3800236813F0040F06D0164A936823F4E0538F
:100D4800E1680B439360236813F0080F07D0114A3A
:100D5800936823F46043216943EAC1039360FFF772
:100D68001FFF0C4B9B68C3F303130B4AD35CD8409B
:100D78000A4B18600A4B1868FFF766FC002070BD24
:100D8800012070470120FAE70120F8E70120F6E783
:100D9800003C024000380240900F0008000000208C
:100DA8000800002070B50D4E0D4D761BB61006D00C
:100DB800002455F8043B01349847A642F9D1094E5E
:100DC800094D761B00F0D4F8B61006D0002455F86B
:100DD800043B01349847A642F9D170BDAC0F000816
:100DE800AC0F0008B40F0008AC0F0008830730B53B
:100DF80048D0541E002A3FD0CAB2034601E0013C45
:100E08003AD303F8012B9D07F9D1032C2DD9CDB284
:100E180045EA05250F2C45EA054536D9A4F1100207
:100E280022F00F0C03F1200EE6444FEA121C03F1E6
:100E3800100242E9045542E9025510327245F8D1D0
:100E48000CF1010214F00C0F03EB021204F00F0C6A
:100E580013D0ACF1040323F003030433134442F822
:100E6800045B9342FBD10CF003042CB1CAB21C44BE
:100E780003F8012B9C42FBD130BD64461346002C7D
:100E8800F4D1F9E703461446BFE71A46A446E0E75B
:100E9800024B13B1024800F005B87047000000008B
:100EA800B90E0008002301461A46184600F01AB881
:100EB80038B5084B084D5B1B9C1007D0043B1D44FC
:100EC800013C55F804399847002CF9D1BDE8384061
:100ED80000F054B8B80F0008B40F0008704700BFFE
:100EE800704700BF2DE9F047DFF87CA00646DAF826
:100EF800000098460F469146FFF7F0FF1B4B1B6812
:100F0800D3F8484124B365681F2D26DC5EB96B1CF5
:100F18000235DAF80000636044F82570FFF7E0FF57
:100F28000020BDE8F08704EB85010123C1F8889013
:100F3800D4F88821AB401A43022EC4F88821C1F89E
:100F48000881E4D1D4F88C211343C4F88C31DEE74E
:100F580003F5A674C3F84841D5E7DAF80000FFF7AF
:100F6800BFFF4FF0FF30DCE738040020A00F000877
:100F7800F8B500BFF8BC08BC9E467047F8B500BF7E
:080F8800F8BC08BC9E4670474E
:100F90000000000000000000010203040607080929
:040FA000100000201D
:080FA40054F2FF7F0100000080
:080FAC00990E0008AD010008D8
:040FB40089010008A7
:100FB8000024F40001000000100000000000000000
:100FC80000000000FC02002064030020CC03002085
:100FD8000000000000000000000000000000000009
:100FE80000000000000000000000000000000000F9
:100FF80000000000000000000000000000000000E9
:1010080000000000000000000000000000000000D8
:1010180000000000000000000000000000000000C8
:1010280000000000000000000000000000000000B8
:1010380000000000000000000000000000000000A8
:101048000000000000000000000000000000000098
:101058000000000000000000000000000000000088
:101068000000000000000000010000000000000077
:101078000E33CDAB34126DE6ECDE05000B0000003C
:101088000000000000000000000000000000000058
:101098000000000000000000000000000000000048
:1010A8000000000000000000000000000000000038
:1010B8000000000000000000000000000000000028
:0C13E80000000000000000005C04002079
:04000005080005FDED
:00000001FF
