:020000040800F2
:1000000000000220F5200008191F00081F1F00082B
:10001000251F00082B1F0008311F000800000000EA
:10002000000000000000000000000000371F000872
:10003000431F0008000000004F1F00085B1F00085E
:1000400045210008452100084521000845210008F8
:1000500045210008452100089D140008452100089D
:1000600045210008452100084521000845210008D8
:1000700045210008452100084521000845210008C8
:1000800045210008452100084521000845210008B8
:1000900045210008452100084521000845210008A8
:1000A0004521000845210008452100084521000898
:1000B0004521000889140008ED16000845210008B4
:1000C0004521000845210008452100084521000878
:1000D000452100081D1D0008452100084521000894
:1000E0004521000845210008452100084521000858
:1000F0004521000845210008452100084521000848
:100100004521000845210008452100084521000837
:100110004521000845210008452100084521000827
:100120004521000845210008452100084521000817
:100130004521000845210008452100084521000807
:1001400045210008452100084521000845210008F7
:1001500045210008452100084521000845210008E7
:1001600045210008452100084521000845210008D7
:100170004521000845210008452100080000000035
:0801800045210008452100089B
:1001C00010B5054C237833B9044B13B10448AFF391
:1001D00000800123237010BDB8090020000000003A
:1001E00068AC000808B5034B1BB103490348AFF3E3
:1001F000008008BD00000000BC09002068AC0008B9
:1002000081F0004102E000BF83F0004330B54FEAC7
:1002100041044FEA430594EA050F08BF90EA020F34
:100220001FBF54EA000C55EA020C7FEA645C7FEAC7
:10023000655C00F0E2804FEA5454D4EB5555B8BFEA
:100240006D420CDD2C4480EA020281EA030382EA5B
:10025000000083EA010180EA020281EA0303362DED
:1002600088BF30BD11F0004F4FEA01314FF4801CC0
:100270004CEA113102D0404261EB410113F0004FD2
:100280004FEA03334CEA133302D0524263EB430389
:1002900094EA050F00F0A780A4F10104D5F1200E27
:1002A0000DDB02FA0EFC22FA05F2801841F1000182
:1002B00003FA0EF2801843FA05F359410EE0A5F156
:1002C00020050EF1200E012A03FA0EFC28BF4CF087
:1002D000020C43FA05F3C01851EBE37101F000453D
:1002E00007D54FF0000EDCF1000C7EEB00006EEB4A
:1002F0000101B1F5801F1BD3B1F5001F0CD34908D4
:100300005FEA30004FEA3C0C04F101044FEA44522A
:1003100012F5800F80F09A80BCF1004F08BF5FEAB1
:10032000500C50F1000041EB045141EA050130BD91
:100330005FEA4C0C404141EB0101013C28BFB1F5A3
:10034000801FE9D291F0000F04BF01460020B1FAEE
:1003500081F308BF2033A3F10B03B3F120020CDAC1
:100360000C3208DD02F1140CC2F10C0201FA0CF09F
:1003700021FA02F10CE002F11402D8BFC2F1200C04
:1003800001FA02F120FA0CFCDCBF41EA0C019040BA
:10039000E41AA2BF01EB0451294330BD6FEA040403
:1003A0001F3C1CDA0C340EDC04F11404C4F12002EE
:1003B00020FA04F001FA02F340EA030021FA04F300
:1003C00045EA030130BDC4F10C04C4F1200220FA57
:1003D00002F001FA04F340EA0300294630BD21FA95
:1003E00004F0294630BD94F0000F83F4801306BF5B
:1003F00081F480110134013D4EE77FEA645C18BF4F
:100400007FEA655C29D094EA050F08BF90EA020FE5
:1004100005D054EA000C04BF1946104630BD91EADD
:10042000030F1EBF0021002030BD5FEA545C05D1E0
:100430004000494128BF41F0004130BD14F580041F
:100440003CBF01F5801130BD01F0004545F0FE4193
:1004500041F470014FF0000030BD7FEA645C1ABFC8
:10046000194610467FEA655C1CBF0B46024650EAFF
:10047000013406BF52EA033591EA030F41F400212B
:1004800030BD00BF90F0000F04BF0021704730B5B1
:100490004FF4806404F132044FF000054FF0000186
:1004A00050E700BF90F0000F04BF0021704730B547
:1004B0004FF4806404F1320410F0004548BF40421C
:1004C0004FF000013EE700BF42004FEAE2014FEA71
:1004D00031014FEA02701FBF12F07F4393F07F4F4C
:1004E00081F06051704732F07F4208BF704793F04F
:1004F0007F4F04BF41F40021704730B54FF4607462
:1005000001F0004521F000411CE700BF50EA010264
:1005100008BF704730B54FF000050AE050EA01020D
:1005200008BF704730B511F0004502D5404261EB7D
:1005300041014FF4806404F132045FEA915C3FF4BE
:10054000D8AE4FF003025FEADC0C18BF03325FEA5B
:10055000DC0C18BF033202EBDC02C2F1200300FA0C
:1005600003FC20FA02F001FA03FE40EA0E0021FA31
:1005700002F11444BDE600BF53B94AB9002908BFCF
:1005800000281CBF4FF0FF314FF0FF3000F074B96E
:10059000ADF1080C6DE904CE00F006F8DDF804E0DA
:1005A000DDE9022304B070472DE9F047089E0D46AF
:1005B00004468846002B4DD18A42944668D9B2FA47
:1005C00082F252B101FA02F3C2F1200120FA01F1E4
:1005D0000CFA02FC41EA030894404FEA1C45210C46
:1005E000B8FBF5FE1FFA8CF705FB1E8341EA0343B7
:1005F0000EFB07F199420BD91CEB03030EF1FF3000
:1006000080F01E81994240F21B81AEF1020E6344DC
:100610005B1AA4B2B3FBF5F005FB103344EA0344C4
:1006200000FB07F7A7420AD91CEB040400F1FF33D3
:1006300080F00881A74240F2058164440238E41B3F
:1006400040EA0E4000211EB1D4400023C6E9004319
:10065000BDE8F0878B4208D9002E00F0EE80002123
:10066000C6E900050846BDE8F087B3FA83F1002922
:100670004AD1AB4202D3824200F2F980841A65EB80
:10068000030301209846002EE2D0C6E90048DFE7C8
:1006900002B9FFDEB2FA82F2002A40F09180A1EBAB
:1006A0000C054FEA1C471FFA8CFE0121B5FBF7F33E
:1006B00007FB1350250C45EA00450EFB03F0A8424A
:1006C00008D91CEB050503F1FF3802D2A84200F25D
:1006D000CB8043462D1AA4B2B5FBF7F007FB1055AB
:1006E00044EA05440EFB00FEA64508D91CEB0404B1
:1006F00000F1FF3502D2A64500F2BB802846A4EBEC
:100700000E0440EA03409EE7C1F120078B4022FA25
:1007100007FC4CEA030C20FA07F405FA01F31C432A
:10072000FD404FEA1C4900FA01F3B5FBF9F8200C33
:100730001FFA8CFE09FB185540EA054508FB0EF030
:10074000A84202FA01F20BD91CEB050508F1FF3AA9
:1007500080F08880A84240F28580A8F102086544B4
:100760002D1AA4B2B5FBF9F009FB105544EA054572
:1007700000FB0EFEAE4508D91CEB050500F1FF3469
:100780006CD2AE456AD90238654440EA0840A0FB05
:100790000294A5EB0E05A542C846A64656D353D0F3
:1007A0005EB1B3EB080265EB0E0505FA07F722FA16
:1007B00001F3CD401F43C6E900750021BDE8F08775
:1007C000C2F1200320FA03F10CFA02FC25FA03F32C
:1007D00095400D434FEA1C471FFA8CFEB3FBF7F11F
:1007E00007FB11302B0C43EA004301FB0EF098424B
:1007F00004FA02F408D91CEB030301F1FF382FD2ED
:1008000098422DD9023963441B1AADB2B3FBF7F0FD
:1008100007FB103345EA034500FB0EF3AB4208D952
:100820001CEB050500F1FF3816D2AB4214D9023893
:100830006544ED1A40EA014138E73146304607E7A2
:100840008646E5E61846FAE64B45A9D2B9EB02081A
:1008500064EB0C0E0138A3E74046EAE7204694E734
:100860004146D1E7D0467BE7023B654432E7084684
:1008700009E76444023842E7704700BF0000000007
:1008800090F800F06DE9024520F007016FF0000CD0
:1008900010F0070491F820F040F049804FF0000478
:1008A0006FF00700D1E9002391F840F000F1080053
:1008B00082FA4CF2A4FA8CF283FA4CF3A2FA8CF38B
:1008C0004BBBD1E9022382FA4CF200F10800A4FAF2
:1008D0008CF283FA4CF3A2FA8CF3E3B9D1E9042346
:1008E00082FA4CF200F10800A4FA8CF283FA4CF37D
:1008F000A2FA8CF37BB9D1E9062301F1200182FA37
:100900004CF200F10800A4FA8CF283FA4CF3A2FA3C
:100910008CF3002BC6D0002A04BF04301A4612BA4A
:10092000B2FA82F2FDE8024500EBD2007047D1E94D
:10093000002304F00305C4F100004FEAC50514F0DC
:10094000040F91F840F00CFA05F562EA05021CBFAD
:1009500063EA050362464FF00004A9E700000000C7
:1009600001F0FF01102A2BDB10F0070F08D010F860
:10097000013B013A8B422DD010F0070F42B3F6D164
:10098000F0B441EA012141EA014122F007047FF07D
:1009900000070023F0E80256083C85EA010586EAD4
:1009A000010685FA47F5A3FA87F586FA47F6A5FA10
:1009B00087F68EB9EED1F0BC01F0FF0102F007021C
:1009C00032B110F8013B013A83EA010313B1F8D1C7
:1009D0000020704701387047002D06BF35460338A8
:1009E000073815F0010F07D1013015F4807F02BFE1
:1009F000013015F4C03F0130F0BC0138704700BF32
:100A0000844641EA000313F003036DD1403A41D319
:100A100051F8043B40F8043B51F8043B40F8043BD8
:100A200051F8043B40F8043B51F8043B40F8043BC8
:100A300051F8043B40F8043B51F8043B40F8043BB8
:100A400051F8043B40F8043B51F8043B40F8043BA8
:100A500051F8043B40F8043B51F8043B40F8043B98
:100A600051F8043B40F8043B51F8043B40F8043B88
:100A700051F8043B40F8043B51F8043B40F8043B78
:100A800051F8043B40F8043B51F8043B40F8043B68
:100A9000403ABDD2303211D351F8043B40F8043B08
:100AA00051F8043B40F8043B51F8043B40F8043B48
:100AB00051F8043B40F8043B103AEDD20C3205D318
:100AC00051F8043B40F8043B043AF9D2043208D010
:100AD000D2071CBF11F8013B00F8013B01D30B8882
:100AE00003806046704700BF082A13D38B078DD060
:100AF00010F003038AD0C3F10403D21ADB071CBF32
:100B000011F8013B00F8013B80D331F8023B20F89B
:100B1000023B7BE7043AD9D3013A11F8013B00F8D4
:100B2000013BF9D20B7803704B7843708B7883705C
:100B30006046704770B54FF0FF0C4CF4E06C1CEA57
:100B400011541DBF1CEA135594EA0C0F95EA0C0FC3
:100B500000F0DEF82C4481EA030621EA4C5123EA36
:100B60004C5350EA013518BF52EA033541F4801165
:100B700043F4801338D0A0FB02CE4FF00005E1FB18
:100B800002E506F00042E0FB03E54FF00006E1FB62
:100B900003569CF0000F18BF4EF0010EA4F1FF04A5
:100BA000B6F5007F64F5407404D25FEA4E0E6D41E5
:100BB00046EB060642EAC62141EA55514FEAC520F6
:100BC00040EA5E504FEACE2EB4F1FD0C88BFBCF572
:100BD000E06F1ED8BEF1004F08BF5FEA500E50F123
:100BE000000041EB045170BD06F0004646EA0101E9
:100BF00040EA020081EA0301B4EB5C04C2BFD4EB1B
:100C00000C0541EA045170BD41F480114FF0000E13
:100C1000013C00F3AB8014F1360FDEBF002001F081
:100C2000004170BDC4F10004203C35DA0C341BDCFB
:100C300004F11404C4F1200500FA05F320FA04F0CD
:100C400001FA05F240EA020001F0004221F0004101
:100C500010EBD37021FA04F642EB06015EEA430E74
:100C600008BF20EAD37070BDC4F10C04C4F12005A4
:100C700000FA04F320FA05F001FA04F240EA020057
:100C800001F0004110EBD37041F100015EEA430E28
:100C900008BF20EAD37070BDC4F1200500FA05F248
:100CA0004EEA020E20FA04F301FA05F243EA0203C7
:100CB00021FA04F001F0004121FA04F220EA0200D6
:100CC00000EBD3705EEA430E08BF20EAD37070BD1C
:100CD00094F0000F0FD101F00046400041EB0101FC
:100CE00011F4801F08BF013CF7D041EA060195F0DE
:100CF000000F18BF704703F00046520043EB030398
:100D000013F4801F08BF013DF7D043EA0603704784
:100D100094EA0C0F0CEA135518BF95EA0C0F0CD08F
:100D200050EA410618BF52EA4306D1D181EA0301D5
:100D300001F000414FF0000070BD50EA410606BFCF
:100D40001046194652EA430619D094EA0C0F02D114
:100D500050EA013613D195EA0C0F05D152EA033659
:100D60001CBF104619460AD181EA030101F0004177
:100D700041F0FE4141F470014FF0000070BD41F0C0
:100D8000FE4141F4780170BD70B54FF0FF0C4CF49A
:100D9000E06C1CEA11541DBF1CEA135594EA0C0FB9
:100DA00095EA0C0F00F0A7F8A4EB050481EA030E06
:100DB00052EA03354FEA013100F088804FEA0333ED
:100DC0004FF0805545EA131343EA12634FEA0222BB
:100DD00045EA111545EA10654FEA00260EF000417C
:100DE0009D4208BF964244F1FD0404F5407402D2CE
:100DF0005B084FEA3202B61A65EB03055B084FEA5F
:100E000032024FF480104FF4002CB6EB020E75EB5B
:100E1000030E22BFB61A754640EA0C005B084FEA83
:100E20003202B6EB020E75EB030E22BFB61A754600
:100E300040EA5C005B084FEA3202B6EB020E75EB4B
:100E4000030E22BFB61A754640EA9C005B084FEAC3
:100E50003202B6EB020E75EB030E22BFB61A7546D0
:100E600040EADC0055EA060E18D04FEA051545EABF
:100E700016754FEA06164FEAC30343EA52734FEA68
:100E8000C2025FEA1C1CC0D111F4801F0BD141EAE1
:100E900000014FF000004FF0004CB6E711F4801F46
:100EA00004BF01430020B4F1FD0C88BFBCF5E06F26
:100EB0003FF6AFAEB5EB030C04BFB6EB020C5FEA36
:100EC000500C50F1000041EB045170BD0EF0004E8B
:100ED0004EEA113114EB5C04C2BFD4EB0C0541EABD
:100EE000045170BD41F480114FF0000E013C90E6BA
:100EF00045EA060E8DE60CEA135594EA0C0F08BF7E
:100F000095EA0C0F3FF43BAF94EA0C0F0AD150EA7C
:100F100001347FF434AF95EA0C0F7FF425AF10460F
:100F200019462CE795EA0C0F06D152EA03353FF437
:100F3000FDAE1046194622E750EA410618BF52EAB4
:100F400043067FF4C5AE50EA41047FF40DAF52EA88
:100F500043057FF4EBAE12E74FF0FF3C06E000BF25
:100F60004FF0010C02E000BF4FF0010C4DF804CD32
:100F70004FEA410C7FEA6C5C4FEA430C18BF7FEAF2
:100F80006C5C1BD001B050EA410C0CBF52EA430C20
:100F900091EA030F02BF90EA020F0020704710F1A0
:100FA000000F91EA030F58BF994208BF90422CBF2F
:100FB000D8176FEAE37040F0010070474FEA410C28
:100FC0007FEA6C5C02D150EA013C07D14FEA430C46
:100FD0007FEA6C5CD6D152EA033CD3D05DF8040BB7
:100FE000704700BF8446104662468C4619466346E9
:100FF00000E000BF01B5FFF7B7FF002848BF10F1C0
:10100000000F01BD4DF808EDFFF7F4FF0CBF012004
:1010100000205DF808FB00BF4DF808EDFFF7EAFF80
:1010200034BF012000205DF808FB00BF4DF808ED3B
:10103000FFF7E0FF94BF012000205DF808FB00BF30
:101040004DF808EDFFF7CEFF94BF012000205DF8BA
:1010500008FB00BF4DF808EDFFF7C4FF34BF0120C7
:1010600000205DF808FB00BF4FEA410C7FEA6C5C92
:1010700002D150EA013C0AD14FEA430C7FEA6C5C92
:1010800002D152EA033C02D14FF0000070474FF00A
:10109000010070474FEA410212F5001215D211D536
:1010A0006FF47873B3EB625212D94FEAC12343F065
:1010B000004343EA505311F0004F23FA02F018BFE7
:1010C000404270474FF00000704750EA013005D1B0
:1010D00011F0004008BF6FF0004070474FF0000073
:1010E000704700BF80B582B000AF0023FB7122E0E3
:1010F000FB79503BDBB2184600F0F2F8002000F01C
:10110000EFF8102000F0ECF80023BB710CE0BA7986
:10111000FB790D49D2000A4413441B78184600F0AD
:10112000FCF8BB790133BB7197F90630002BEEDA7E
:10113000FB790133FB71FB79072BD9D900BF00BFC5
:101140000837BD4680BD00BFD409002080B500AF80
:101150000F4B1B680E4A23F4404313600C4B1B6873
:101160000B4A43F4804313600A4B01221A600A4B76
:1011700001221A60042000F099FB064B00221A603D
:10118000042000F093FB044B00221A6000BF80BDD6
:10119000000402409C8240429882404280B500AFE9
:1011A0000F4B1B680E4A23F4404313600C4B1B6823
:1011B0000B4A43F4804313600A4B00221A600A4B27
:1011C00000221A60042000F071FB064B01221A6015
:1011D000054B01221A60042000F068FB00BF80BDAF
:1011E00000040240988240429C82404280B584B014
:1011F00000AF0346FB711A4B1B68194A23F44043A6
:101200001360174B1B68164A43F480431360154B59
:1012100000221A600023FB7319E0FB79DB09DAB2C4
:10122000114B1A60FB795B00FB71022000F03EFB62
:101230000C4B01221A60022000F038FB094B0022FF
:101240001A60022000F032FBFB7B0133FB73FB7B57
:10125000072BE2D900BF00BF1037BD4680BD00BFDD
:1012600000040240988240429C82404280B582B095
:1012700000AF0023FB71164B1B68154A23F4404353
:101280001360134B124A1B681360124B01221A6041
:10129000012000F00BFB104B01221A60012000F02E
:1012A00005FB09E0FB790133FB71FB79FA2B03D9CC
:1012B000FFF774FF012307E0084B1B68002BF1D1F7
:1012C000054B00221A60002318460837BD4680BD32
:1012D000000402409C824042988240421C8240426C
:1012E00080B582B000AF0346FB71FFF72FFF782077
:1012F000FFF77CFFFFF7BAFF0020FFF777FFFFF74C
:10130000B5FFFB791846FFF771FFFFF7AFFFFFF757
:1013100045FF00BF0837BD4680BD80B582B000AF35
:101320000346FB71FFF712FF7820FFF75FFFFFF71F
:101330009DFF4020FFF75AFFFFF798FFFB79184603
:10134000FFF754FFFFF792FFFFF728FF00BF0837B2
:10135000BD4680BD80B582B000AF0023FB7114E0B4
:101360000023BB710AE0BA79FB790C49D2000A4428
:10137000134400221A70BB790133BB7197F9063010
:10138000002BF0DAFB790133FB71FB79072BE7D9EE
:10139000FFF7A8FE00BF0837BD4680BDD409002076
:1013A00080B582B002AF344B1B6B334A43F002036B
:1013B0001363012301930323009300230122C0211F
:1013C0002E4800F03FFB2E4B01221A602D4B0122CC
:1013D0001A60642000F0A8FAAE20FFF781FFD52044
:1013E000FFF77EFF5020FFF77BFFA820FFF778FF75
:1013F0003F20FFF775FFD320FFF772FF0020FFF7B4
:101400006FFF4020FFF76CFF8D20FFF769FF14206E
:10141000FFF766FF2020FFF763FF0220FFF760FF62
:10142000A120FFF75DFFC020FFF75AFFDA20FFF78A
:1014300057FF1220FFF754FF8120FFF751FFEF20E5
:10144000FFF74EFFD920FFF74BFFF120FFF748FFD2
:10145000DB20FFF745FF3020FFF742FFA420FFF716
:101460003FFFA620FFF73CFFAF20FFF739FFFFF754
:1014700071FF00BFBD4680BD00380240000402403D
:101480009C8240429882404280B500AF024802F000
:101490009FF800BF80BD00BFD40D002080B500AF15
:1014A000012001F069FA00BF80BD000080B582B064
:1014B00000AF0346FB80142000F036FAFB88012BB6
:1014C0000BD10121074801F00FFA0346012B04D18B
:1014D0004FF40071044801F036FA00BF0837BD46EA
:1014E00080BD00BF000002400014024080B588B0FB
:1014F00000AF0023BB601D4B1B6B1C4A43F0010374
:1015000013631A4B1B6B03F00103BB60BB68002322
:101510007B60164B1B6B154A43F010031363134B90
:101520001B6B03F010037B607B680123FB600023CF
:101530003B6102237B610323BB6107F10C03194666
:101540000B4801F037F81C23FB6000233B610123AB
:101550007B610323BB6107F10C031946054801F0C9
:1015600029F800BF2037BD4680BD00BF00380240CB
:10157000000002400010024080B586B000AF00239A
:101580003B60154B1B6B144A43F020031363124B53
:101590001B6B03F020033B603B684FF4C0637B6030
:1015A0000123BB600123FB6003233B613B1D194604
:1015B0000A4800F0FFFF01224FF40071074801F0D4
:1015C000AAF900224FF48061044801F0A4F900BF99
:1015D0001837BD4680BD00BF0038024000140240ED
:1015E00080B586B000AF03460A46FB801346BB8039
:1015F000184B194A1A60BB88164A5360154B0022D3
:101600009A60FB88134AD360124B00221A6111487A
:1016100001F066FE0023BB6000237B6100233B6179
:101620000123FB6007F1080300221946094802F074
:10163000BFF80021074801F0A3FE064B1B68DA68DB
:10164000044B1B6842F00102DA6000BF1837BD4648
:1016500080BD00BF1C0E00200008004080B58AB08D
:1016600000AF78607B681B681D4A934234D1002329
:101670003B611C4B1B6B1B4A43F008031363194B64
:101680001B6B03F008033B613B690023FB60154BB8
:101690001B6C144A43F004031364124B1B6C03F0DD
:1016A0000403FB60FB684FF480537B610223BB6142
:1016B0000223FB6103233B6202237B6207F11403D5
:1016C0001946094800F076FF002202211E2000F092
:1016D0008CFE1E2000F0A5FE00BF2837BD4680BD51
:1016E0000008004000380240000C024080B500AF06
:1016F000024801F06DFF00BF80BD00BF1C0E00203E
:1017000080B582B000AF78607B681B681A4A93424C
:1017100023D11A4B1B785BB2002B29DB174B1B78AC
:1017200003F04003002B23D0144B1B7803F03F033E
:101730003F2B0BD1114B1B7863F07F03DAB20F4BB9
:101740001A700F4B4FF6FF721A6011E00B4B1B78AB
:101750000133DAB2094B1A700AE07B681B68094A48
:10176000934205D101224FF48061074801F0D3F87C
:1017700000BF0837BD4680BD00080040640E002051
:10178000680E0020000400400014024080B582B0C2
:1017900000AF78607B681B68374A934268D1374B4B
:1017A0001B785BB2002B63DB344B1B7803F04003E8
:1017B000002B1CD0314B1B7863F07F03DAB22F4B28
:1017C0001A7000212E4802F08FF803462D4A13604C
:1017D0002B4B1B681A6A2A4B1B6822F00A021A62FA
:1017E000274B1A68264B1B68126A1A6240E0234B8B
:1017F00000221A70234B00221A60204B1B7843F002
:101800004003DAB21D4B1A701D4B1B681A6A41F275
:1018100011131340002B0FD1194B1B681A6A40F2A9
:1018200044431340002B07D1154B1B681A68144B17
:101830001B6822F001021A60114B1B6800225A62D9
:101840000F4B1B681A6A0E4B1B6822F00A021A62C1
:101850000B4B1B681A6A0A4B1B6842F002021A62A1
:10186000074B1B681A68064B1B6842F001021A609E
:1018700000BF0837BD4680BD00080040640E002050
:101880001C0E0020680E002080B582B000AF034619
:10189000FB71042000F0E0FDFB79034A136000BFF8
:1018A0000837BD4680BD00BF6C0E002080B489B0F3
:1018B00000AF78600023BB61194B5B687B61194BFB
:1018C0001A687B6802FB03F33B61154B9B68FB6165
:1018D000134B9B68FB60FA68FB699A42F8D0FA6880
:1018E000FB699A4206D2FA69FB68D31ABA691344B3
:1018F000BB6107E07A69FB68D21AFB691344BA69D5
:101900001344BB61FB68FB61BA693B699A4200D230
:10191000DEE700BF00BF2437BD4680BC704700BF74
:1019200010E000E06C0E002080B584B000AF0346EC
:10193000FB800023FB6006E04FF47A70FFF7B6FFF0
:10194000FB680133FB60FB88FA689A42F4D300BF5E
:1019500000BF1037BD4680BD80B598B000AFF860BD
:10196000B9607A603B60002387F85F3000237B61B9
:10197000314B1B6C304A43F0805313642E4B1B6C6D
:1019800003F080537B617B6900233B612B4B1B6819
:101990002A4A43F480431360284B1B6803F48043B6
:1019A0003B613B690123FB624FF480333B634FF49F
:1019B0008003BB6402237B64BB68FB64FB683B65FC
:1019C0007B687B653B68BB6507F12C03184600F01C
:1019D000EBFF034687F85F3097F85F30002B00D0AD
:1019E000FEE70F23BB610223FB6100233B624FF440
:1019F000A0537B624FF48053BB6207F118030521AB
:101A0000184601F049FA034687F85F3097F85F30CF
:101A1000002B00D0FEE700F005FC034641F2010276
:101A2000934205D1064B1B68054A43F4807313604B
:101A300000BF6037BD4680BD0038024000700040E6
:101A4000003C024080B489B000AFF860B9607A60B1
:101A50003B600023FB610023BB6100237B6100230B
:101A6000FB6167E00122FB6902FA03F3BB61BA681C
:101A7000BB6913407B617A69BB699A4257D1FB68A5
:101A80001B68FA695200032101FA02F2D2431A409C
:101A9000FB681A60FB681A68FB695B00796801FAE9
:101AA00003F31A43FB681A607B68012B02D07B6842
:101AB000022B27D1FB689B68FA695200032101FAC7
:101AC00002F2D2431A40FB689A60FB689A68FB698D
:101AD0005B00B96A01FA03F31A43FB689A60FB687A
:101AE0005B680121FA6901FA02F2D2431A40FB68ED
:101AF0005A60FB685A683968FB6901FA03F31A43B4
:101B0000FB685A60FB68DB68FA695200032101FA3E
:101B100002F2D2431A40FB68DA60FB68DA68FB69BC
:101B20005B00F96A01FA03F31A43FB68DA60FB69A8
:101B30000133FB61FB690F2B94D900BF00BF243731
:101B4000BD4680BC7047000080B483B000AF7860B1
:101B500000BF084B1B6803F04003002BF9D07B68E3
:101B6000DAB2044B5A607B6818460C37BD4680BC1D
:101B7000704700BF0010014080B582B000AF7860B0
:101B8000104B114A1A600F4A7B6853600D4B0022BC
:101B90009A600C4B0022DA600A4B00221A61094B52
:101BA00000229A61074B0C225A61064802F001F9A3
:101BB00001220649034802F04CF900BF0837BD4630
:101BC00080BD00BF400F0020001001403C0F0020EE
:101BD00080B58AB000AF78607B681B68224A934268
:101BE0003DD100233B61214B1B6B204A43F0010395
:101BF00013631E4B1B6B03F001033B613B69002326
:101C0000FB601A4B5B6C194A43F010035364174B8B
:101C10005B6C03F01003FB60FB684FF400737B61A7
:101C20000223BB610123FB6102233B6207237B622A
:101C300007F1140319460E4800F0BCFC4FF4806312
:101C40007B6107F114031946094800F0B3FC252015
:101C500000F0E7FB03220321252000F0C6FB00BFB4
:101C60002837BD4680BD00BF00100140003802404B
:101C70000000024080B483B000AF78607B681B68CE
:101C8000224A93423DD1224B1B881BB2002B38DBEA
:101C90001F4B1B8803F48043002B11D01D4B1B7876
:101CA0000A2B03D01A4B00221A802AE0184B1B88FB
:101CB0006FEA43436FEA53439AB2154B1A8020E010
:101CC000144B1B780D2B07D1114B1B8843F4804319
:101CD0009AB20F4B1A8014E00D4B1B88C3F30D030F
:101CE0000C4A11780C4AD154094B1B8801339AB223
:101CF000074B1A80064B1B88C72B02D9044B0022C6
:101D00001A8000BF0C37BD4680BC704700100140F0
:101D1000380F00203C0F0020700E002080B582B0EC
:101D200000AF00237B60114802F0B8F800237B600D
:101D300002E07B6801337B600C4802F05EFB0346E7
:101D4000202BF6D100237B6002E07B6801337B60AF
:101D500001220749054802F07CF80346002BF4D124
:101D600000BF00BF0837BD4680BD00BF400F002048
:101D70003C0F002080B485B000AF0023FB60164B01
:101D80001B6B154A43F004031363134B1B6B03F0E7
:101D90000403FB60FB680023BB600F4B1B6B0E4A08
:101DA00043F0800313630C4B1B6B03F08003BB6099
:101DB000BB6800237B60084B1B6B074A43F00103A1
:101DC0001363054B1B6B03F001037B607B6800BF53
:101DD0001437BD4680BC7047003802402DE9B04F33
:101DE00088B000AF00F0B0F90723022208214FF4B9
:101DF000A870FFF7B1FDFFF7BDFFA820FFF744FD76
:101E00004FF4E130FFF7B8FEFFF7B6FBFFF76EFBCC
:101E1000FFF7C6FA53214FF6FF70FFF7E1FB2748A3
:101E200003F036F84FF000024FF00003C7E9062335
:101E30000A20FFF779FD224B1B785BB2002BF7DA03
:101E40001F4B1B78DBB200223B617A613B6903F0D8
:101E50003F03BB600023FB60D7E90234C7E90634C7
:101E6000D7E9064522462B464FF000004FF000010F
:101E7000190441EA1241100402460B46B2EB040A6F
:101E800063EB050BC7E906AB0E4B1B6800229846B7
:101E90009146D7E9062312EB0801396043EB0903A9
:101EA0007B60D7E90034C7E90634D7E90623064842
:101EB00002F08CFF024B00221A70B9E780AC0008D8
:101EC000640E0020680E002088AC000880B483B047
:101ED00000AF00237B600F4B5B6C0E4A43F48043E2
:101EE00053640C4B5B6C03F480437B607B68002382
:101EF0003B60084B1B6C074A43F080531364054B4F
:101F00001B6C03F080533B603B6800BF0C37BD4641
:101F100080BC70470038024080B400AFFEE780B458
:101F200000AFFEE780B400AFFEE780B400AFFEE78D
:101F300080B400AFFEE780B400AF00BFBD4680BCF8
:101F4000704780B400AF00BFBD4680BC704780B40E
:101F500000AF00BFBD4680BC704780B500AF00F049
:101F600045F900BF80BD80B400AF01231846BD46CF
:101F700080BC704780B582B000AF7860396002F0F5
:101F8000A9FE034616221A604FF0FF3318460837A1
:101F9000BD4680BD80B582B000AF78604FF0FF31A4
:101FA0007868FFF7E7FFFEE780B586B000AFF8601E
:101FB000B9607A6000237B610AE0AFF300800146DC
:101FC000BB685A1CBA60CAB21A707B6901337B6164
:101FD0007A697B689A42F0DB7B6818461837BD4601
:101FE00080BD80B586B000AFF860B9607A6000232C
:101FF0007B6109E0BB685A1CBA601B781846FFF782
:10200000A3FD7B6901337B617A697B689A42F1DBCE
:102010007B6818461837BD4680BD80B483B000AFDA
:1020200078604FF0FF3318460C37BD4680BC7047D0
:1020300080B483B000AF786039603B684FF40052E1
:102040005A60002318460C37BD4680BC704780B4E8
:1020500083B000AF7860012318460C37BD4680BCC2
:10206000704780B485B000AFF860B9607A60002333
:1020700018461437BD4680BC7047000080B586B056
:1020800000AF7860144A154BD31A7B617B693B61C2
:10209000134B1B68002B02D1114B124A1A60104BD4
:1020A0001A687B6813443A699A4207D202F012FE1A
:1020B00003460C221A604FF0FF3309E0084B1B68FF
:1020C000FB60074B1A687B681344054A1360FB6882
:1020D00018461837BD4680BD0000022000040000ED
:1020E000880F0020D80F002080B400AF00BFBD468D
:1020F00080BC7047DFF834D0FFF7F6FF0C480D497D
:102100000D4A002302E0D458C4500433C4188C4252
:10211000F9D30A4A0A4C002301E013600432A242B8
:10212000FBD302F0DDFDFFF759FE704700000220EF
:1021300000000020B8090020C4B00008B809002041
:10214000D80F0020FEE7000080B500AF0E4B1B68E3
:102150000D4A43F4007313600B4B1B680A4A43F4A7
:1021600080631360084B1B68074A43F48073136055
:10217000032000F02FF90F2000F008F8FFF7A6FE6B
:102180000023184680BD00BF003C024080B582B0ED
:1021900000AF7860124B1A68124B1B7819464FF447
:1021A0007A73B3FBF1F3B2FBF3F3184600F047F98F
:1021B0000346002B01D001230EE07B680F2B0AD8C9
:1021C000002279684FF0FF3000F00FF9064A7B6873
:1021D0001360002300E0012318460837BD4680BD88
:1021E00000000020080000200400002080B400AFA0
:1021F000054B1B781A46054B1B681344034A1360B2
:1022000000BFBD4680BC7047080000208C0F002036
:1022100080B400AF024B1B681846BD4680BC7047B7
:102220008C0F002080B400AF034B1B681B0C1846BA
:10223000BD4680BC704700BF002004E080B485B07C
:1022400000AF78607B6803F00703FB600C4BDB6832
:10225000BB60BA684FF6FF031340BB60FB681A020D
:10226000BB68134343F0BF6343F40033BB60044ACD
:10227000BB68D36000BF1437BD4680BC704700BF49
:1022800000ED00E080B400AF044BDB681B0A03F0F4
:1022900007031846BD4680BC704700BF00ED00E054
:1022A00080B483B000AF0346FB7197F90730002B71
:1022B0000BDBFB7903F01F02064997F907305B0936
:1022C000012000FA02F241F8232000BF0C37BD467E
:1022D00080BC704700E100E080B483B000AF0346EB
:1022E0003960FB7197F90730002B0ADB3B68DAB2E3
:1022F0000C4997F907301201D2B20B4483F800233E
:102300000AE03B68DAB20849FB7903F00F03043BAB
:102310001201D2B20B441A7600BF0C37BD4680BC06
:10232000704700BF00E100E000ED00E080B489B03C
:1023300000AFF860B9607A60FB6803F00703FB61E7
:10234000FB69C3F10703042B28BF0423BB61FB69AE
:102350000433062B02D9FB69033B00E000237B61B9
:102360004FF0FF32BB6902FA03F3DA43BB681A404D
:102370007B699A404FF0FF317B6901FA03F3D9433F
:102380007B680B40134318462437BD4680BC70471A
:1023900080B582B000AF78607B68013BB3F1807F8D
:1023A00001D301230FE00A4A7B68013B53600F21F0
:1023B0004FF0FF30FFF790FF054B00229A60044B6F
:1023C00007221A60002318460837BD4680BD00BFAB
:1023D00010E000E080B582B000AF78607868FFF769
:1023E0002DFF00BF0837BD4680BD80B586B000AF69
:1023F0000346B9607A60FB7300237B61FFF742FFFD
:1024000078617A68B9687869FFF790FF024697F9B2
:102410000F3011461846FFF75FFF00BF1837BD4663
:1024200080BD80B582B000AF0346FB7197F90730DD
:102430001846FFF735FF00BF0837BD4680BD80B5A1
:1024400082B000AF78607868FFF7A2FF03461846B5
:102450000837BD4680BD000080B483B000AF78600F
:102460007B68042B06D1094B1B68084A43F0040320
:10247000136005E0054B1B68044A23F00403136056
:1024800000BF0C37BD4680BC704700BF10E000E0C5
:1024900080B584B000AF78607B689B6DFB60FFF710
:1024A000B7FEB8607B6893F83530DBB2022B08D0FA
:1024B0007B6880225A657B68002283F834200123E0
:1024C00052E07B681B681A687B681B6822F0160262
:1024D0001A607B681B685A697B681B6822F080025F
:1024E0005A617B681B6C002B03D17B689B6C002BB3
:1024F00007D07B681B681A687B681B6822F008029B
:102500001A607B681B681A687B681B6822F00102EE
:102510001A6013E0FFF77CFE0246BB68D31A052B56
:102520000CD97B6820225A657B68032283F835200A
:102530007B68002283F83420032315E07B681B6846
:102540001B6803F00103002BE4D17B68DB6D3F22A5
:102550009A40FB689A607B68012283F835207B688B
:10256000002283F83420002318461037BD4680BD72
:1025700080B483B000AF78607B6893F83530DBB20D
:10258000022B04D07B6880225A6501230CE07B6813
:10259000052283F835207B681B681A687B681B68F6
:1025A00022F001021A60002318460C37BD4680BC99
:1025B0007047000080B489B000AF786039600023B4
:1025C0007B6100233B610023BB610023FB616BE166
:1025D0000122FB6902FA03F37B613B681B687A699D
:1025E00013403B613A697B699A4240F05A813B68EB
:1025F0005B6803F00303012B05D03B685B6803F0C5
:102600000303022B30D17B689B68BB61FB695B00D5
:10261000032202FA03F3DB43BA691340BB613B6850
:10262000DA68FB695B0002FA03F3BA691343BB6122
:102630007B68BA699A607B685B68BB610122FB6951
:1026400002FA03F3DB43BA691340BB613B685B6882
:102650001B0903F00102FB6902FA03F3BA69134391
:10266000BB617B68BA695A603B685B6803F003032F
:10267000032B17D07B68DB68BB61FB695B0003221F
:1026800002FA03F3DB43BA691340BB613B689A6803
:10269000FB695B0002FA03F3BA691343BB617B6811
:1026A000BA69DA603B685B6803F00303022B23D14D
:1026B000FB69DA087B68083253F82230BB61FB699A
:1026C00003F007039B000F2202FA03F3DB43BA690E
:1026D0001340BB613B681A69FB6903F007039B0069
:1026E00002FA03F3BA691343BB61FB69DA087B683A
:1026F0000832B96943F822107B681B68BB61FB692B
:102700005B00032202FA03F3DB43BA691340BB61A7
:102710003B685B6803F00302FB695B0002FA03F3AA
:10272000BA691343BB617B68BA691A603B685B682E
:1027300003F44033002B00F0B4800023FB605F4BB8
:102740005B6C5E4A43F4804353645C4B5B6C03F404
:102750008043FB60FB685A4AFB699B08023352F8CE
:102760002330BB61FB6903F003039B000F2202FAD5
:1027700003F3DB43BA691340BB617B68514A934260
:102780002BD07B68504A934225D07B684F4A9342B6
:102790001FD07B684E4A934219D07B684D4A9342C2
:1027A00013D07B684C4A93420DD07B684B4A9342CE
:1027B00007D07B684A4A934201D107230EE00823E1
:1027C0000CE006230AE0052308E0042306E00323C7
:1027D00004E0022302E0012300E00023FA6902F092
:1027E000030292009340BA691343BB613449FB6909
:1027F0009B080233BA6941F823203A4B9B68BB61BE
:102800003B69DB43BA691340BB613B685B6803F417
:102810008013002B03D0BA693B691343BB61314A73
:10282000BB6993602F4BDB68BB613B69DB43BA69D3
:102830001340BB613B685B6803F40013002B03D0BB
:10284000BA693B691343BB61264ABB69D360254B18
:102850005B68BB613B69DB43BA691340BB613B68A2
:102860005B6803F40033002B03D0BA693B69134360
:10287000BB611C4ABB6953601A4B1B68BB613B6957
:10288000DB43BA691340BB613B685B6803F4803388
:10289000002B03D0BA693B691343BB61114ABB6982
:1028A0001360FB690133FB61FB690F2B7FF690AE70
:1028B00000BF00BF2437BD4680BC704700380240CF
:1028C00000380140000002400004024000080240BD
:1028D000000C0240001002400014024000180240A8
:1028E000001C0240003C014080B485B000AF78601D
:1028F0000B467B807B681A697B881340002B02D0D3
:102900000123FB7301E00023FB73FB7B18461437A4
:10291000BD4680BC704780B483B000AF78600B4682
:102920007B8013467B707B78002B03D07A887B6892
:102930009A6103E07B881A047B689A6100BF0C37B8
:10294000BD4680BC704780B485B000AF78600B4650
:102950007B807B685B69FB607A88FB6813401A04A4
:10296000FB68D9437B880B401A437B689A6100BFA0
:102970001437BD4680BC704780B582B000AF0346B7
:10298000FB80084B5A69FB881340002B06D0054A90
:10299000FB885361FB881846FEF788FD00BF0837A7
:1029A000BD4680BD003C014080B586B000AF786078
:1029B0007B68002B01D1012367E27B681B6803F071
:1029C0000103002B75D0884B9B6803F00C03042B8C
:1029D0000CD0854B9B6803F00C03082B12D1824B63
:1029E0005B6803F48003B3F5800F0BD17E4B1B684B
:1029F00003F40033002B5BD07B685B68002B57D15E
:102A0000012342E27B685B68B3F5803F06D1764BD9
:102A10001B68754A43F4803313601DE07B685B6874
:102A2000B3F5A02F0CD1704B1B686F4A43F4802381
:102A300013606D4B1B686C4A43F4803313600BE0EA
:102A4000694B1B68684A23F480331360664B1B682C
:102A5000654A23F4802313607B685B68002B13D0E6
:102A6000FFF7D6FB386108E0FFF7D2FB02463B696F
:102A7000D31A642B01D9032307E25B4B1B6803F4D1
:102A80000033002BF0D014E0FFF7C2FB386108E000
:102A9000FFF7BEFB02463B69D31A642B01D903231F
:102AA000F3E1514B1B6803F40033002BF0D100E03D
:102AB00000BF7B681B6803F00203002B63D04A4B06
:102AC0009B6803F00C03002B0BD0474B9B6803F073
:102AD0000C03082B1CD1444B5B6803F48003002BD0
:102AE00016D1414B1B6803F00203002B05D07B6815
:102AF000DB68012B01D00123C7E13B4B1B6823F0AE
:102B0000F8027B681B69DB00374913430B603AE02E
:102B10007B68DB68002B20D0344B01221A60FFF762
:102B200077FB386108E0FFF773FB02463B69D31A75
:102B3000022B01D90323A8E12B4B1B6803F00203EE
:102B4000002BF0D0284B1B6823F0F8027B681B6930
:102B5000DB00254913430B6015E0244B00221A606B
:102B6000FFF756FB386108E0FFF752FB02463B696E
:102B7000D31A022B01D9032387E11B4B1B6803F0F7
:102B80000203002BF0D17B681B6803F00803002BC5
:102B900036D07B685B69002B16D0154B01221A607A
:102BA000FFF736FB386108E0FFF732FB02463B696E
:102BB000D31A022B01D9032367E10B4B5B6F03F0A0
:102BC0000203002BF0D01BE0094B00221A60FFF734
:102BD0001FFB38610EE0FFF71BFB02463B69D31A6F
:102BE000022B07D9032350E100380240000047427E
:102BF000800E4742884B5B6F03F00203002BEAD143
:102C00007B681B6803F00403002B00F0978000230F
:102C1000FB75814B1B6C03F08053002B0FD10023FD
:102C2000BB607D4B1B6C7C4A43F0805313647A4B32
:102C30001B6C03F08053BB60BB680123FB75774BB3
:102C40001B6803F48073002B18D1744B1B68734A04
:102C500043F480731360FFF7DBFA386108E0FFF795
:102C6000D7FA02463B69D31A022B01D903230CE1A0
:102C70006A4B1B6803F48073002BF0D07B689B6861
:102C8000012B06D1644B1B6F634A43F001031367AA
:102C90001CE07B689B68052B0CD15F4B1B6F5E4A69
:102CA00043F0040313675C4B1B6F5B4A43F0010363
:102CB00013670BE0584B1B6F574A23F00103136750
:102CC000554B1B6F544A23F0040313677B689B68C2
:102CD000002B15D0FFF79CFA38610AE0FFF798FA4D
:102CE00002463B69D31A41F28832934201D9032349
:102CF000CBE0494B1B6F03F00203002BEED014E036
:102D0000FFF786FA38610AE0FFF782FA02463B696C
:102D1000D31A41F28832934201D90323B5E03E4BE6
:102D20001B6F03F00203002BEED1FB7D012B05D1BD
:102D3000394B1B6C384A23F0805313647B689B69C2
:102D4000002B00F0A180344B9B6803F00C03082B90
:102D50005CD07B689B69022B41D1314B00221A6009
:102D6000FFF756FA386108E0FFF752FA02463B696E
:102D7000D31A022B01D9032387E0274B1B6803F0EA
:102D80000073002BF0D17B68DA697B681B6A1A43F9
:102D90007B685B6A9B011A437B689B6A5B08013B0B
:102DA0001B041A437B68DB6A1B061B4913434B60F9
:102DB0001B4B01221A60FFF72BFA386108E0FFF77E
:102DC00027FA02463B69D31A022B01D903235CE0A0
:102DD000114B1B6803F00073002BF0D054E0104B34
:102DE00000221A60FFF714FA386108E0FFF710FAC2
:102DF00002463B69D31A022B01D9032345E0064B57
:102E00001B6803F00073002BF0D13DE07B689B69E9
:102E1000012B07D1012338E0003802400070004048
:102E2000600047421B4B5B68FB607B689B69012B22
:102E300028D0FB6803F480027B68DB699A4221D1C9
:102E4000FB6803F03F027B681B6A9A421AD1FA685A
:102E500047F6C07313407A68526A9201934211D1C7
:102E6000FB6803F440327B689B6A5B08013B1B04F0
:102E70009A4207D1FB6803F070627B68DB6A1B062D
:102E80009A4201D0012300E0002318461837BD46BE
:102E900080BD00BF0038024080B584B000AF7860CC
:102EA00039607B68002B01D10123CCE0684B1B68A3
:102EB00003F007033A689A420CD9654B3A68D2B2DC
:102EC0001A70634B1B6803F007033A689A4201D0FB
:102ED0000123B8E07B681B6803F00203002B20D0BD
:102EE0007B681B6803F00403002B05D0594B9B68DB
:102EF000584A43F4E05393607B681B6803F008036F
:102F0000002B05D0534B9B68524A43F460439360B7
:102F1000504B9B6823F0F0027B689B684D4913433C
:102F20008B607B681B6803F00103002B44D07B6837
:102F30005B68012B07D1474B1B6803F40033002B60
:102F400019D101237FE07B685B68022B03D07B688B
:102F50005B68032B07D13F4B1B6803F00073002B0A
:102F600009D101236FE03B4B1B6803F00203002BE8
:102F700001D1012367E0374B9B6823F003027B6894
:102F80005B68344913438B60FFF742F9F8600AE04D
:102F9000FFF73EF90246FB68D31A41F288329342AA
:102FA00001D903234FE02B4B9B6803F00C027B6895
:102FB0005B689B009A42EBD1254B1B6803F007032B
:102FC0003A689A420CD2224B3A68D2B21A70204B1D
:102FD0001B6803F007033A689A4201D0012332E0EC
:102FE0007B681B6803F00403002B08D0194B9B6817
:102FF00023F4E0527B68DB68164913438B607B68DF
:103000001B6803F00803002B09D0124B9B6823F4C4
:1030100060427B681B69DB000E4913438B6000F044
:1030200021F802460B4B9B681B0903F00F030A496A
:10303000CB5C22FA03F3094A1360094B1B6818465C
:10304000FFF7A4F8002318461037BD4680BD00BF27
:10305000003C02400038024098AC0008000000200C
:10306000040000202DE9B04F94B000AF00237B6432
:103070000023FB6400233B640023BB647C4B9B6800
:1030800003F00C03082B0DD0082B00F2E780002B77
:1030900002D0042B03D0E1E0764BBB64E1E0764B39
:1030A000BB64DEE0724B5B6803F03F037B64704BF4
:1030B0005B6803F48003002B65D06D4B5B689B0954
:1030C0000022BB63FA63BB6BC3F308033B630023BB
:1030D0007B63D7E90C4522462B464FF000004FF0AA
:1030E0000001590141EAD261500102460B462146D6
:1030F000511A3961294663EB01037B614FF00002ED
:103100004FF00003D7E904AB59468B01514643EA1F
:10311000916351468A01D446B2EB0C08594663EBE1
:1031200001094FF000024FF000034FEAC90343EAE0
:1031300058734FEAC80290469946234618EB03039A
:10314000BB602B4649EB0303FB604FF000024FF0DE
:103150000003D7E9024529464B022046294604468A
:1031600043EAD45301464A02104619467B6C0022BA
:10317000BB62FA62D7E90A23FDF7FEF902460B4665
:103180001346FB645CE03A4B5B689B0900221846DF
:103190001146C0F308033B6200237B62D7E908892C
:1031A00042464B464FF000004FF00001590141EA02
:1031B000D261500102460B46C446B2EB0C0A4046AF
:1031C00049468C4663EB0C0B4FF000024FF00003B6
:1031D0004FEA8B1343EA9A634FEA8A12B2EB0A046E
:1031E00063EB0B054FF000024FF00003EB0043EAE6
:1031F0005473E20014461D460346E3183B600B4639
:1032000045EB03037B604FF000024FF00003D7E96A
:10321000004529468B0220462946044643EA94533A
:1032200001468A02104619467B6C0022BB61FA6196
:10323000D7E90623FDF7A0F902460B461346FB64C7
:103240000B4B5B681B0C03F0030301335B003B6417
:10325000FA6C3B6CB2FBF3F3BB6402E0054BBB645E
:1032600000BFBB6C18465037BD46BDE8B08F00BFED
:10327000003802400024F40000127A0080B400AF4D
:10328000024B1B681846BD4680BC704700000020FA
:1032900080B500AFFFF7F2FF0246054B9B689B0A23
:1032A00003F007030349CB5C22FA03F3184680BD01
:1032B00000380240A8AC000880B500AFFFF7DEFF81
:1032C0000246054B9B685B0B03F007030349CB5C8D
:1032D00022FA03F3184680BD00380240A8AC00086B
:1032E00080B582B000AF78607B68002B01D10123EC
:1032F00041E07B6893F83D30DBB2002B06D17B6860
:10330000002283F83C207868FEF7A8F97B68022247
:1033100083F83D207B681A687B68043319461046A1
:1033200000F042FB7B68012283F846207B68012283
:1033300083F83E207B68012283F83F207B680122CE
:1033400083F840207B68012283F841207B680122BA
:1033500083F842207B68012283F843207B680122A6
:1033600083F844207B68012283F845207B68012292
:1033700083F83D20002318460837BD4680BD000075
:1033800080B584B000AF786039600023FB733B6880
:10339000002B04D17B6893F83E30DBB213E03B682E
:1033A000042B04D17B6893F83F30DBB20BE03B6821
:1033B000082B04D17B6893F84030DBB203E07B68D4
:1033C00093F84130DBB2BB733B68002B04D17B68C0
:1033D00093F84230DBB213E03B68042B04D17B68E6
:1033E00093F84330DBB20BE03B68082B04D17B68D9
:1033F00093F84430DBB203E07B6893F84530DBB2EE
:103400007B73BB7B012B02D17B7B012B01D0012382
:10341000CCE03B68002B04D17B68022283F83E207D
:1034200013E03B68042B04D17B68022283F83F2021
:103430000BE03B68082B04D17B68022283F8402014
:1034400003E07B68022283F841203B68002B04D113
:103450007B68022283F8422013E03B68042B04D1EE
:103460007B68022283F843200BE03B68082B04D1E1
:103470007B68022283F8442003E07B68022283F801
:1034800045203B680C2B41D801A252F823F000BF25
:10349000C53400080D3500080D3500080D3500084D
:1034A000D73400080D3500080D3500080D3500082B
:1034B000E93400080D3500080D3500080D35000809
:1034C000FB3400087B681B68DA687B681B6842F085
:1034D0000202DA601DE07B681B68DA687B681B68A3
:1034E00042F00402DA6014E07B681B68DA687B68EB
:1034F0001B6842F00802DA600BE07B681B68DA6840
:103500007B681B6842F01002DA6002E00123FB7363
:1035100000BFFB7B002B48D17B681B680122396808
:10352000184600F010FC7B681B68224A934222D0A8
:103530007B681B68B3F1804F1DD07B681B681E4AF7
:10354000934218D07B681B681C4A934213D07B6857
:103550001B681B4A93420ED07B681B68194A934232
:1035600009D07B681B68184A934204D07B681B68AB
:10357000164A934211D17B681B689B6803F00703CE
:10358000BB60BB68062B10D07B681B681A687B6821
:103590001B6842F001021A6007E07B681B681A682A
:1035A0007B681B6842F001021A60FB7B18461037EB
:1035B000BD4680BD000001400004004000080040FE
:1035C000000C004000040140004001400018004091
:1035D00080B584B000AF78607B681B68DB68FB60F7
:1035E0007B681B681B69BB60BB6803F00203002B90
:1035F00020D0FB6803F00203002B1BD07B681B6804
:103600006FF002021A617B6801221A777B681B68DF
:103610009B6903F00303002B03D07868FEF7B6F82C
:1036200005E0786800F0A4F9786800F0AAF97B68F2
:1036300000221A77BB6803F00403002B20D0FB683C
:1036400003F00403002B1BD07B681B686FF004029F
:103650001A617B6802221A777B681B689B6903F4F6
:103660004073002B03D07868FEF790F805E0786887
:1036700000F07EF9786800F084F97B6800221A7700
:10368000BB6803F00803002B20D0FB6803F008039D
:10369000002B1BD07B681B686FF008021A617B68E7
:1036A00004221A777B681B68DB6903F00303002B95
:1036B00003D07868FEF76AF805E0786800F058F9FA
:1036C000786800F05EF97B6800221A77BB6803F027
:1036D0001003002B20D0FB6803F01003002B1BD03D
:1036E0007B681B686FF010021A617B6808221A77EA
:1036F0007B681B68DB6903F44073002B03D0786898
:10370000FEF744F805E0786800F032F9786800F0D8
:1037100038F97B6800221A77BB6803F00103002B9D
:103720000CD0FB6803F00103002B07D07B681B68FB
:103730006FF001021A617868FDF7E2FFBB6803F0E1
:103740008003002B0CD0FB6803F08003002B07D014
:103750007B681B686FF080021A61786800F020FBBC
:10376000BB6803F04003002B0CD0FB6803F0400360
:10377000002B07D07B681B686FF040021A617868E5
:1037800000F008F9BB6803F02003002B0CD0FB68A5
:1037900003F02003002B07D07B681B686FF020022A
:1037A0001A61786800F0F3FA00BF1037BD4680BD9B
:1037B00080B586B000AFF860B9607A600023FB7511
:1037C000FB6893F83C30012B01D1022388E0FB68B1
:1037D000012283F83C207B68002B1BD1FB68186812
:1037E000BB681968BB685A68BB68DB6800F086F97B
:1037F000FB681B689A69FB681B6822F00C029A61DF
:10380000FB681B689969BB689A68FB681B680A4378
:103810009A6160E07B68042B1CD1FB681868BB6868
:103820001968BB685A68BB68DB6800F0D9F9FB68A7
:103830001B689A69FB681B6822F440629A61FB6806
:103840001B689969BB689B681A02FB681B680A437E
:103850009A6140E07B68082B1BD1FB681868BB6845
:103860001968BB685A68BB68DB6800F0F5F9FB684B
:103870001B68DA69FB681B6822F00C02DA61FB68DE
:103880001B68D969BB689A68FB681B680A43DA61E0
:1038900021E07B680C2B1CD1FB681868BB68196899
:1038A000BB685A68BB68DB6800F011FAFB681B68EC
:1038B000DA69FB681B6822F44062DA61FB681B6806
:1038C000D969BB689B681A02FB681B680A43DA6106
:1038D00001E00123FB75FB68002283F83C20FB7D9F
:1038E00018461837BD4680BD80B485B000AF7860FB
:1038F00039600023FB603B680C2B31D801A252F8E1
:1039000023F000BF39390008613900086139000827
:10391000613900084339000861390008613900083D
:10392000613900084D390008613900086139000823
:1039300061390008573900087B681B685B6BFB60C6
:103940000FE07B681B689B6BFB600AE07B681B6871
:10395000DB6BFB6005E07B681B681B6CFB6000E0B9
:1039600000BFFB6818461437BD4680BC704700BFD7
:1039700080B483B000AF786000BF0C37BD4680BC18
:10398000704780B483B000AF786000BF0C37BD468D
:1039900080BC704780B483B000AF786000BF0C3744
:1039A000BD4680BC7047000080B485B000AF786031
:1039B00039607B681B68FB607B68454A934213D083
:1039C0007B68B3F1804F0FD07B68424A93420BD0A3
:1039D0007B68414A934207D07B68404A934203D0B8
:1039E0007B683F4A934208D1FB6823F07003FB6079
:1039F0003B685B68FA681343FB607B68344A934218
:103A00002BD07B68B3F1804F27D07B68314A93423B
:103A100023D07B68304A93421FD07B682F4A934261
:103A20001BD07B682E4A934217D07B682D4A934265
:103A300013D07B682C4A93420FD07B682B4A934269
:103A40000BD07B682A4A934207D07B68294A93426D
:103A500003D07B68284A934208D1FB6823F4407363
:103A6000FB603B68DB68FA681343FB60FB6823F08C
:103A700080023B685B691343FB607B68FA681A60ED
:103A80003B689A687B68DA623B681A687B689A626E
:103A90007B680F4A934203D07B68114A934203D15B
:103AA0003B681A697B681A637B6801225A617B68EC
:103AB0001B6903F00103012B05D17B681B6923F00F
:103AC00001027B681A6100BF1437BD4680BC704795
:103AD000000001400004004000080040000C0040CD
:103AE0000004014000400140004401400048014002
:103AF00000180040001C00400020004080B487B047
:103B000000AFF860B9607A603B60FB681B6A3B619C
:103B1000FB681B6A23F00102FB681A62FB689B6961
:103B20007B61FB68274A93421BD0FB68B3F1804F4F
:103B300017D0FB68244A934213D0FB68234A934270
:103B40000FD0FB68224A93420BD0FB68214A934274
:103B500007D0FB68204A934203D0FB681F4A934278
:103B600001D1012300E00023002B08D07B6923F062
:103B700003037B617A697B6813437B6103E07B69A4
:103B800043F001037B617B6923F0F0037B613B68B9
:103B90001B01DBB27A6913437B613B6923F00A03A3
:103BA0003B61BB6803F00A033A6913433B61FB685E
:103BB0007A699A61FB683A691A6200BF1C37BD4690
:103BC00080BC704700000140000400400008004035
:103BD000000C00400004014000400140001800407B
:103BE00080B487B000AFF860B9607A603B60FB6872
:103BF0001B6A7B61FB681B6A23F01002FB681A6278
:103C0000FB689B693B613B6923F440733B617B68C4
:103C10001B023A6913433B613B6923F470433B61E8
:103C20003B681B039BB23A6913433B617B6923F0FA
:103C3000A0037B61BB681B0103F0A0037A691343F7
:103C40007B61FB683A699A61FB687A691A6200BF16
:103C50001C37BD4680BC704780B487B000AFF860A9
:103C6000B9607A603B60FB681B6A7B61FB681B6A1A
:103C700023F48072FB681A62FB68DB693B613B6975
:103C800023F003033B613A697B6813433B613B6963
:103C900023F0F0033B613B681B01DBB23A6913433D
:103CA0003B617B6923F420637B61BB681B0203F4E7
:103CB00020637A6913437B61FB683A69DA61FB68C8
:103CC0007A691A6200BF1C37BD4680BC704780B459
:103CD00087B000AFF860B9607A603B60FB681B6A30
:103CE0007B61FB681B6A23F48052FB681A62FB68E5
:103CF000DB693B613B6923F440733B617B681B02DA
:103D00003A6913433B613B6923F470433B613B6871
:103D10001B039BB23A6913433B617B6923F4204345
:103D20007B61BB681B0303F420437A6913437B6107
:103D3000FB683A69DA61FB687A691A6200BF1C376E
:103D4000BD4680BC704780B487B000AFF860B960F2
:103D50007A60BB6803F01F03012202FA03F37B6160
:103D6000FB681A6A7B69DB431A40FB681A62FB68CE
:103D70001A6ABB6803F01F03796801FA03F31A4358
:103D8000FB681A6200BF1C37BD4680BC704780B418
:103D900083B000AF786000BF0C37BD4680BC704771
:103DA00080B483B000AF786000BF0C37BD4680BCE4
:103DB000704780B582B000AF78607B68002B01D17E
:103DC000012342E07B6893F84130DBB2002B06D13F
:103DD0007B68002283F840207868FDF7F9FE7B6855
:103DE000242283F841207B681B68DA687B681B68A3
:103DF00022F40052DA60786800F0F0FC7B681B68FF
:103E00001A697B681B6822F490421A617B681B6800
:103E10005A697B681B6822F02A025A617B681B681A
:103E2000DA687B681B6842F40052DA607B68002223
:103E30005A647B68202283F841207B68202283F823
:103E400042207B6800225A63002318460837BD468B
:103E500080BD80B584B000AFF860B9601346FB80C8
:103E6000FB6893F84230DBB2202B12D1BB68002BE9
:103E700002D0FB88002B01D101230BE0FB6800225C
:103E80001A63FB881A46B968F86800F0D3FA03464B
:103E900000E0022318461037BD4680BD80B5BAB099
:103EA00000AF78607B681B681B68C7F8E4307B68EC
:103EB0001B68DB68C7F8E0307B681B685B69C7F884
:103EC000DC300023C7F8D8300023C7F8D430D7F847
:103ED000E43003F00F03C7F8D830D7F8D830002B00
:103EE0000FD1D7F8E43003F02003002B09D0D7F826
:103EF000E03003F02003002B03D0786800F0B0FB23
:103F00005BE2D7F8D830002B00F0DE80D7F8DC3049
:103F100003F00103002B06D1D7F8E03003F49073CF
:103F2000002B00F0D180D7F8E43003F00103002B20
:103F30000BD0D7F8E03003F48073002B05D07B68FA
:103F40005B6C43F001027B685A64D7F8E43003F0FD
:103F50000403002B0BD0D7F8DC3003F00103002B57
:103F600005D07B685B6C43F002027B685A64D7F82B
:103F7000E43003F00203002B0BD0D7F8DC3003F061
:103F80000103002B05D07B685B6C43F004027B6867
:103F90005A64D7F8E43003F00803002B11D0D7F8A7
:103FA000E03003F02003002B05D1D7F8DC3003F01C
:103FB0000103002B05D07B685B6C43F008027B6833
:103FC0005A647B685B6C002B00F0F281D7F8E43018
:103FD00003F02003002B08D0D7F8E03003F02003D3
:103FE000002B02D0786800F03BFB7B681B685B69A4
:103FF00003F04003402B0CBF01230023DBB2C7F8C2
:10400000D4307B685B6C03F00803002B03D1D7F836
:10401000D430002B4FD0786800F045FA7B681B68DD
:104020005B6903F04003402B41D17B681B6814336C
:10403000C7F89C30D7F89C3053E8003FC7F8983059
:10404000D7F8983023F04003C7F8D0307B681B685E
:104050001433D7F8D020C7F8A820C7F8A430D7F871
:10406000A410D7F8A82041E80023C7F8A030D7F85B
:10407000A030002BD9D17B68DB6B002B13D07B6881
:10408000DB6B7E4A1A657B68DB6B1846FEF770FABD
:104090000346002B16D07B68DB6B1B6D7A68D26BF6
:1040A000104698470EE0786800F093F90AE07868C7
:1040B00000F08FF906E0786800F08BF97B68002249
:1040C0005A6475E100BF73E17B681B6B012B40F004
:1040D0004F81D7F8E43003F01003002B00F0488143
:1040E000D7F8E03003F01003002B00F041810023EB
:1040F000BB607B681B681B68BB607B681B685B6878
:10410000BB60BB687B681B685B6903F04003402BA6
:1041100040F0B6807B68DB6B1B685B68A7F8BE303D
:10412000B7F8BE30002B00F045817B689B8DB7F857
:10413000BE209A4280F03E817B68B7F8BE20DA85C7
:104140007B68DB6BDB69B3F5807F00F088807B6880
:104150001B680C33C7F88830D7F8883053E8003F25
:10416000C7F88430D7F8843023F48073C7F8B830A8
:104170007B681B680C33D7F8B820C7F89420C7F8C1
:104180009030D7F89010D7F8942041E80023C7F872
:104190008C30D7F88C30002BD9D17B681B68143356
:1041A0007B677B6F53E8003F3B673B6F23F0010366
:1041B000C7F8B4307B681B681433D7F8B420C7F84D
:1041C0008020FB67F96FD7F8802041E80023BB67A8
:1041D000BB6F002BE1D17B681B6814333B663B6EE1
:1041E00053E8003FFB65FB6D23F04003C7F8B03098
:1041F0007B681B681433D7F8B020FA66BB66B96ECB
:10420000FA6E41E800237B667B6E002BE3D17B686E
:10421000202283F842207B6800221A637B681B6897
:104220000C33FB64FB6C53E8003FBB64BB6C23F0B6
:104230001003C7F8AC307B681B680C33D7F8AC2090
:10424000BA657B65796DBA6D41E800233B653B6DCE
:10425000002BE3D17B68DB6B1846FEF719F97B680E
:1042600002225A637B689A8D7B68DB8D9BB2D31ADE
:104270009BB21946786800F0B5F89BE06B450008E2
:104280007B689A8D7B68DB8D9BB2D31AA7F8CE3002
:104290007B68DB8D9BB2002B00F08E80B7F8CE30B0
:1042A000002B00F089807B681B680C33BB63BB6B01
:1042B00053E8003F7B637B6B23F49073C7F8C830EF
:1042C0007B681B680C33D7F8C8207A643B64396C70
:1042D0007A6C41E80023FB63FB6B002BE3D17B6826
:1042E0001B6814337B627B6A53E8003F3B623B6A86
:1042F00023F00103C7F8C4307B681B681433D7F878
:10430000C4203A63FB62F96A3A6B41E80023BB625E
:10431000BB6A002BE3D17B68202283F842207B68B4
:1043200000221A637B681B680C333B613B6953E8CE
:10433000003FFB60FB6823F01003C7F8C0307B68C8
:104340001B680C33D7F8C020FA61BB61B969FA6900
:1043500041E800237B617B69002BE3D17B6802226B
:104360005A63B7F8CE301946786800F03BF823E07E
:10437000D7F8E43003F08003002B09D0D7F8E03001
:1043800003F08003002B03D0786800F002F914E0FA
:10439000D7F8E43003F04003002B0ED0D7F8E0301C
:1043A00003F04003002B08D0786800F041F904E0E6
:1043B00000BF02E000BF00E000BFE837BD4680BD9F
:1043C00080B483B000AF786000BF0C37BD4680BCBE
:1043D000704780B483B000AF786000BF0C37BD4633
:1043E00080BC704780B483B000AF78600B467B80A0
:1043F00000BF0C37BD4680BC704780B485B000AFAD
:1044000078600023FB600023BB607B6893F8413039
:10441000DBB2FB607B6893F84230DBB2BB60FB68C9
:10442000DAB2BB68DBB21343DBB218461437BD46C1
:1044300080BC704780B485B000AFF860B9601346A7
:10444000FB80FB68BA689A62FB68FA889A85FB6809
:10445000FA88DA85FB6800225A64FB68222283F816
:104460004220FB681B69002B07D0FB681B68DA68D9
:10447000FB681B6842F48072DA60FB681B685A694B
:10448000FB681B6842F001025A61FB681B68DA682E
:10449000FB681B6842F02002DA60002318461437DC
:1044A000BD4680BC704780B495B000AF78607B6833
:1044B0001B680C337B637B6B53E8003F3B633B6BB8
:1044C00023F49073FB647B681B680C33FA6C3A64CA
:1044D000FB63F96B3A6C41E80023BB63BB6B002BB9
:1044E000E5D17B681B6814333B623B6A53E8003FAD
:1044F000FB61FB6923F00103BB647B681B68143319
:10450000BA6CFA62BB62B96AFA6A41E800237B625C
:104510007B6A002BE5D17B681B6B012B19D17B6873
:104520001B680C33FB60FB6853E8003FBB60BB6853
:1045300023F010037B647B681B680C337A6CBA61D0
:104540007B617969BA6941E800233B613B69002BD3
:10455000E5D17B68202283F842207B6800221A6321
:1045600000BF5437BD4680BC704780B584B000AFF3
:1045700078607B689B6BFB60FB680022DA85FB68D8
:104580000022DA84F868FFF724FF00BF1037BD4629
:1045900080BD80B485B000AF78607B6893F841300F
:1045A000DBB2212B3ED17B689B68B3F5805F14D1D1
:1045B0007B681B69002B10D17B681B6AFB60FB6862
:1045C0001B881A467B681B68C2F308025A607B6826
:1045D0001B6A9A1C7B681A6208E07B681B6A591C7C
:1045E0007A6811621A787B681B685A607B68DB8C7A
:1045F0009BB2013B9BB27A681946D184002B0FD144
:104600007B681B68DA687B681B6822F08002DA60CE
:104610007B681B68DA687B681B6842F04002DA60DE
:10462000002300E0022318461437BD4680BC7047C3
:1046300080B582B000AF78607B681B68DA687B6801
:104640001B6822F04002DA607B68202283F8412058
:104650007868FFF7B5FE002318460837BD4680BDD1
:1046600080B58CB000AF78607B6893F84230DBB2E5
:10467000222B40F0AE807B689B68B3F5805F17D13A
:104680007B681B69002B13D10023FB627B689B6A4C
:10469000BB627B681B685B689BB2C3F308039AB27A
:1046A000BB6A1A807B689B6A9A1C7B689A6226E0C8
:1046B0007B689B6AFB620023BB627B689B68B3F5E7
:1046C000805F07D07B689B68002B0AD17B681B69E1
:1046D000002B06D17B681B685B68DAB2FB6A1A7034
:1046E00008E07B681B685B68DBB203F07F03DAB22B
:1046F000FB6A1A707B689B6A5A1C7B689A627B68AB
:10470000DB8D9BB2013B9BB27A681946D185002BA9
:104710005DD17B681B68DA687B681B6822F0200229
:10472000DA607B681B68DA687B681B6822F4807239
:10473000DA607B681B685A697B681B6822F001029B
:104740005A617B68202283F842207B6800225A63EA
:104750007B681B6B012B35D17B6800221A637B6859
:104760001B680C337B617B6953E8003F3B613B690D
:1047700023F010037B627B681B680C337A6A3A6211
:10478000FB61F9693A6A41E80023BB61BB69002B10
:10479000E5D17B681B681B6803F01003102B0AD15E
:1047A0000023FB607B681B681B68FB607B681B68E1
:1047B0005B68FB60FB687B689B8D19467868FFF738
:1047C00011FE02E07868FDF755FA002302E00023AD
:1047D00000E0022318463037BD4680BD2DE9B04FBA
:1047E000C0B000AFC7F8F400D7F8F4301B681B69FD
:1047F00023F44050D7F8F430D968D7F8F4301A6869
:1048000040EA01031361D7F8F4309A68D7F8F4301E
:104810001B691A43D7F8F4305B691A43D7F8F430B0
:10482000DB691343C7F8F830D7F8F4301B68DB684E
:1048300023F4164121F00C01D7F8F4301A68D7F8A8
:10484000F8300B43D360D7F8F4301B685B6923F46E
:104850004070D7F8F4309969D7F8F4301A6840EA14
:1048600001035361D7F8F4301A68914B9A4205D08E
:10487000D7F8F4301A688F4B9A4204D1FEF71CFD2A
:10488000C7F8FC0003E0FEF703FDC7F8FC00D7F80B
:10489000F430DB69B3F5004F40F01081D7F8FC30FD
:1048A0000022C7F8E830C7F8EC20D7E93A4522469D
:1048B0002B469118B9655B41FB65D7E91623204665
:1048C0002946044612EB04080C4643EB04094FF05A
:1048D00000024FF000034FEAC90343EA58734FEA5E
:1048E000C80290469946034618EB0303C7F8E03028
:1048F0000B4649EB0303C7F8E430D7F8F4305B68A4
:104900000022C7F8D830C7F8DC20D7E936120B46AA
:10491000DB183B65134642EB03037B65D7E91423A1
:10492000D7E93801FBF728FE02460B46624BA3FB92
:1049300002235B091C01D7F8FC300022C7F8D030F5
:10494000C7F8D420D7E9348942464B469118B96458
:104950005B41FB64D7E91223454612EB050A40464A
:1049600049460D4643EB050B4FF000024FF00003A4
:104970004FEACB0343EA5A734FEACA0292469B4678
:1049800003461AEB0303C7F8C8300B464BEB03038F
:10499000C7F8CC30D7F8F4305B680022C7F8C030D5
:1049A000C7F8C420D7E930120B46DB183B64134626
:1049B00042EB03037B64D7E91023D7E93201FBF70D
:1049C000DBFD02460B4611463B4BA3FB01235B0973
:1049D000642202FB03F3CB1ADB0003F13202364BF5
:1049E000A3FB02235B095B0003F4F8731C44D7F8B4
:1049F000FC300022C7F8B830C7F8BC20D7E92E89B0
:104A000042464B469118B9635B41FB63D7E90E23DD
:104A100041465118396349464B417B634FF00002D0
:104A20004FF00003D7E90CAB5946CB00554643EA9B
:104A300055735146CA0010461946034642469B1814
:104A4000C7F8B0304B460A4642EB0303C7F8B43010
:104A5000D7F8F4305B680022C7F8A830C7F8AC205C
:104A6000D7E92A120B46DB18BB62134642EB03035D
:104A7000FB62D7E90A23D7E92C01FBF77DFD02464B
:104A80000B460D4BA3FB02135B09642101FB03F3EF
:104A9000D31ADB003233084AA2FB03235B0903F07D
:104AA0000702D7F8F4301B6822449A6009E100BF7E
:104AB00000100140001401401F85EB51D7F8FC3075
:104AC0000022C7F8A030C7F8A420D7E928894246B9
:104AD0004B46911839625B417B62D7E90823414616
:104AE0005418CC4643EB0C054FF000024FF0000386
:104AF000EB0043EA5473E20014461D464046494623
:104B00000346E318C7F898300B4645EB0303C7F894
:104B10009C30D7F8F4305B680022C7F89030C7F8B3
:104B200094204FF000024FF00003D7E924452946B6
:104B30008B0020462946044643EA947301468A00C6
:104B4000D7E92601FBF718FD02460B46604BA3FB95
:104B500002235B091C01D7F8FC300022C7F888301B
:104B6000C7F88C20D7E9228942464B469118B96193
:104B70005B41FB61D7E9062341465118396149463B
:104B80004B417B614FF000024FF00003D7E904ABCB
:104B90005946CB00554643EA55735146CA00104664
:104BA0001946034642469B18C7F880304B460A46D2
:104BB00042EB0303C7F88430D7F8F4305B68002277
:104BC000BB67FA674FF000024FF00003D7E91E8978
:104BD00049468B00454643EA957341468A00D7E92A
:104BE0002001FBF7C9FC02460B46394BA3FB02131D
:104BF0005B09642101FB03F3D31A1B013233344AEE
:104C0000A2FB03235B0903F0F0031C44D7F8FC303C
:104C100000223B677A67D7E91C8942464B469118C8
:104C2000B9605B41FB60D7E9022341465118396006
:104C300049464B417B604FF000024FF00003D7E93B
:104C400000AB5946CB00554643EA55735146CA005E
:104C500010461946034642469B18BB664B460A4619
:104C600042EB0303FB66D7F8F4305B6800223B6637
:104C70007A664FF000024FF00003D7E918894946E1
:104C80008B00454643EA957341468A00D7E91A01ED
:104C9000FBF772FC02460B460D4BA3FB02135B09AC
:104CA000642101FB03F3D31A1B013233084AA2FB30
:104CB00003235B0903F00F02D7F8F4301B6822448A
:104CC0009A6000BF07F58077BD46BDE8B08F00BF92
:104CD0001F85EB51014B1868704700BF0C00002086
:104CE00070B50D4E0D4D761BB61006D0002455F84C
:104CF000043B01349847A642F9D1094E094D761B71
:104D000005F0B2FFB61006D0002455F8043B01347C
:104D10009847A642F9D170BDB8B00008B8B00008F5
:104D2000C0B00008B8B00008830730B548D0541EA2
:104D3000002A3FD0CAB2034601E0013C3AD303F84F
:104D4000012B9D07F9D1032C2DD9CDB245EA0525BC
:104D50000F2C45EA054536D9A4F1100222F00F0CBC
:104D600003F1200EE6444FEA121C03F1100242E95F
:104D7000045542E9025510327245F8D10CF1010296
:104D800014F00C0F03EB021204F00F0C13D0ACF173
:104D9000040323F003030433134442F8045B9342F7
:104DA000FBD10CF003042CB1CAB21C4403F8012B54
:104DB0009C42FBD130BD64461346002CF4D1F9E788
:104DC00003461446BFE71A46A446E0E70FB400B511
:104DD000074983B004AB086853F8042B816801933A
:104DE00000F05EF803B05DF804EB04B0704700BF5C
:104DF0000C00002070B5054688B008460C46FBF74D
:104E00003FFD224EAA6B059001214318CDE90661B2
:104E100004A8022104940393AC680190029122B388
:104E2000636E13F0010FB4F90C309AB201D19805FA
:104E300025D5910406D4626E43F4005322F4005247
:104E4000A3816266284601AA214603F005F9636E34
:104E5000002814BF4FF0FF350A25DA0702D4A389D2
:104E60009B0506D5284608B070BD284602F0F6FE20
:104E7000D6E7A06D03F092FA284608B070BDA06D89
:104E800003F08AFAB4F90C309AB2D2E7B4AC000855
:104E9000024B01461868FFF7ADBF00BF0C000020B1
:104EA0002DE9F04FD5B01C46079191460546099073
:104EB00003F06AFA0268179210460E94FBF7E0FCC2
:104EC00016901DB1AB6B002B00F02A82079A536E2F
:104ED000DD0740F13881B2F90C2091B28F0409D47A
:104EE000079B42F400529A8191B21A465B6E23F4FA
:104EF000005353660E0740F1CB80079B1B69002BC4
:104F000000F0C68001F01A030A2B00F0CF800024C5
:104F10002BAB4D46CDE92944CDE91944CDE91B44DD
:104F2000129428939846189400230B940024CDE9FA
:104F300014342B78002B00F09D81AA4604E01AF867
:104F4000013F002B00F0C780252BF8D1BAEB0506F6
:104F500040F0C5809AF80030002B00F08B810023D0
:104F60004FF0FF329AF801608DF883300A930AF10E
:104F7000010A08921F462B244FF020090AF1010A6A
:104F8000A6F120035A2B00F2ED80DFE813F0EB02CC
:104F9000EB00EB00E602EB00EB00EB006A00EB003D
:104FA000EB005C028002EB0067028A02EB008502E4
:104FB0005B005B005B005B005B005B005B005B0019
:104FC0005B00EB00EB00EB00EB00EB00EB00EB0019
:104FD0007A01EB00F801D2017A017A017A01EB0043
:104FE000EB00EB00EB00E102EB00EB002D02EB002D
:104FF000EB00EB000202EB00A402EB00EB008307E6
:10500000EB00EB00EB00EB00EB00EB00EB00EB0048
:105010007A01EB00F801D4017A017A017A01C70222
:10502000D401CD01EB00D402EB006C022F02B502DB
:10503000CD01EB0002027E008007EB00EB00610770
:10504000EB007E00A6F1300300221AF8016B02EBA0
:10505000820203EB4202A6F13003092BF5D90A9232
:105060008EE7DDF824B0584603F08EF943681B93B1
:105070001846FBF705FC1C900646584603F084F9D9
:1050800083681993002E40F0CD869AF8006075E78A
:10509000079D0998294601F0ADFC002841F01C83CA
:1050A000A98901F01A030A2B7FF431AF079AB2F9EC
:1050B0000E30002BFFF62BAF536ED80702D48905B4
:1050C00041F13B810799099823464A4655B0BDE80E
:1050D000F04F01F04FBCBAEB050600F0CB802A9BE5
:1050E00033442A93299B0133072BC8E9005629939F
:1050F00005DC08F108080B9B33440B932AE707995A
:10510000099828AA04F088FB80B90DF1AC08F2E7F1
:105110000799099828AA04F07FFB002800F09B80DB
:105120000D9B1BB10998194602F090FE079A536E29
:10513000D90740F1EA8093895B0601F1D9820B9887
:1051400055B0BDE8F08F079BB3F90C20900591B2E4
:105150003FF5C4AE1D46986D03F01EF9B5F90C205D
:1051600091B2BBE6002E00F0858000228DF8EC6045
:105170008DF883200123CDE90C32069308920F921B
:10518000139210923BAD17F0020302D00699023140
:10519000069117F0840B07D10A990698A1EB000934
:1051A000B9F1000F00F370832A9C8AB1299A0DF19E
:1051B000830101320134C8F80010072A4FF00101C1
:1051C0002A942992C8F8041000F3B68308F108085D
:1051D00083B1299B21AA01330234C8F80020072B90
:1051E0004FF002022A942993C8F8042000F3B283F6
:1051F00008F10808BBF1800F00F06982089B0C9A47
:10520000A3EB020BBBF1000F00F3AA82FB0500F138
:1052100000820C9BC8F804301C44299BC8F800503D
:105220000133072B2A94299300F3228308F10808FD
:10523000780705D50A9B069A9D1A002D00F39683E0
:10524000DDE90A2306998A42ACBF9B185B180B93D1
:10525000002C7FF45DAF002329930D9B1BB10D99AA
:10526000099802F0F3FD0DF1AC0855462B78002BA0
:105270007FF463AE2A9B002B41F0D3810023299356
:1052800054E70E9B073323F00702F2E80234CDE91E
:105290001434DDE9143424F000440E929946184683
:1052A0002146B54B4FF0FF32FBF7DEFE002840F001
:1052B000EF84B14B484621464FF0FF32FBF7B6FE74
:1052C000002840F0E584DDE9140100220023FBF70B
:1052D000A3FE002840F067879DF88320A74DA84BC8
:1052E00027F080070321472EC8BF1D4600230D93DA
:1052F00006910C9108930F9313931093002A3FF497
:1053000042AF069B013306933DE7079B9B899A05B5
:105310003FF512AF079CA06D03F040F8A3890BE79F
:10532000099802F09BFCD1E59AF8006047F020074D
:1053300024E647F01007BA060E9B40F13B84073382
:1053400023F007031A465B6852F8084B0E92994601
:10535000002BC0F24C84089B013300F0D88254EA41
:10536000090327F0800B40F0D382089B002B40F00C
:10537000D4825F46002308930C9354AD1DE10E9B2D
:10538000002253F8041B8DF883208DF8EC100E9347
:10539000F0E60E9C089B54F8045B4FF000098DF872
:1053A0008390002D00F093855A1C00F051861A4618
:1053B00049462846FBF7D4FA0D90002801F00E81EB
:1053C0000D9BCDF820905B1B0C930E9423EAE373A6
:1053D0009DF883200693CDF83490CDF83C90CDF81D
:1053E0004C90CDF8409089E747F0100717F020095E
:1053F00000F0D2830E9B073323F00703D3F8049009
:1054000053F8084B0E9327F4806B002300228DF88D
:105410008320089A511C00F0B88054EA09012BF04F
:10542000800740F0B180002A40F0F685002BA1D122
:105430001BF001030C9300F0148430238DF84F31DE
:105440000DF24F15B9E00E9B53F8042B0A92002A77
:1054500080F2DA830A9A0E9352420A929AF8006016
:1054600047F004078AE5BD0600F1D184FC0600F18F
:10547000D885780600F1A586B90540F1D2850E9B46
:105480000B9953F8042B0E9311705546EEE69AF8DB
:1054900000608DF8834071E59AF8006047F080075E
:1054A0006CE5524612F8016B2A2E01F03F82A6F1FC
:1054B0003003092B924698BF002201F2BC801AF8F3
:1054C000016B02EB820203EB4202A6F13003092BCF
:1054D000F5D9089254E547F0100B1BF0200900F0B5
:1054E00076830E9B073323F00703D3F8049053F819
:1054F000084B0E93012389E70E9B53F8044B0E9340
:10550000302378268DF884301E4B189347F0020B19
:105510008DF885604FF00009022377E79AF8006064
:10552000682E03BF9AF8016047F400770AF1010A78
:1055300047F0400722E59AF800606C2E03BF9AF806
:10554000016047F020070AF1010A47F0100715E54E
:105550009AF8006047F0080710E59AF8006047F0F5
:1055600001070BE59DF88330002B7FF48EAD9AF890
:1055700000608DF8839001E5FFFFEF7FB8AC000875
:10558000BCAC0008C8AC0008BB46012B00F0C081D1
:10559000022B54AD20D1189A04F00F032409D35CD8
:1055A00005F8013D44EA09744FEA191954EA090360
:1055B000F2D154AB5B1B5F460C9308990C989DF895
:1055C000832081424FF00003B8BF01460D9306913E
:1055D0000F931393109391E604F00703E40844EA51
:1055E00049744FEAD909303354EA09012A4605F8CB
:1055F000013DF1D11BF0010FDBD0302BD9D030238E
:10560000023A05F8013C54AB9B1A5F460C931546D1
:10561000D3E7652E40F3E680DDE914010022002384
:10562000FBF7F0FC002800F0DC81299BBF4AC8F89A
:105630000020013301340122072B2A942993C8F852
:10564000042000F3CC8408F10808229B129A9342AC
:1056500080F2D682169B179A1C44C8E90023299B26
:105660002A940133072B299300F3248408F10808B6
:10567000129B5D1E002D7FF7DBAD102D299BDFF8FF
:10568000B09240F3BD8449462246B946DDF824B0C5
:10569000079C10260F4605E008F10808103D102D64
:1056A00040F3AA8401331032072BC8E90076CDE914
:1056B0002932F1DD28AA2146584604F0ADF8002829
:1056C0007FF42EADDDE929320DF1AC08E6E70A9B47
:1056D000069AA3EB020BBBF1000F7FF78FADBBF176
:1056E000100F299ADFF848922CDD1D9621464E4670
:1056F000079CDDF82490102306E0ABF1100BBBF102
:10570000100F08F108081ADD01321031072AC8E924
:105710000063CDE92921F0DD28AA214648460DF194
:10572000AC0804F079F800287FF4FAACABF1100B68
:10573000BBF1100FDDE929214FF01003E4DCB14685
:105740001D9E0C4601325C44072ACDE92924C8F885
:105750000090C8F804B000F3A08308F108084DE5F4
:10576000BBF1100F299ADFF8C8912DDD4146204684
:10577000A8464C46079DDDF82490102306E0ABF1C7
:10578000100BBBF1100F01F1080119DD01321030CF
:10579000072AC1E90043CDE92920F0DD28AA2946DE
:1057A000484604F039F800287FF4BAACABF1100B8E
:1057B000BBF1100FDDE929202BA94FF01003E5DC28
:1057C0004546A1468846044601325C44072ACDE995
:1057D0002924C8F80090C8F804B000F3D08108F17B
:1057E000080813E5129B012B40F38081299EC8F81D
:1057F0000050013601340123072E2A942996C8F857
:10580000043000F37C8308F10808169B179A0136D0
:105810001C44072EC8E90023CDE9296400F37C83EA
:1058200008F10808DDE9140100220023FBF7EAFB78
:10583000002840F07881129B0136013B01351C4461
:10584000072EC8F800502996C8F804302A9400F3AF
:105850005D8108F108081A9BC8F8043001361C4421
:10586000072E24ABCDE92964C8F800307FF7DEAC01
:105870000799099828AA03F0CFFF00287FF450ACBD
:105880002A9C0DF1AC08D3E4B9F1100FDDE9292110
:105890002BDDCDE91D3B1F96DDF824B04E461024CC
:1058A000A946079D04E0103E102E08F1080817DDF8
:1058B0000132204B1031072AC8E90034CDE92921F3
:1058C000F1DD28AA294658460DF1AC0803F0A4FFE3
:1058D00000287FF425AC103E102EDDE92921E7DCFD
:1058E000DDE91D3B4D46B1461F9EC8F804900132CC
:1058F00009EB0104072A0F49C8F80010CDE9292453
:1059000000F351839DF8832008F108084DE4BB465D
:105910000A2C79F1000380F00C83303401238DF8D8
:105920004F415F460C930DF24F1546E6F8AC000868
:105930000CAD0008FCAC0008079909981D9328AA33
:1059400003F06AFF00287FF4EBAB2A9C1D9B0DF14E
:10595000AC083DE40799099828AA03F05DFF0028E8
:105960007FF4DEAB2A9C0DF1AC0843E4102D299B9B
:1059700021DD099FDDF81C90102604E0103D102D5C
:1059800008F1080817DD0133BB4A1034072BC8E9BA
:105990000026CDE92934F1DD28AA494638460DF123
:1059A000AC0803F039FF00287FF4BAAB103D102D8E
:1059B000DDE92934E7DC0133AF4AC8F804502C4450
:1059C000072BCDE92934C8F800207FF739AC0799B7
:1059D000099828AA03F020FF00287FF4A1AB2A9C95
:1059E0002EE42299002940F31481DDF84090129BA7
:1059F0009945A8BF9946B9F1000F0BDD299B0133EA
:105A00004C44072BC8E900592A94299300F39A853E
:105A100008F10808109EB9F1000FA8BFA6EB09060F
:105A2000002E00F34683DDF840B07905AB4400F169
:105A3000CE84229B129A934202DBFA0740F1B8838C
:105A4000169A17991444C8E90012299A2A94013227
:105A5000072A299200F3838508F10808129AAE18E4
:105A6000A6EB0B06D51AAE42A8BF2E46002E0DDDC2
:105A7000299BC8F800B001333444072BC8F80460F0
:105A80002A94299300F3F18508F10808002EA8BF95
:105A9000AD1B002D7FF7CCAB102D299BDFF8DC91DF
:105AA00040F3AE8249462246B946DDF824B0079C51
:105AB00010260F4605E008F10808103D102D40F3B0
:105AC0009B8201331032072BC8E90076CDE92932D9
:105AD000F1DD28AA2146584603F09EFE00287FF4F7
:105AE0001FABDDE929320DF1AC08E6E7FE073FF513
:105AF0007DAE299EC8F80050013601340123072EDF
:105B00002A942996C8F804307FF7A3AE079909981C
