:020000040800F2
:10000000000002208D0B0008310B0008370B0008A0
:100010003D0B0008430B0008490B000800000000DE
:100020000000000000000000000000004F0B00086E
:100030005B0B000800000000670B0008730B000852
:10004000DD0B0008DD0B0008DD0B0008DD0B0008F0
:10005000DD0B0008DD0B000845050008DD0B00087E
:10006000DD0B0008DD0B0008DD0B0008DD0B0008D0
:10007000DD0B0008DD0B0008DD0B0008DD0B0008C0
:10008000DD0B0008DD0B0008DD0B0008DD0B0008B0
:10009000DD0B0008DD0B0008DD0B0008DD0B0008A0
:1000A000DD0B0008DD0B0008DD0B0008DD0B000890
:1000B000DD0B0008DD0B0008DD0B0008DD0B000880
:1000C000DD0B0008DD0B0008DD0B0008DD0B000870
:1000D000DD0B0008E9090008DD0B0008DD0B000856
:1000E000DD0B0008DD0B0008DD0B0008DD0B000850
:1000F000DD0B0008DD0B0008DD0B0008DD0B000840
:10010000DD0B0008DD0B0008DD0B0008DD0B00082F
:10011000DD0B0008DD0B0008DD0B0008DD0B00081F
:10012000DD0B0008DD0B0008DD0B0008DD0B00080F
:10013000DD0B0008DD0B0008DD0B0008DD0B0008FF
:10014000DD0B0008DD0B0008DD0B0008DD0B0008EF
:10015000DD0B0008DD0B0008DD0B0008DD0B0008DF
:10016000DD0B0008DD0B0008DD0B0008DD0B0008CF
:10017000DD0B0008DD0B0008DD0B000800000000AF
:08018000DD0B0008DD0B000897
:1001880010B5054C237833B9044B13B10448AFF3C9
:1001980000800123237010BD3C04002000000000F3
:1001A800C42D000808B5034B1BB103490348AFF33E
:1001B800008008BD0000000040040020C42D000895
:1001C80053B94AB9002908BF00281CBF4FF0FF31B6
:1001D8004FF0FF3000F074B9ADF1080C6DE904CEB2
:1001E80000F006F8DDF804E0DDE9022304B070470A
:1001F8002DE9F047089E0D4604468846002B4DD150
:100208008A42944668D9B2FA82F252B101FA02F3EC
:10021800C2F1200120FA01F10CFA02FC41EA0308BC
:1002280094404FEA1C45210CB8FBF5FE1FFA8CF7E9
:1002380005FB1E8341EA03430EFB07F199420BD9E4
:100248001CEB03030EF1FF3080F01E81994240F24F
:100258001B81AEF1020E63445B1AA4B2B3FBF5F046
:1002680005FB103344EA034400FB07F7A7420AD909
:100278001CEB040400F1FF3380F00881A74240F230
:10028800058164440238E41B40EA0E4000211EB197
:10029800D4400023C6E90043BDE8F0878B4208D963
:1002A800002E00F0EE800021C6E900050846BDE8F2
:1002B800F087B3FA83F100294AD1AB4202D38242D4
:1002C80000F2F980841A65EB030301209846002E9A
:1002D800E2D0C6E90048DFE702B9FFDEB2FA82F2EF
:1002E800002A40F09180A1EB0C054FEA1C471FFA49
:1002F8008CFE0121B5FBF7F307FB1350250C45EAEB
:1003080000450EFB03F0A84208D91CEB050503F1D4
:10031800FF3802D2A84200F2CB8043462D1AA4B27D
:10032800B5FBF7F007FB105544EA05440EFB00FE49
:10033800A64508D91CEB040400F1FF3502D2A645F6
:1003480000F2BB802846A4EB0E0440EA03409EE777
:10035800C1F120078B4022FA07FC4CEA030C20FA73
:1003680007F405FA01F31C43FD404FEA1C4900FA63
:1003780001F3B5FBF9F8200C1FFA8CFE09FB1855A0
:1003880040EA054508FB0EF0A84202FA01F20BD933
:100398001CEB050508F1FF3A80F08880A84240F27E
:1003A8008580A8F1020865442D1AA4B2B5FBF9F0BE
:1003B80009FB105544EA054500FB0EFEAE4508D979
:1003C8001CEB050500F1FF346CD2AE456AD9023842
:1003D800654440EA0840A0FB0294A5EB0E05A5423F
:1003E800C846A64656D353D05EB1B3EB080265EBB8
:1003F8000E0505FA07F722FA01F3CD401F43C6E9B7
:1004080000750021BDE8F087C2F1200320FA03F14E
:100418000CFA02FC25FA03F395400D434FEA1C47FA
:100428001FFA8CFEB3FBF7F107FB11302B0C43EAE4
:10043800004301FB0EF0984204FA02F408D91CEBC1
:10044800030301F1FF382FD298422DD902396344B2
:100458001B1AADB2B3FBF7F007FB103345EA0345AF
:1004680000FB0EF3AB4208D91CEB050500F1FF3881
:1004780016D2AB4214D902386544ED1A40EA01415C
:1004880038E73146304607E78646E5E61846FAE695
:100498004B45A9D2B9EB020864EB0C0E0138A3E76F
:1004A8004046EAE7204694E74146D1E7D0467BE755
:1004B800023B654432E7084609E76444023842E7EC
:1004C800704700BF80B588B000AF0023BB60194BF0
:1004D8001B6B184A43F001031363164B1B6B03F0A5
:1004E8000103BB60BB6800237B60124B1B6B114A86
:1004F80043F0100313630F4B1B6B03F010037B6077
:100508007B680123FB604FF488133B6102237B6106
:1005180007F10C031946084800F094FD0022022157
:10052800062000F0AAFC062000F0C3FC00BF20371C
:10053800BD4680BD003802400000024080B500AFD3
:10054800012000F061FF00BF80BD000080B582B0CF
:1005580000AF0346FB80142000F0E2F8FB88012B73
:100568000BD10121074800F007FF0346012B04D1F6
:100578004FF40071044800F02EFF00BF0837BD4655
:1005880080BD00BF000002400014024080B588B062
:1005980000AF0023BB601D4B1B6B1C4A43F00103DB
:1005A80013631A4B1B6B03F00103BB60BB6800238A
:1005B8007B60164B1B6B154A43F010031363134BF8
:1005C8001B6B03F010037B607B680123FB60002337
:1005D8003B6102237B610323BB6107F10C031946CE
:1005E8000B4800F02FFD1C23FB6000233B61012317
:1005F8007B610323BB6107F10C031946054800F032
:1006080021FD00BF2037BD4680BD00BF0038024035
:10061800000002400010024080B586B000AF002301
:100628003B60154B1B6B144A43F020031363124BBA
:100638001B6B03F020033B603B684FF4C0637B6097
:100648000123BB600123FB6003233B613B1D19466B
:100658000A4800F0F7FC01224FF40071074800F047
:10066800A2FE00224FF48061044800F09CFE00BF07
:100678001837BD4680BD00BF003802400014024054
:1006880080B582B000AF0346FB71042000F02CFC5B
:10069800FB79034A136000BF0837BD4680BD00BF21
:1006A8005804002080B489B000AF78600023BB6193
:1006B800194B5B687B61194B1A687B6802FB03F373
:1006C8003B61154B9B68FB61134B9B68FB60FA68A9
:1006D800FB699A42F8D0FA68FB699A4206D2FA692D
:1006E800FB68D31ABA691344BB6107E07A69FB68EF
:1006F800D21AFB691344BA691344BB61FB68FB61F6
:10070800BA693B699A4200D2DEE700BF00BF2437CE
:10071800BD4680BC704700BF10E000E058040020D0
:1007280080B584B000AF0346FB800023FB6006E081
:100738004FF47A70FFF7B6FFFB680133FB60FB8864
:10074800FA689A42F4D300BF00BF1037BD4680BD97
:1007580080B598B000AFF860B9607A603B6000235C
:1007680087F85F3000237B61314B1B6C304A43F0C4
:10077800805313642E4B1B6C03F080537B617B69A1
:1007880000233B612B4B1B682A4A43F480431360C8
:10079800284B1B6803F480433B613B690123FB62E0
:1007A8004FF480333B634FF48003BB6402237B64C4
:1007B800BB68FB64FB683B657B687B653B68BB6526
:1007C80007F12C03184600F037FE034687F85F3020
:1007D80097F85F30002B00D0FEE70F23BB610223A0
:1007E800FB6100233B624FF4A0537B624FF48053BC
:1007F800BB6207F118030521184601F095F8034676
:1008080087F85F3097F85F30002B00D0FEE700F0E4
:1008180051FA034641F20102934205D1064B1B6887
:10082800054A43F48073136000BF6037BD4680BD3E
:100838000038024000700040003C024080B582B0A1
:1008480000AF7860104B114A1A600F4A7B685360FA
:100858000D4B00229A600C4B0022DA600A4B0022F2
:100868001A61094B00229A61074B0C225A6106480B
:1008780001F07EFA01220649034801F0C9FA00BFD7
:100888000837BD4680BD00BF2C0500200010014080
:100898002805002080B58AB000AF78607B681B68A7
:1008A800224A93423DD100233B61214B1B6B204AD6
:1008B80043F0010313631E4B1B6B03F001033B6101
:1008C8003B690023FB601A4B5B6C194A43F0100329
:1008D8005364174B5B6C03F01003FB60FB684FF429
:1008E80000737B610223BB610123FB6102233B622E
:1008F80007237B6207F1140319460E4800F0A2FB98
:100908004FF480637B6107F114031946094800F02E
:1009180099FB252000F0CDFA03220321252000F0C1
:10092800ACFA00BF2837BD4680BD00BF00100140AB
:10093800003802400000024080B483B000AF786005
:100948007B681B68224A93423DD1224B1B881BB20D
:10095800002B38DB1F4B1B8803F48043002B11D07E
:100968001D4B1B780A2B03D01A4B00221A802AE051
:10097800184B1B886FEA43436FEA53439AB2154BEF
:100988001A8020E0144B1B780D2B07D1114B1B88C4
:1009980043F480439AB20F4B1A8014E00D4B1B8826
:1009A800C3F30D030C4A11780C4AD154094B1B8828
:1009B80001339AB2074B1A80064B1B88C72B02D902
:1009C800044B00221A8000BF0C37BD4680BC70471C
:1009D8000010014024050020280500205C040020A8
:1009E80080B582B000AF00237B60114801F036FA71
:1009F80000237B6002E07B6801337B600C4801F0D8
:100A0800DCFC0346202BF6D100237B6002E07B68E8
:100A180001337B6001220749054801F0F9F90346D3
:100A2800002BF4D100BF00BF0837BD4680BD00BF12
:100A38002C0500202805002080B485B000AF0023D5
:100A4800FB60164B1B6B154A43F004031363134BEF
:100A58001B6B03F00403FB60FB680023BB600F4BB8
:100A68001B6B0E4A43F0800313630C4B1B6B03F0A4
:100A78008003BB60BB6800237B60084B1B6B074A85
:100A880043F001031363054B1B6B03F001037B6009
:100A98007B6800BF1437BD4680BC704700380240F1
:100AA80080B500AF00F098F80723022208214FF420
:100AB800A870FFF74DFEFFF7BFFFA820FFF7E0FD86
:100AC8004FF4E130FFF7BAFEFFF7A6FDFFF75EFD32
:100AD800FFF7F8FC0A20FFF723FEFBE780B483B09A
:100AE80000AF00237B600F4B5B6C0E4A43F48043DE
:100AF80053640C4B5B6C03F480437B607B6800237E
:100B08003B60084B1B6C074A43F080531364054B4A
:100B18001B6C03F080533B603B6800BF0C37BD463D
:100B280080BC70470038024080B400AFFEE780B454
:100B380000AFFEE780B400AFFEE780B400AFFEE789
:100B480080B400AFFEE780B400AF00BFBD4680BCF4
:100B5800704780B400AF00BFBD4680BC704780B40A
:100B680000AF00BFBD4680BC704780B500AF00F045
:100B780085F800BF80BD80B400AF00BFBD4680BC13
:100B880070470000DFF834D0FFF7F5FF0C480D4937
:100B98000D4A002302E0D458C4500433C4188C42D0
:100BA800F9D30A4A0A4C002301E013600432A24236
:100BB800FBD302F06FF8FFF773FF704700000220C5
:100BC800000000203C0400200C2E00083C040020FB
:100BD8007C050020FEE7000080B500AF0E4B1B68C7
:100BE8000D4A43F4007313600B4B1B680A4A43F425
:100BF80080631360084B1B68074A43F480731360D3
:100C0800032000F02FF90F2000F008F8FFF766FF27
:100C18000023184680BD00BF003C024080B582B06A
:100C280000AF7860124B1A68124B1B7819464FF4C4
:100C38007A73B3FBF1F3B2FBF3F3184600F047F90C
:100C48000346002B01D001230EE07B680F2B0AD846
:100C5800002279684FF0FF3000F00FF9064A7B68F0
:100C68001360002300E0012318460837BD4680BD05
:100C780000000020080000200400002080B400AF1D
:100C8800054B1B781A46054B1B681344034A13602F
:100C980000BFBD4680BC70470800002074050020D6
:100CA80080B400AF024B1B681846BD4680BC704735
:100CB8007405002080B400AF034B1B681B0C18465A
:100CC800BD4680BC704700BF002004E080B485B0FA
:100CD80000AF78607B6803F00703FB600C4BDB68B0
:100CE800BB60BA684FF6FF031340BB60FB681A028B
:100CF800BB68134343F0BF6343F40033BB60044A4B
:100D0800BB68D36000BF1437BD4680BC704700BFC6
:100D180000ED00E080B400AF044BDB681B0A03F071
:100D280007031846BD4680BC704700BF00ED00E0D1
:100D380080B483B000AF0346FB7197F90730002BEE
:100D48000BDBFB7903F01F02064997F907305B09B3
:100D5800012000FA02F241F8232000BF0C37BD46FB
:100D680080BC704700E100E080B483B000AF034668
:100D78003960FB7197F90730002B0ADB3B68DAB260
:100D88000C4997F907301201D2B20B4483F80023BB
:100D98000AE03B68DAB20849FB7903F00F03043B29
:100DA8001201D2B20B441A7600BF0C37BD4680BC84
:100DB800704700BF00E100E000ED00E080B489B0BA
:100DC80000AFF860B9607A60FB6803F00703FB6165
:100DD800FB69C3F10703042B28BF0423BB61FB692C
:100DE8000433062B02D9FB69033B00E000237B6137
:100DF8004FF0FF32BB6902FA03F3DA43BB681A40CB
:100E08007B699A404FF0FF317B6901FA03F3D943BC
:100E18007B680B40134318462437BD4680BC704797
:100E280080B582B000AF78607B68013BB3F1807F0A
:100E380001D301230FE00A4A7B68013B53600F216D
:100E48004FF0FF30FFF790FF054B00229A60044BEC
:100E580007221A60002318460837BD4680BD00BF28
:100E680010E000E080B582B000AF78607868FFF7E6
:100E78002DFF00BF0837BD4680BD80B586B000AFE6
:100E88000346B9607A60FB7300237B61FFF742FF7A
:100E980078617A68B9687869FFF790FF024697F930
:100EA8000F3011461846FFF75FFF00BF1837BD46E1
:100EB80080BD80B582B000AF0346FB7197F907305B
:100EC8001846FFF735FF00BF0837BD4680BD80B51F
:100ED80082B000AF78607868FFF7A2FF0346184633
:100EE8000837BD4680BD000080B483B000AF78608D
:100EF8007B68042B06D1094B1B68084A43F004039E
:100F0800136005E0054B1B68044A23F004031360D3
:100F180000BF0C37BD4680BC704700BF10E000E042
:100F280080B584B000AF78607B689B6DFB60FFF78D
:100F3800B7FEB8607B6893F83530DBB2022B08D077
:100F48007B6880225A657B68002283F8342001235D
:100F580052E07B681B681A687B681B6822F01602DF
:100F68001A607B681B685A697B681B6822F08002DC
:100F78005A617B681B6C002B03D17B689B6C002B30
:100F880007D07B681B681A687B681B6822F0080218
:100F98001A607B681B681A687B681B6822F001026C
:100FA8001A6013E0FFF77CFE0246BB68D31A052BD4
:100FB8000CD97B6820225A657B68032283F8352088
:100FC8007B68002283F83420032315E07B681B68C4
:100FD8001B6803F00103002BE4D17B68DB6D3F2223
:100FE8009A40FB689A607B68012283F835207B6809
:100FF800002283F83420002318461037BD4680BDF0
:1010080080B483B000AF78607B6893F83530DBB28A
:10101800022B04D07B6880225A6501230CE07B6890
:10102800052283F835207B681B681A687B681B6873
:1010380022F001021A60002318460C37BD4680BC16
:101048007047000080B489B000AF78603960002331
:101058007B6100233B610023BB610023FB616BE1E3
:101068000122FB6902FA03F37B613B681B687A691A
:1010780013403B613A697B699A4240F05A813B6868
:101088005B6803F00303012B05D03B685B6803F042
:101098000303022B30D17B689B68BB61FB695B0053
:1010A800032202FA03F3DB43BA691340BB613B68CE
:1010B800DA68FB695B0002FA03F3BA691343BB61A0
:1010C8007B68BA699A607B685B68BB610122FB69CF
:1010D80002FA03F3DB43BA691340BB613B685B6800
:1010E8001B0903F00102FB6902FA03F3BA6913430F
:1010F800BB617B68BA695A603B685B6803F00303AD
:10110800032B17D07B68DB68BB61FB695B0003229C
:1011180002FA03F3DB43BA691340BB613B689A6880
:10112800FB695B0002FA03F3BA691343BB617B688E
:10113800BA69DA603B685B6803F00303022B23D1CA
:10114800FB69DA087B68083253F82230BB61FB6917
:1011580003F007039B000F2202FA03F3DB43BA698B
:101168001340BB613B681A69FB6903F007039B00E6
:1011780002FA03F3BA691343BB61FB69DA087B68B7
:101188000832B96943F822107B681B68BB61FB69A8
:101198005B00032202FA03F3DB43BA691340BB6125
:1011A8003B685B6803F00302FB695B0002FA03F328
:1011B800BA691343BB617B68BA691A603B685B68AC
:1011C80003F44033002B00F0B4800023FB605F4B36
:1011D8005B6C5E4A43F4804353645C4B5B6C03F482
:1011E8008043FB60FB685A4AFB699B08023352F84C
:1011F8002330BB61FB6903F003039B000F2202FA53
:1012080003F3DB43BA691340BB617B68514A9342DD
:101218002BD07B68504A934225D07B684F4A934233
:101228001FD07B684E4A934219D07B684D4A93423F
:1012380013D07B684C4A93420DD07B684B4A93424B
:1012480007D07B684A4A934201D107230EE008235E
:101258000CE006230AE0052308E0042306E0032344
:1012680004E0022302E0012300E00023FA6902F00F
:10127800030292009340BA691343BB613449FB6986
:101288009B080233BA6941F823203A4B9B68BB613B
:101298003B69DB43BA691340BB613B685B6803F495
:1012A8008013002B03D0BA693B691343BB61314AF1
:1012B800BB6993602F4BDB68BB613B69DB43BA6951
:1012C8001340BB613B685B6803F40013002B03D039
:1012D800BA693B691343BB61264ABB69D360254B96
:1012E8005B68BB613B69DB43BA691340BB613B6820
:1012F8005B6803F40033002B03D0BA693B691343DE
:10130800BB611C4ABB6953601A4B1B68BB613B69D4
:10131800DB43BA691340BB613B685B6803F4803305
:10132800002B03D0BA693B691343BB61114ABB69FF
:101338001360FB690133FB61FB690F2B7FF690AEED
:1013480000BF00BF2437BD4680BC7047003802404C
:10135800003801400000024000040240000802403A
:10136800000C024000100240001402400018024025
:10137800001C0240003C014080B485B000AF78609A
:101388000B467B807B681A697B881340002B02D050
:101398000123FB7301E00023FB73FB7B1846143722
:1013A800BD4680BC704780B483B000AF78600B4600
:1013B8007B8013467B707B78002B03D07A887B6810
:1013C8009A6103E07B881A047B689A6100BF0C3736
:1013D800BD4680BC704780B485B000AF78600B46CE
:1013E8007B807B685B69FB607A88FB6813401A0422
:1013F800FB68D9437B880B401A437B689A6100BF1E
:101408001437BD4680BC704780B582B000AF034634
:10141800FB80084B5A69FB881340002B06D0054A0D
:10142800FB885361FB881846FFF790F800BF083720
:10143800BD4680BD003C014080B586B000AF7860F5
:101448007B68002B01D1012367E27B681B6803F0EE
:101458000103002B75D0884B9B6803F00C03042B09
:101468000CD0854B9B6803F00C03082B12D1824BE0
:101478005B6803F48003B3F5800F0BD17E4B1B68C8
:1014880003F40033002B5BD07B685B68002B57D1DB
:10149800012342E27B685B68B3F5803F06D1764B57
:1014A8001B68754A43F4803313601DE07B685B68F2
:1014B800B3F5A02F0CD1704B1B686F4A43F48023FF
:1014C80013606D4B1B686C4A43F4803313600BE068
:1014D800694B1B68684A23F480331360664B1B68AA
:1014E800654A23F4802313607B685B68002B13D064
:1014F800FFF7D6FB386108E0FFF7D2FB02463B69ED
:10150800D31A642B01D9032307E25B4B1B6803F44E
:101518000033002BF0D014E0FFF7C2FB386108E07D
:10152800FFF7BEFB02463B69D31A642B01D903239C
:10153800F3E1514B1B6803F40033002BF0D100E0BA
:1015480000BF7B681B6803F00203002B63D04A4B83
:101558009B6803F00C03002B0BD0474B9B6803F0F0
:101568000C03082B1CD1444B5B6803F48003002B4D
:1015780016D1414B1B6803F00203002B05D07B6892
:10158800DB68012B01D00123C7E13B4B1B6823F02B
:10159800F8027B681B69DB00374913430B603AE0AC
:1015A8007B68DB68002B20D0344B01221A60FFF7E0
:1015B80077FB386108E0FFF773FB02463B69D31AF3
:1015C800022B01D90323A8E12B4B1B6803F002036C
:1015D800002BF0D0284B1B6823F0F8027B681B69AE
:1015E800DB00254913430B6015E0244B00221A60E9
:1015F800FFF756FB386108E0FFF752FB02463B69EC
:10160800D31A022B01D9032387E11B4B1B6803F074
:101618000203002BF0D17B681B6803F00803002B42
:1016280036D07B685B69002B16D0154B01221A60F7
:10163800FFF736FB386108E0FFF732FB02463B69EB
:10164800D31A022B01D9032367E10B4B5B6F03F01D
:101658000203002BF0D01BE0094B00221A60FFF7B1
:101668001FFB38610EE0FFF71BFB02463B69D31AEC
:10167800022B07D9032350E10038024000004742FB
:10168800800E4742884B5B6F03F00203002BEAD1C0
:101698007B681B6803F00403002B00F0978000238D
:1016A800FB75814B1B6C03F08053002B0FD100237B
:1016B800BB607D4B1B6C7C4A43F0805313647A4BB0
:1016C8001B6C03F08053BB60BB680123FB75774B31
:1016D8001B6803F48073002B18D1744B1B68734A82
:1016E80043F480731360FFF7DBFA386108E0FFF713
:1016F800D7FA02463B69D31A022B01D903230CE11E
:101708006A4B1B6803F48073002BF0D07B689B68DE
:10171800012B06D1644B1B6F634A43F00103136727
:101728001CE07B689B68052B0CD15F4B1B6F5E4AE6
:1017380043F0040313675C4B1B6F5B4A43F00103E0
:1017480013670BE0584B1B6F574A23F001031367CD
:10175800554B1B6F544A23F0040313677B689B683F
:10176800002B15D0FFF79CFA38610AE0FFF798FACA
:1017780002463B69D31A41F28832934201D90323C6
:10178800CBE0494B1B6F03F00203002BEED014E0B3
:10179800FFF786FA38610AE0FFF782FA02463B69EA
:1017A800D31A41F28832934201D90323B5E03E4B64
:1017B8001B6F03F00203002BEED1FB7D012B05D13B
:1017C800394B1B6C384A23F0805313647B689B6940
:1017D800002B00F0A180344B9B6803F00C03082B0E
:1017E8005CD07B689B69022B41D1314B00221A6087
:1017F800FFF756FA386108E0FFF752FA02463B69EC
:10180800D31A022B01D9032387E0274B1B6803F067
:101818000073002BF0D17B68DA697B681B6A1A4376
:101828007B685B6A9B011A437B689B6A5B08013B88
:101838001B041A437B68DB6A1B061B4913434B6076
:101848001B4B01221A60FFF72BFA386108E0FFF7FB
:1018580027FA02463B69D31A022B01D903235CE01D
:10186800114B1B6803F00073002BF0D054E0104BB1
:1018780000221A60FFF714FA386108E0FFF710FA3F
:1018880002463B69D31A022B01D9032345E0064BD4
:101898001B6803F00073002BF0D13DE07B689B6967
:1018A800012B07D1012338E00038024000700040C6
:1018B800600047421B4B5B68FB607B689B69012BA0
:1018C80028D0FB6803F480027B68DB699A4221D147
:1018D800FB6803F03F027B681B6A9A421AD1FA68D8
:1018E80047F6C07313407A68526A9201934211D145
:1018F800FB6803F440327B689B6A5B08013B1B046E
:101908009A4207D1FB6803F070627B68DB6A1B06AA
:101918009A4201D0012300E0002318461837BD463B
:1019280080BD00BF0038024080B584B000AF786049
:1019380039607B68002B01D10123CCE0684B1B6820
:1019480003F007033A689A420CD9654B3A68D2B259
:101958001A70634B1B6803F007033A689A4201D078
:101968000123B8E07B681B6803F00203002B20D03A
:101978007B681B6803F00403002B05D0594B9B6858
:10198800584A43F4E05393607B681B6803F00803EC
:10199800002B05D0534B9B68524A43F46043936035
:1019A800504B9B6823F0F0027B689B684D491343BA
:1019B8008B607B681B6803F00103002B44D07B68B5
:1019C8005B68012B07D1474B1B6803F40033002BDE
:1019D80019D101237FE07B685B68022B03D07B6809
:1019E8005B68032B07D13F4B1B6803F00073002B88
:1019F80009D101236FE03B4B1B6803F00203002B66
:101A080001D1012367E0374B9B6823F003027B6811
:101A18005B68344913438B60FFF742F9F8600AE0CA
:101A2800FFF73EF90246FB68D31A41F28832934227
:101A380001D903234FE02B4B9B6803F00C027B6812
:101A48005B689B009A42EBD1254B1B6803F00703A8
:101A58003A689A420CD2224B3A68D2B21A70204B9A
:101A68001B6803F007033A689A4201D0012332E069
:101A78007B681B6803F00403002B08D0194B9B6894
:101A880023F4E0527B68DB68164913438B607B685C
:101A98001B6803F00803002B09D0124B9B6823F442
:101AA80060427B681B69DB000E4913438B6000F0C2
:101AB80021F802460B4B9B681B0903F00F030A49E8
:101AC800CB5C22FA03F3094A1360094B1B681846DA
:101AD800FFF7A4F8002318461037BD4680BD00BFA5
:101AE800003C024000380240DC2D000800000020C5
:101AF800040000202DE9B04F94B000AF00237B64B0
:101B08000023FB6400233B640023BB647C4B9B687D
:101B180003F00C03082B0DD0082B00F2E780002BF4
:101B280002D0042B03D0E1E0764BBB64E1E0764BB6
:101B3800BB64DEE0724B5B6803F03F037B64704B71
:101B48005B6803F48003002B65D06D4B5B689B09D1
:101B58000022BB63FA63BB6BC3F308033B63002338
:101B68007B63D7E90C4522462B464FF000004FF027
:101B78000001590141EAD261500102460B46214653
:101B8800511A3961294663EB01037B614FF000026A
:101B98004FF00003D7E904AB59468B01514643EA9D
:101BA800916351468A01D446B2EB0C08594663EB5F
:101BB80001094FF000024FF000034FEAC90343EA5E
:101BC80058734FEAC80290469946234618EB030318
:101BD800BB602B4649EB0303FB604FF000024FF05C
:101BE8000003D7E9024529464B0220462946044608
:101BF80043EAD45301464A02104619467B6C002238
:101C0800BB62FA62D7E90A23FEF7DAFA02460B4604
:101C18001346FB645CE03A4B5B689B09002218465C
:101C28001146C0F308033B6200237B62D7E90889A9
:101C380042464B464FF000004FF00001590141EA7F
:101C4800D261500102460B46C446B2EB0C0A40462C
:101C580049468C4663EB0C0B4FF000024FF0000333
:101C68004FEA8B1343EA9A634FEA8A12B2EB0A04EB
:101C780063EB0B054FF000024FF00003EB0043EA63
:101C88005473E20014461D460346E3183B600B46B6
:101C980045EB03037B604FF000024FF00003D7E9E8
:101CA800004529468B0220462946044643EA9453B8
:101CB80001468A02104619467B6C0022BB61FA6114
:101CC800D7E90623FEF77CFA02460B461346FB6467
:101CD8000B4B5B681B0C03F0030301335B003B6495
:101CE800FA6C3B6CB2FBF3F3BB6402E0054BBB64DC
:101CF80000BFBB6C18465037BD46BDE8B08F00BF6B
:101D0800003802400024F40000127A0080B400AFCA
:101D1800024B1B681846BD4680BC70470000002077
:101D280080B500AFFFF7F2FF0246054B9B689B0AA0
:101D380003F007030349CB5C22FA03F3184680BD7E
:101D480000380240EC2D000880B500AFFFF7DEFF39
:101D58000246054B9B685B0B03F007030349CB5C0A
:101D680022FA03F3184680BD00380240EC2D000823
:101D780080B582B000AF78607B68002B01D1012369
:101D880042E07B6893F84130DBB2002B06D17B68D8
:101D9800002283F840207868FEF77CFD7B682422C7
:101DA80083F841207B681B68DA687B681B6822F42B
:101DB8000052DA60786800F0F1FC7B681B681A69E9
:101DC8007B681B6822F490421A617B681B685A6919
:101DD8007B681B6822F02A025A617B681B68DA68F4
:101DE8007B681B6842F40052DA607B6800225A6400
:101DF8007B68202283F841207B68202283F84220D8
:101E08007B6800225A63002318460837BD4680BD08
:101E180080B584B000AFF860B9601346FB80FB68FA
:101E280093F84230DBB2202B12D1BB68002B02D0D2
:101E3800FB88002B01D101230BE0FB6800221A6309
:101E4800FB881A46B968F86800F0D4FA034600E03F
:101E5800022318461037BD4680BD000080B5BAB0D1
:101E680000AF78607B681B681B68C7F8E4307B6844
:101E78001B68DB68C7F8E0307B681B685B69C7F8DC
:101E8800DC300023C7F8D8300023C7F8D430D7F89F
:101E9800E43003F00F03C7F8D830D7F8D830002B58
:101EA8000FD1D7F8E43003F02003002B09D0D7F87E
:101EB800E03003F02003002B03D0786800F0B0FB7B
:101EC8005BE2D7F8D830002B00F0DE80D7F8DC30A2
:101ED80003F00103002B06D1D7F8E03003F4907328
:101EE800002B00F0D180D7F8E43003F00103002B79
:101EF8000BD0D7F8E03003F48073002B05D07B6853
:101F08005B6C43F001027B685A64D7F8E43003F055
:101F18000403002B0BD0D7F8DC3003F00103002BAF
:101F280005D07B685B6C43F002027B685A64D7F883
:101F3800E43003F00203002B0BD0D7F8DC3003F0B9
:101F48000103002B05D07B685B6C43F004027B68BF
:101F58005A64D7F8E43003F00803002B11D0D7F8FF
:101F6800E03003F02003002B05D1D7F8DC3003F074
:101F78000103002B05D07B685B6C43F008027B688B
:101F88005A647B685B6C002B00F0F281D7F8E43070
:101F980003F02003002B08D0D7F8E03003F020032B
:101FA800002B02D0786800F03BFB7B681B685B69FC
:101FB80003F04003402B0CBF01230023DBB2C7F81A
:101FC800D4307B685B6C03F00803002B03D1D7F88F
:101FD800D430002B4FD0786800F045FA7B681B6836
:101FE8005B6903F04003402B41D17B681B681433C5
:101FF800C7F89C30D7F89C3053E8003FC7F89830B2
:10200800D7F8983023F04003C7F8D0307B681B68B6
:102018001433D7F8D020C7F8A820C7F8A430D7F8C9
:10202800A410D7F8A82041E80023C7F8A030D7F8B3
:10203800A030002BD9D17B68DB6B002B13D07B68D9
:10204800DB6B7E4A1A657B68DB6B1846FEF7D8FFA8
:102058000346002B16D07B68DB6B1B6D7A68D26B4E
:10206800104698470EE0786800F093F90AE078681F
:1020780000F08FF906E0786800F08BF97B680022A1
:102088005A6475E100BF73E17B681B6B012B40F05C
:102098004F81D7F8E43003F01003002B00F048819B
:1020A800D7F8E03003F01003002B00F04181002343
:1020B800BB607B681B681B68BB607B681B685B68D0
:1020C800BB60BB687B681B685B6903F04003402BFF
:1020D80040F0B6807B68DB6B1B685B68A7F8BE3096
:1020E800B7F8BE30002B00F045817B689B8DB7F8B0
:1020F800BE209A4280F03E817B68B7F8BE20DA8520
:102108007B68DB6BDB69B3F5807F00F088807B68D8
:102118001B680C33C7F88830D7F8883053E8003F7D
:10212800C7F88430D7F8843023F48073C7F8B83000
:102138007B681B680C33D7F8B820C7F89420C7F819
:102148009030D7F89010D7F8942041E80023C7F8CA
:102158008C30D7F88C30002BD9D17B681B681433AE
:102168007B677B6F53E8003F3B673B6F23F00103BE
:10217800C7F8B4307B681B681433D7F8B420C7F8A5
:102188008020FB67F96FD7F8802041E80023BB6700
:10219800BB6F002BE1D17B681B6814333B663B6E39
:1021A80053E8003FFB65FB6D23F04003C7F8B030F0
:1021B8007B681B681433D7F8B020FA66BB66B96E23
:1021C800FA6E41E800237B667B6E002BE3D17B68C7
:1021D800202283F842207B6800221A637B681B68F0
:1021E8000C33FB64FB6C53E8003FBB64BB6C23F00F
:1021F8001003C7F8AC307B681B680C33D7F8AC20E9
:10220800BA657B65796DBA6D41E800233B653B6D26
:10221800002BE3D17B68DB6B1846FEF781FE7B68F9
:1022280002225A637B689A8D7B68DB8D9BB2D31A36
:102238009BB21946786800F0B5F89BE03325000892
:102248007B689A8D7B68DB8D9BB2D31AA7F8CE305A
:102258007B68DB8D9BB2002B00F08E80B7F8CE3008
:10226800002B00F089807B681B680C33BB63BB6B59
:1022780053E8003F7B637B6B23F49073C7F8C83047
:102288007B681B680C33D7F8C8207A643B64396CC8
:102298007A6C41E80023FB63FB6B002BE3D17B687E
:1022A8001B6814337B627B6A53E8003F3B623B6ADE
:1022B80023F00103C7F8C4307B681B681433D7F8D0
:1022C800C4203A63FB62F96A3A6B41E80023BB62B7
:1022D800BB6A002BE3D17B68202283F842207B680D
:1022E80000221A637B681B680C333B613B6953E827
:1022F800003FFB60FB6823F01003C7F8C0307B6821
:102308001B680C33D7F8C020FA61BB61B969FA6958
:1023180041E800237B617B69002BE3D17B680222C3
:102328005A63B7F8CE301946786800F03BF823E0D6
:10233800D7F8E43003F08003002B09D0D7F8E03059
:1023480003F08003002B03D0786800F002F914E052
:10235800D7F8E43003F04003002B0ED0D7F8E03074
:1023680003F04003002B08D0786800F041F904E03E
:1023780000BF02E000BF00E000BFE837BD4680BDF7
:1023880080B483B000AF786000BF0C37BD4680BC16
:10239800704780B483B000AF786000BF0C37BD468B
:1023A80080BC704780B483B000AF78600B467B80F8
:1023B80000BF0C37BD4680BC704780B485B000AF05
:1023C80078600023FB600023BB607B6893F8413092
:1023D800DBB2FB607B6893F84230DBB2BB60FB6822
:1023E800DAB2BB68DBB21343DBB218461437BD461A
:1023F80080BC704780B485B000AFF860B960134600
:10240800FB80FB68BA689A62FB68FA889A85FB6861
:10241800FA88DA85FB6800225A64FB68222283F86E
:102428004220FB681B69002B07D0FB681B68DA6831
:10243800FB681B6842F48072DA60FB681B685A69A3
:10244800FB681B6842F001025A61FB681B68DA6886
:10245800FB681B6842F02002DA6000231846143734
:10246800BD4680BC704780B495B000AF78607B688B
:102478001B680C337B637B6B53E8003F3B633B6B10
:1024880023F49073FB647B681B680C33FA6C3A6422
:10249800FB63F96B3A6C41E80023BB63BB6B002B11
:1024A800E5D17B681B6814333B623B6A53E8003F05
:1024B800FB61FB6923F00103BB647B681B68143371
:1024C800BA6CFA62BB62B96AFA6A41E800237B62B5
:1024D8007B6A002BE5D17B681B6B012B19D17B68CC
:1024E8001B680C33FB60FB6853E8003FBB60BB68AC
:1024F80023F010037B647B681B680C337A6CBA6129
:102508007B617969BA6941E800233B613B69002B2B
:10251800E5D17B68202283F842207B6800221A6379
:1025280000BF5437BD4680BC704780B584B000AF4B
:1025380078607B689B6BFB60FB680022DA85FB6830
:102548000022DA84F868FFF724FF00BF1037BD4681
:1025580080BD80B485B000AF78607B6893F8413067
:10256800DBB2212B3ED17B689B68B3F5805F14D129
:102578007B681B69002B10D17B681B6AFB60FB68BA
:102588001B881A467B681B68C2F308025A607B687E
:102598001B6A9A1C7B681A6208E07B681B6A591CD4
:1025A8007A6811621A787B681B685A607B68DB8CD2
:1025B8009BB2013B9BB27A681946D184002B0FD19C
:1025C8007B681B68DA687B681B6822F08002DA6027
:1025D8007B681B68DA687B681B6842F04002DA6037
:1025E800002300E0022318461437BD4680BC70471C
:1025F80080B582B000AF78607B681B68DA687B685A
:102608001B6822F04002DA607B68202283F84120B0
:102618007868FFF7B5FE002318460837BD4680BD29
:1026280080B58CB000AF78607B6893F84230DBB23D
:10263800222B40F0AE807B689B68B3F5805F17D192
:102648007B681B69002B13D10023FB627B689B6AA4
:10265800BB627B681B685B689BB2C3F308039AB2D2
:10266800BB6A1A807B689B6A9A1C7B689A6226E020
:102678007B689B6AFB620023BB627B689B68B3F53F
:10268800805F07D07B689B68002B0AD17B681B6939
:10269800002B06D17B681B685B68DAB2FB6A1A708C
:1026A80008E07B681B685B68DBB203F07F03DAB283
:1026B800FB6A1A707B689B6A5A1C7B689A627B6803
:1026C800DB8D9BB2013B9BB27A681946D185002B02
:1026D8005DD17B681B68DA687B681B6822F0200282
:1026E800DA607B681B68DA687B681B6822F4807292
:1026F800DA607B681B685A697B681B6822F00102F4
:102708005A617B68202283F842207B6800225A6342
:102718007B681B6B012B35D17B6800221A637B68B1
:102728001B680C337B617B6953E8003F3B613B6965
:1027380023F010037B627B681B680C337A6A3A6269
:10274800FB61F9693A6A41E80023BB61BB69002B68
:10275800E5D17B681B681B6803F01003102B0AD1B6
:102768000023FB607B681B681B68FB607B681B6839
:102778005B68FB60FB687B689B8D19467868FFF790
:1027880011FE02E07868FEF7D7F8002302E0002384
:1027980000E0022318463037BD4680BD2DE9B04F12
:1027A800C0B000AFC7F8F400D7F8F4301B681B6955
:1027B80023F44050D7F8F430D968D7F8F4301A68C1
:1027C80040EA01031361D7F8F4309A68D7F8F43077
:1027D8001B691A43D7F8F4305B691A43D7F8F43009
:1027E800DB691343C7F8F830D7F8F4301B68DB68A7
:1027F80023F4164121F00C01D7F8F4301A68D7F801
:10280800F8300B43D360D7F8F4301B685B6923F4C6
:102818004070D7F8F4309969D7F8F4301A6840EA6C
:1028280001035361D7F8F4301A68914B9A4205D0E6
:10283800D7F8F4301A688F4B9A4204D1FFF784FA1C
:10284800C7F8FC0003E0FFF76BFAC7F8FC00D7F8FD
:10285800F430DB69B3F5004F40F01081D7F8FC3055
:102868000022C7F8E830C7F8EC20D7E93A452246F5
:102878002B469118B9655B41FB65D7E916232046BD
:102888002946044612EB04080C4643EB04094FF0B2
:1028980000024FF000034FEAC90343EA58734FEAB6
:1028A800C80290469946034618EB0303C7F8E03080
:1028B8000B4649EB0303C7F8E430D7F8F4305B68FC
:1028C8000022C7F8D830C7F8DC20D7E936120B4603
:1028D800DB183B65134642EB03037B65D7E91423FA
:1028E800D7E93801FDF76CFC02460B46624BA3FBA7
:1028F80002235B091C01D7F8FC300022C7F8D0304E
:10290800C7F8D420D7E9348942464B469118B964B0
:102918005B41FB64D7E91223454612EB050A4046A2
:1029280049460D4643EB050B4FF000024FF00003FC
:102938004FEACB0343EA5A734FEACA0292469B46D0
:1029480003461AEB0303C7F8C8300B464BEB0303E7
:10295800C7F8CC30D7F8F4305B680022C7F8C0302D
:10296800C7F8C420D7E930120B46DB183B6413467E
:1029780042EB03037B64D7E91023D7E93201FDF763
:102988001FFC02460B4611463B4BA3FB01235B0988
:10299800642202FB03F3CB1ADB0003F13202364B4D
:1029A800A3FB02235B095B0003F4F8731C44D7F80C
:1029B800FC300022C7F8B830C7F8BC20D7E92E8908
:1029C80042464B469118B9635B41FB63D7E90E2336
:1029D80041465118396349464B417B634FF0000229
:1029E8004FF00003D7E90CAB5946CB00554643EAF4
:1029F80055735146CA0010461946034642469B186D
:102A0800C7F8B0304B460A4642EB0303C7F8B43068
:102A1800D7F8F4305B680022C7F8A830C7F8AC20B4
:102A2800D7E92A120B46DB18BB62134642EB0303B5
:102A3800FB62D7E90A23D7E92C01FDF7C1FB02465F
:102A48000B460D4BA3FB02135B09642101FB03F347
:102A5800D31ADB003233084AA2FB03235B0903F0D5
:102A68000702D7F8F4301B6822449A6009E100BFD6
:102A780000100140001401401F85EB51D7F8FC30CD
:102A88000022C7F8A030C7F8A420D7E92889424611
:102A98004B46911839625B417B62D7E9082341466E
:102AA8005418CC4643EB0C054FF000024FF00003DE
:102AB800EB0043EA5473E20014461D46404649467B
:102AC8000346E318C7F898300B4645EB0303C7F8ED
:102AD8009C30D7F8F4305B680022C7F89030C7F80C
:102AE80094204FF000024FF00003D7E9244529460F
:102AF8008B0020462946044643EA947301468A001F
:102B0800D7E92601FDF75CFB02460B46604BA3FBA9
:102B180002235B091C01D7F8FC300022C7F8883073
:102B2800C7F88C20D7E9228942464B469118B961EB
:102B38005B41FB61D7E90623414651183961494693
:102B48004B417B614FF000024FF00003D7E904AB23
:102B58005946CB00554643EA55735146CA001046BC
:102B68001946034642469B18C7F880304B460A462A
:102B780042EB0303C7F88430D7F8F4305B680022CF
:102B8800BB67FA674FF000024FF00003D7E91E89D0
:102B980049468B00454643EA957341468A00D7E982
:102BA8002001FDF70DFB02460B46394BA3FB021330
:102BB8005B09642101FB03F3D31A1B013233344A46
:102BC800A2FB03235B0903F0F0031C44D7F8FC3095
:102BD80000223B677A67D7E91C8942464B46911821
:102BE800B9605B41FB60D7E902234146511839605F
:102BF80049464B417B604FF000024FF00003D7E994
:102C080000AB5946CB00554643EA55735146CA00B6
:102C180010461946034642469B18BB664B460A4671
:102C280042EB0303FB66D7F8F4305B6800223B668F
:102C38007A664FF000024FF00003D7E91889494639
:102C48008B00454643EA957341468A00D7E91A0145
:102C5800FDF7B6FA02460B460D4BA3FB02135B09C0
:102C6800642101FB03F3D31A1B013233084AA2FB88
:102C780003235B0903F00F02D7F8F4301B682244E2
:102C88009A6000BF07F58077BD46BDE8B08F00BFEA
:102C98001F85EB5170B50D4E0D4D761BB61006D045
:102CA800002455F8043B01349847A642F9D1094E4F
:102CB800094D761B00F082F8B61006D0002455F8AE
:102CC800043B01349847A642F9D170BD002E000894
:102CD800002E0008082E0008002E0008024B13B131
:102CE800024800F005B8704700000000052D0008F4
:102CF800002301461A46184600F01AB838B5084BA2
:102D0800084D5B1B9C1007D0043B1D44013C55F843
:102D180004399847002CF9D1BDE8384000F054B880
:102D28000C2E0008082E0008704700BF704700BF2F
:102D38002DE9F047DFF87CA00646DAF8000098464F
:102D48000F469146FFF7F0FF1B4B1B68D3F848412D
:102D580024B365681F2D26DC5EB96B1C0235DAF8D2
:102D68000000636044F82570FFF7E0FF0020BDE82D
:102D7800F08704EB85010123C1F88890D4F88821F5
:102D8800AB401A43022EC4F88821C1F80881E4D167
:102D9800D4F88C211343C4F88C31DEE703F5A6740C
:102DA800C3F84841D5E7DAF80000FFF7BFFF4FF056
:102DB800FF30DCE738040020F42D0008F8B500BF28
:102DC800F8BC08BC9E467047F8B500BFF8BC08BC04
:042DD8009E4670475C
:102DDC0000000000000000000102030406070809BF
:0C2DEC00000000000102030410000020A1
:082DF80000D4FF7F0100000080
:082E0000E52C0008AD010008FB
:042E08008901000834
:102E0C000024F4001000000001000000000000008D
:102E1C0000000000FC02002064030020CC03002012
:102E2C000000000000000000000000000000000096
:102E3C000000000000000000000000000000000086
:102E4C000000000000000000000000000000000076
:102E5C000000000000000000000000000000000066
:102E6C000000000000000000000000000000000056
:102E7C000000000000000000000000000000000046
:102E8C000000000000000000000000000000000036
:102E9C000000000000000000000000000000000026
:102EAC000000000000000000000000000000000016
:102EBC000000000000000000010000000000000005
:102ECC000E33CDAB34126DE6ECDE05000B000000CA
:102EDC0000000000000000000000000000000000E6
:102EEC0000000000000000000000000000000000D6
:102EFC0000000000000000000000000000000000C6
:102F0C0000000000000000000000000000000000B5
:0C323C00000000000000000078050020E9
:0400000508000B8D57
:00000001FF
