:020000040800F2
:1000000000000220D115000835140008371400083C
:10001000391400083B1400083D14000800000000DB
:100020000000000000000000000000003F14000875
:1000300041140008000000004314000845140008A3
:1000400021160008211600082116000821160008B4
:1000500021160008211600082116000821160008A4
:100060002116000821160008211600082116000894
:100070002116000821160008211600082116000884
:100080002116000821160008211600082116000874
:100090002116000821160008211600082116000864
:1000A0002116000821160008211600082116000854
:1000B0002116000821160008211600082116000844
:1000C0002116000821160008211600082116000834
:1000D0002116000821160008211600082116000824
:1000E0002116000821160008211600082116000814
:1000F0002116000821160008211600082116000804
:1001000021160008211600082116000821160008F3
:1001100021160008211600082116000821160008E3
:1001200021160008211600082116000821160008D3
:1001300021160008211600082116000821160008C3
:1001400021160008211600082116000821160008B3
:1001500021160008211600082116000821160008A3
:100160002116000821160008211600082116000893
:1001700021160008211600082116000800000000C2
:080180002116000821160008F9
:1001C00010B5054C237833B9044B13B10448AFF391
:1001D00000800123237010BDD00900200000000022
:1001E0003083000808B5034B1BB103490348AFF344
:1001F000008008BD00000000D40900203083000802
:1002000053B94AB9002908BF00281CBF4FF0FF317D
:100210004FF0FF3000F074B9ADF1080C6DE904CE79
:1002200000F006F8DDF804E0DDE9022304B07047D1
:100230002DE9F047089E0D4604468846002B4DD117
:100240008A42944668D9B2FA82F252B101FA02F3B4
:10025000C2F1200120FA01F10CFA02FC41EA030884
:1002600094404FEA1C45210CB8FBF5FE1FFA8CF7B1
:1002700005FB1E8341EA03430EFB07F199420BD9AC
:100280001CEB03030EF1FF3080F01E81994240F217
:100290001B81AEF1020E63445B1AA4B2B3FBF5F00E
:1002A00005FB103344EA034400FB07F7A7420AD9D1
:1002B0001CEB040400F1FF3380F00881A74240F2F8
:1002C000058164440238E41B40EA0E4000211EB15F
:1002D000D4400023C6E90043BDE8F0878B4208D92B
:1002E000002E00F0EE800021C6E900050846BDE8BA
:1002F000F087B3FA83F100294AD1AB4202D382429C
:1003000000F2F980841A65EB030301209846002E61
:10031000E2D0C6E90048DFE702B9FFDEB2FA82F2B6
:10032000002A40F09180A1EB0C054FEA1C471FFA10
:100330008CFE0121B5FBF7F307FB1350250C45EAB2
:1003400000450EFB03F0A84208D91CEB050503F19C
:10035000FF3802D2A84200F2CB8043462D1AA4B245
:10036000B5FBF7F007FB105544EA05440EFB00FE11
:10037000A64508D91CEB040400F1FF3502D2A645BE
:1003800000F2BB802846A4EB0E0440EA03409EE73F
:10039000C1F120078B4022FA07FC4CEA030C20FA3B
:1003A00007F405FA01F31C43FD404FEA1C4900FA2B
:1003B00001F3B5FBF9F8200C1FFA8CFE09FB185568
:1003C00040EA054508FB0EF0A84202FA01F20BD9FB
:1003D0001CEB050508F1FF3A80F08880A84240F246
:1003E0008580A8F1020865442D1AA4B2B5FBF9F086
:1003F00009FB105544EA054500FB0EFEAE4508D941
:100400001CEB050500F1FF346CD2AE456AD9023809
:10041000654440EA0840A0FB0294A5EB0E05A54206
:10042000C846A64656D353D05EB1B3EB080265EB7F
:100430000E0505FA07F722FA01F3CD401F43C6E97E
:1004400000750021BDE8F087C2F1200320FA03F116
:100450000CFA02FC25FA03F395400D434FEA1C47C2
:100460001FFA8CFEB3FBF7F107FB11302B0C43EAAC
:10047000004301FB0EF0984204FA02F408D91CEB89
:10048000030301F1FF382FD298422DD9023963447A
:100490001B1AADB2B3FBF7F007FB103345EA034577
:1004A00000FB0EF3AB4208D91CEB050500F1FF3849
:1004B00016D2AB4214D902386544ED1A40EA014124
:1004C00038E73146304607E78646E5E61846FAE65D
:1004D0004B45A9D2B9EB020864EB0C0E0138A3E737
:1004E0004046EAE7204694E74146D1E7D0467BE71D
:1004F000023B654432E7084609E76444023842E7B4
:10050000704700BF00000000000000000000000075
:1005100001F0FF01102A2BDB10F0070F08D010F8B4
:10052000013B013A8B422DD010F0070F42B3F6D1B8
:10053000F0B441EA012141EA014122F007047FF0D1
:1005400000070023F0E80256083C85EA010586EA28
:10055000010685FA47F5A3FA87F586FA47F6A5FA64
:1005600087F68EB9EED1F0BC01F0FF0102F0070270
:1005700032B110F8013B013A83EA010313B1F8D11B
:100580000020704701387047002D06BF35460338FC
:10059000073815F0010F07D1013015F4807F02BF35
:1005A000013015F4C03F0130F0BC0138704700BF86
:1005B000844641EA000313F003036DD1403A41D36E
:1005C00051F8043B40F8043B51F8043B40F8043B2D
:1005D00051F8043B40F8043B51F8043B40F8043B1D
:1005E00051F8043B40F8043B51F8043B40F8043B0D
:1005F00051F8043B40F8043B51F8043B40F8043BFD
:1006000051F8043B40F8043B51F8043B40F8043BEC
:1006100051F8043B40F8043B51F8043B40F8043BDC
:1006200051F8043B40F8043B51F8043B40F8043BCC
:1006300051F8043B40F8043B51F8043B40F8043BBC
:10064000403ABDD2303211D351F8043B40F8043B5C
:1006500051F8043B40F8043B51F8043B40F8043B9C
:1006600051F8043B40F8043B103AEDD20C3205D36C
:1006700051F8043B40F8043B043AF9D2043208D064
:10068000D2071CBF11F8013B00F8013B01D30B88D6
:1006900003806046704700BF082A13D38B078DD0B4
:1006A00010F003038AD0C3F10403D21ADB071CBF86
:1006B00011F8013B00F8013B80D331F8023B20F8F0
:1006C000023B7BE7043AD9D3013A11F8013B00F829
:1006D000013BF9D20B7803704B7843708B788370B1
:1006E00060467047000000000000000000000000AD
:1006F00000000000000000000000000000000000FA
:1007000090F800F06DE9024520F007016FF0000C51
:1007100010F0070491F820F040F049804FF00004F9
:100720006FF00700D1E9002391F840F000F10800D4
:1007300082FA4CF2A4FA8CF283FA4CF3A2FA8CF30C
:100740004BBBD1E9022382FA4CF200F10800A4FA73
:100750008CF283FA4CF3A2FA8CF3E3B9D1E90423C7
:1007600082FA4CF200F10800A4FA8CF283FA4CF3FE
:10077000A2FA8CF37BB9D1E9062301F1200182FAB8
:100780004CF200F10800A4FA8CF283FA4CF3A2FABE
:100790008CF3002BC6D0002A04BF04301A4612BACC
:1007A000B2FA82F2FDE8024500EBD2007047D1E9CF
:1007B000002304F00305C4F100004FEAC50514F05E
:1007C000040F91F840F00CFA05F562EA05021CBF2F
:1007D00063EA050362464FF00004A9E781F0004197
:1007E00002E000BF83F0004330B54FEA41044FEA16
:1007F000430594EA050F08BF90EA020F1FBF54EAB1
:10080000000C55EA020C7FEA645C7FEA655C00F04C
:10081000E2804FEA5454D4EB5555B8BF6D420CDD1D
:100820002C4480EA020281EA030382EA000083EAA0
:10083000010180EA020281EA0303362D88BF30BD40
:1008400011F0004F4FEA01314FF4801C4CEA113196
:1008500002D0404261EB410113F0004F4FEA0333F5
:100860004CEA133302D0524263EB430394EA050F80
:1008700000F0A780A4F10104D5F1200E0DDB02FAEF
:100880000EFC22FA05F2801841F1000103FA0EF283
:10089000801843FA05F359410EE0A5F120050EF149
:1008A000200E012A03FA0EFC28BF4CF0020C43FA7A
:1008B00005F3C01851EBE37101F0004507D54FF087
:1008C000000EDCF1000C7EEB00006EEB0101B1F5D7
:1008D000801F1BD3B1F5001F0CD349085FEA30001D
:1008E0004FEA3C0C04F101044FEA445212F5800F28
:1008F00080F09A80BCF1004F08BF5FEA500C50F1C5
:10090000000041EB045141EA050130BD5FEA4C0CA7
:10091000404141EB0101013C28BFB1F5801FE9D204
:1009200091F0000F04BF01460020B1FA81F308BF27
:100930002033A3F10B03B3F120020CDA0C3208DDF3
:1009400002F1140CC2F10C0201FA0CF021FA02F1CE
:100950000CE002F11402D8BFC2F1200C01FA02F13E
:1009600020FA0CFCDCBF41EA0C019040E41AA2BF63
:1009700001EB0451294330BD6FEA04041F3C1CDA2B
:100980000C340EDC04F11404C4F1200220FA04F04B
:1009900001FA02F340EA030021FA04F345EA0301F5
:1009A00030BDC4F10C04C4F1200220FA02F001FAB7
:1009B00004F340EA0300294630BD21FA04F0294639
:1009C00030BD94F0000F83F4801306BF81F48011D2
:1009D0000134013D4EE77FEA645C18BF7FEA655C45
:1009E00029D094EA050F08BF90EA020F05D054EA17
:1009F000000C04BF1946104630BD91EA030F1EBF1C
:100A00000021002030BD5FEA545C05D1400049411F
:100A100028BF41F0004130BD14F580043CBF01F512
:100A2000801130BD01F0004545F0FE4141F47001F8
:100A30004FF0000030BD7FEA645C1ABF19461046D3
:100A40007FEA655C1CBF0B46024650EA013406BFD4
:100A500052EA033591EA030F41F4002130BD00BF93
:100A600090F0000F04BF0021704730B54FF4806450
:100A700004F132044FF000054FF0000150E700BFD1
:100A800090F0000F04BF0021704730B54FF4806430
:100A900004F1320410F0004548BF40424FF000011D
:100AA0003EE700BF42004FEAE2014FEA31014FEA60
:100AB00002701FBF12F07F4393F07F4F81F06051AF
:100AC000704732F07F4208BF704793F07F4F04BFFA
:100AD00041F40021704730B54FF4607401F00045D7
:100AE00021F000411CE700BF50EA010208BF704737
:100AF00030B54FF000050AE050EA010208BF704728
:100B000030B511F0004502D5404261EB41014FF490
:100B1000806404F132045FEA915C3FF4D8AE4FF098
:100B200003025FEADC0C18BF03325FEADC0C18BF7B
:100B3000033202EBDC02C2F1200300FA03FC20FACC
:100B400002F001FA03FE40EA0E0021FA02F1144419
:100B5000BDE600BF70B54FF0FF0C4CF4E06C1CEA32
:100B600011541DBF1CEA135594EA0C0F95EA0C0FA3
:100B700000F0DEF82C4481EA030621EA4C5123EA16
:100B80004C5350EA013518BF52EA033541F4801145
:100B900043F4801338D0A0FB02CE4FF00005E1FBF8
:100BA00002E506F00042E0FB03E54FF00006E1FB42
:100BB00003569CF0000F18BF4EF0010EA4F1FF0485
:100BC000B6F5007F64F5407404D25FEA4E0E6D41C5
:100BD00046EB060642EAC62141EA55514FEAC520D6
:100BE00040EA5E504FEACE2EB4F1FD0C88BFBCF552
:100BF000E06F1ED8BEF1004F08BF5FEA500E50F103
:100C0000000041EB045170BD06F0004646EA0101C8
:100C100040EA020081EA0301B4EB5C04C2BFD4EBFA
:100C20000C0541EA045170BD41F480114FF0000EF3
:100C3000013C00F3AB8014F1360FDEBF002001F061
:100C4000004170BDC4F10004203C35DA0C341BDCDB
:100C500004F11404C4F1200500FA05F320FA04F0AD
:100C600001FA05F240EA020001F0004221F00041E1
:100C700010EBD37021FA04F642EB06015EEA430E54
:100C800008BF20EAD37070BDC4F10C04C4F1200584
:100C900000FA04F320FA05F001FA04F240EA020037
:100CA00001F0004110EBD37041F100015EEA430E08
:100CB00008BF20EAD37070BDC4F1200500FA05F228
:100CC0004EEA020E20FA04F301FA05F243EA0203A7
:100CD00021FA04F001F0004121FA04F220EA0200B6
:100CE00000EBD3705EEA430E08BF20EAD37070BDFC
:100CF00094F0000F0FD101F00046400041EB0101DC
:100D000011F4801F08BF013CF7D041EA060195F0BD
:100D1000000F18BF704703F00046520043EB030377
:100D200013F4801F08BF013DF7D043EA0603704764
:100D300094EA0C0F0CEA135518BF95EA0C0F0CD06F
:100D400050EA410618BF52EA4306D1D181EA0301B5
:100D500001F000414FF0000070BD50EA410606BFAF
:100D60001046194652EA430619D094EA0C0F02D1F4
:100D700050EA013613D195EA0C0F05D152EA033639
:100D80001CBF104619460AD181EA030101F0004157
:100D900041F0FE4141F470014FF0000070BD41F0A0
:100DA000FE4141F4780170BD70B54FF0FF0C4CF47A
:100DB000E06C1CEA11541DBF1CEA135594EA0C0F99
:100DC00095EA0C0F00F0A7F8A4EB050481EA030EE6
:100DD00052EA03354FEA013100F088804FEA0333CD
:100DE0004FF0805545EA131343EA12634FEA02229B
:100DF00045EA111545EA10654FEA00260EF000415C
:100E00009D4208BF964244F1FD0404F5407402D2AD
:100E10005B084FEA3202B61A65EB03055B084FEA3E
:100E200032024FF480104FF4002CB6EB020E75EB3B
:100E3000030E22BFB61A754640EA0C005B084FEA63
:100E40003202B6EB020E75EB030E22BFB61A7546E0
:100E500040EA5C005B084FEA3202B6EB020E75EB2B
:100E6000030E22BFB61A754640EA9C005B084FEAA3
:100E70003202B6EB020E75EB030E22BFB61A7546B0
:100E800040EADC0055EA060E18D04FEA051545EA9F
:100E900016754FEA06164FEAC30343EA52734FEA48
:100EA000C2025FEA1C1CC0D111F4801F0BD141EAC1
:100EB00000014FF000004FF0004CB6E711F4801F26
:100EC00004BF01430020B4F1FD0C88BFBCF5E06F06
:100ED0003FF6AFAEB5EB030C04BFB6EB020C5FEA16
:100EE000500C50F1000041EB045170BD0EF0004E6B
:100EF0004EEA113114EB5C04C2BFD4EB0C0541EA9D
:100F0000045170BD41F480114FF0000E013C90E699
:100F100045EA060E8DE60CEA135594EA0C0F08BF5D
:100F200095EA0C0F3FF43BAF94EA0C0F0AD150EA5C
:100F300001347FF434AF95EA0C0F7FF425AF1046EF
:100F400019462CE795EA0C0F06D152EA03353FF417
:100F5000FDAE1046194622E750EA410618BF52EA94
:100F600043067FF4C5AE50EA41047FF40DAF52EA68
:100F700043057FF4EBAE12E74FF0FF3C06E000BF05
:100F80004FF0010C02E000BF4FF0010C4DF804CD12
:100F90004FEA410C7FEA6C5C4FEA430C18BF7FEAD2
:100FA0006C5C1BD001B050EA410C0CBF52EA430C00
:100FB00091EA030F02BF90EA020F0020704710F180
:100FC000000F91EA030F58BF994208BF90422CBF0F
:100FD000D8176FEAE37040F0010070474FEA410C08
:100FE0007FEA6C5C02D150EA013C07D14FEA430C26
:100FF0007FEA6C5CD6D152EA033CD3D05DF8040B97
:10100000704700BF8446104662468C4619466346C8
:1010100000E000BF01B5FFF7B7FF002848BF10F19F
:10102000000F01BD4DF808EDFFF7F4FF0CBF0120E4
:1010300000205DF808FB00BF4DF808EDFFF7EAFF60
:1010400034BF012000205DF808FB00BF4DF808ED1B
:10105000FFF7E0FF94BF012000205DF808FB00BF10
:101060004DF808EDFFF7CEFF94BF012000205DF89A
:1010700008FB00BF4DF808EDFFF7C4FF34BF0120A7
:1010800000205DF808FB00BF4FEA410C7FEA6C5C72
:1010900002D150EA013C0AD14FEA430C7FEA6C5C72
:1010A00002D152EA033C02D14FF0000070474FF0EA
:1010B000010070474FEA410212F5001215D211D516
:1010C0006FF47873B3EB625212D94FEAC12343F045
:1010D000004343EA505311F0004F23FA02F018BFC7
:1010E000404270474FF00000704750EA013005D190
:1010F00011F0004008BF6FF0004070474FF0000053
:10110000704700BFF0B58BB000220592069207929F
:10111000089209920192254B196B41F00401196361
:10112000196B01F00401019101990292196B41F0D0
:1011300080011963196B01F08001029102990392F9
:10114000196B41F001011963196B01F00101039161
:10115000039904921A6B42F002021A631B6B03F0AC
:1011600002030493049B124F01221021384600F021
:10117000FBFB104D01224021284600F0F5FB102317
:1011800005930124069407940226089605A938467B
:1011900000F0F8FA4023059306940794089605A9F1
:1011A000284600F0EFFA0BB0F0BD00BF0038024057
:1011B000000802400004024072B6FEE700B595B098
:1011C0003022002108A801F069F900230393049359
:1011D00005930693079301931F4A116C41F08051C8
:1011E0001164126C02F080520192019A02931B4A20
:1011F000116841F480411160126802F48042029249
:10120000029A0222089201210B9110210C910E9258
:101210000F9308231093A82311931292042313937E
:1012200008A800F0A7FB98B90F23039302230493A7
:10123000002305934FF4A05306934FF48053079374
:10124000052103A800F0E4FD20B915B05DF804FB0A
:10125000FFF7B2FFFFF7B0FF003802400070004018
:1012600008B500F005FAFFF7A9FFFFF74BFF00F004
:101270000DF800F02BF800F059F901F091F8024850
:1012800001F05EF9FBE700BF4883000808B50D4890
:101290000D4B03604FF48273436000238360C3608F
:1012A000036143614FF400728261C3610362436270
:1012B00083620A23C36200F081FE00B908BDFFF714
:1012C0007BFFFBE7EC0900200030014008B50D482A
:1012D0000D4B03604FF48273436000238360C3604F
:1012E000036143614FF400728261C3610362436230
:1012F00083620A23C36200F061FE00B908BDFFF7F4
:101300005BFFFBE7440A002000380040F0B58BB0DB
:101310000023059306930793089309930368314AC2
:10132000934204D0304A934224D00BB0F0BD002148
:1013300000912E4B5A6C42F480525A645A6C02F45B
:1013400080520092009A01911A6B42F001021A63D6
:101350001B6B03F001030193019BE0230593022320
:101360000693032308930523099305A9204800F059
:1013700009FADAE7002402941C4B1A6C42F480420A
:101380001A641A6C02F480420292029A03941A6B55
:1013900042F004021A631A6B02F004020392039AE9
:1013A00004941A6B42F002021A631B6B03F00203EF
:1013B0000493049B0C2305930227069703260896A3
:1013C0000525099505A90B4800F0DCF94FF4806369
:1013D0000593069707940896099505A9064800F015
:1013E000D1F9A2E700300140003800400038024047
:1013F00000000240000802400004024082B00021C8
:1014000000910B4B5A6C42F480425A645A6C02F4BD
:1014100080420092009A01911A6C42F080521A6444
:101420001B6C03F080530193019B02B0704700BF17
:1014300000380240FEE7FEE7FEE7FEE7FEE7704702
:101440007047704708B500F02DF908BD01207047BE
:1014500008B500F0F9FF162303604FF0FF3008BD18
:1014600008B54FF0FF31FFF7F3FFFEE770B50C460C
:101470001646002506E0AFF30080214601F8010B77
:1014800001350C46B542F6DB304670BD70B50C46F2
:101490001646002504E014F8010B00F037F801357A
:1014A000B542F8DB304670BD4FF0FF3070474FF467
:1014B00000534B60002070470120704700207047A8
:1014C00010B503460C4A0D490D48006840B10C4860
:1014D00000680344521A934206D8094A136010BDAB
:1014E0000748084C0460F2E700F0AEFF0C230360ED
:1014F0004FF0FF30F3E700BF0000022000040000BF
:101500009C0A0020480B00207047000000B583B003
:1015100001904FF47A73012201A9034800F0D9FE2B
:10152000019803B05DF804FBA00A002008B50A4842
:101530000A4B03604FF4E133436000238360C360D0
:1015400003610C2242618361C36100F092FE00B925
:1015500008BDFFF731FEFBE7A00A00200044004071
:1015600000B589B000230393049305930693079372
:101570000268154B9A4202D009B05DF804FB0021C5
:10158000019103F5FA331A6C42F400321A641A6CB2
:1015900002F400320192019A02911A6B42F00102A8
:1015A0001A631B6B03F001030293029B0C2303934A
:1015B00002230493032306930723079303A90348F5
:1015C00000F0E0F8D8E700BF00440040000002400F
:1015D000DFF834D0FFF798FF0C480D490D4A00237F
:1015E00002E0D458C4500433C4188C42F9D30A4AD8
:1015F0000A4C002301E013600432A242FBD300F046
:1016000029FFFFF72DFE7047000002200000002098
:10161000D00900207C870008D0090020480B00205A
:10162000FEE7000010B504460E4B18784FF47A73AD
:10163000B3FBF0F30C4A1068B0FBF3F000F08EF847
:1016400068B90F2C01D901200AE0002221464FF091
:10165000FF3000F04BF8054B1C60002000E001203B
:1016600010BD00BF04000020000000200800002082
:1016700008B50B4B1A6842F400721A601A6842F4FB
:1016800080621A601A6842F480721A60032000F0C7
:101690001BF80F20FFF7C6FFFFF7B0FE002008BDC4
:1016A000003C0240034A1168034B1B780B44136053
:1016B000704700BFE80A002004000020014B1868B2
:1016C000704700BFE80A0020074AD36823F4E063AC
:1016D0001B041B0C000200F4E060034343F0BF63F3
:1016E00043F40033D360704700ED00E000B5194BC0
:1016F000DB68C3F30223C3F1070CBCF1040F28BF5E
:101700004FF0040C03F1040EBEF1060F18D9033B91
:101710004FF0FF3E0EFA0CFC21EA0C0199400EFA44
:1017200003F322EA0303194300280BDB0901C9B2C2
:1017300000F1604000F5614080F800135DF804FBA3
:101740000023E5E700F00F000901C9B2024B19546C
:10175000F4E700BF00ED00E014ED00E00138B0F167
:10176000807F0BD24FF0E0235861054AF02182F8C8
:1017700023100020986107221A61704701207047EA
:1017800000ED00E000230F2B00F2E48070B582B082
:1017900060E085685E000324B44025EA0405CC6857
:1017A000B4402C438460456825EA02054C68C4F3C4
:1017B00000129A402A4342605AE0DC08083450F88C
:1017C000246003F0070295000F22AA4026EA020EC9
:1017D0000A69AA4042EA0E0240F824205CE007228F
:1017E00000E0002202FA0EF22A4302345A4D45F874
:1017F00024205A4A94686FEA0C0224EA0C054E68C9
:1018000016F4801F01D04CEA0405544CA560E4682E
:1018100002EA04054E6816F4001F01D04CEA0405E4
:101820004E4CE560646802EA04054E6816F4003F19
:1018300001D04CEA0405494C6560246822404D689B
:1018400015F4803F01D04CEA0402444C226001337D
:101850000F2B7DD801229A400C6804EA020C32EA70
:101860000404F4D14C6804F00304013C012C90D929
:101870004A6802F00302032A09D0C4685D0003220B
:10188000AA4024EA02048A68AA402243C2604A6845
:1018900002F00302022A90D004684FEA430E0322AA
:1018A00002FA0EF224EA02044A6802F0030202FA83
:1018B0000EF2224302604A6812F4403FC7D0002271
:1018C0000192274A546C44F480445464526C02F4EC
:1018D00080420192019A9C08A51C1F4A52F825508B
:1018E00003F003024FEA820E0F2202FA0EF225EAFB
:1018F00002051C4A90423FF474AF02F580629042A8
:101900001AD002F58062904218D002F580629042AF
:1019100016D002F58062904214D002F580629042A7
:1019200012D002F58062904210D002F5806290429F
:101930003FF455AF082255E7012253E7022251E751
:1019400003224FE704224DE705224BE7062249E731
:1019500002B070BD704700BF00380140003C01403C
:1019600000380240000002400AB18161704709045A
:1019700081617047002800F0E08170B582B00446B4
:10198000036813F0010F3BD09F4B9B6803F00C03DF
:10199000042B2CD09C4B9B6803F00C03082B21D00C
:1019A0006368B3F5803F4FD0B3F5A02F52D0964B6C
:1019B0001A6822F480321A601A6822F480221A60AF
:1019C0006368002B50D0FFF779FE05468E4B1B68ED
:1019D00013F4003F14D1FFF771FE401B6428F5D9C2
:1019E0000320B1E1884B5B6813F4800FD8D0864B9D
:1019F0001B6813F4003F03D06368002B00F09F8145
:101A0000236813F0020F54D07F4B9B6813F00C0F28
:101A10003ED07D4B9B6803F00C03082B33D0E3686A
:101A2000002B68D0794B01221A60FFF747FE05466C
:101A3000754B1B6813F0020F54D1FFF73FFE401B9C
:101A40000228F5D903207FE16F4A136843F48033FD
:101A50001360B5E76C4B1A6842F480221A601A686A
:101A600042F480321A60ABE7FFF728FE0546664B6A
:101A70001B6813F4003FC3D0FFF720FE401B64280F
:101A8000F5D9032060E1604B5B6813F4800FC6D189
:101A90005D4B1B6813F0020F03D0E368012B40F08D
:101AA0005081594A136823F0F803216943EAC103BE
:101AB0001360236813F0080F42D063696BB3534B74
:101AC0000122C3F8802EFFF7F9FD05464E4B5B6FF0
:101AD00013F0020F34D1FFF7F1FD401B0228F5D9B6
:101AE000032031E1484A136823F0F803216943EAEF
:101AF000C1031360DDE7454B00221A60FFF7DEFDEE
:101B00000546414B1B6813F0020FD2D0FFF7D6FDFC
:101B1000401B0228F5D9032016E13C4B0022C3F8F4
:101B2000802EFFF7CBFD0546374B5B6F13F0020F9E
:101B300006D0FFF7C3FD401B0228F5D9032003E1BF
:101B4000236813F0040F77D02F4B1B6C13F0805FCA
:101B500033D1002301932C4B1A6C42F080521A644B
:101B60001B6C03F080530193019B0125284B1B68DC
:101B700013F4807F23D0A368012B34D0052B38D0F9
:101B8000214B1A6F22F001021A671A6F22F0040229
:101B90001A67A368002B3DD0FFF790FD06461A4B4D
:101BA0001B6F13F0020F46D1FFF788FD801B41F237
:101BB00088339842F3D90320C6E00025D6E7144ABB
:101BC000136843F480731360FFF778FD0646104BEB
:101BD0001B6813F4807FCED1FFF770FD801B0228B5
:101BE000F5D90320B0E0084A136F43F001031367EF
:101BF000CFE7054B1A6F42F004021A671A6F42F0E2
:101C000001021A67C5E700BF0038024000004742E2
:101C100000700040FFF752FD0646524B1B6F13F059
:101C2000020F08D0FFF74AFD801B41F2883398422B
:101C3000F3D9032088E0EDB9A369002B00F083807D
:101C4000484A926802F00C02082A51D0022B17D0A1
:101C5000454B00221A66FFF731FD0446414B1B68D5
:101C600013F0007F42D0FFF729FD001B0228F5D9B1
:101C7000032069E03B4A136C23F080531364DBE7D5
:101C8000394B00221A66FFF719FD0546354B1B68D4
:101C900013F0007F06D0FFF711FD401B0228F5D995
:101CA000032051E0E369226A1343626A43EA821324
:101CB000A26A5208013A43EA0243E26A43EA026333
:101CC000284A5360284B01221A66FFF7F7FC0446A6
:101CD000244B1B6813F0007F06D1FFF7EFFC001BBD
:101CE0000228F5D903202FE000202DE000202BE072
:101CF000012B2BD01B4B5B6803F48001E2699142FE
:101D000026D103F03F02216A8A4223D1616A47F655
:101D1000C0721A40B2EB811F1ED103F44031A26A97
:101D20005208013AB1EB024F18D103F07063E26A36
:101D3000B3EB026F14D1002006E0012070470120B0
:101D400002E0012000E0002002B070BD0120FBE7AE
:101D50000120F9E70120F7E70120F5E70120F3E78B
:101D60000120F1E7003802400000474208B5254B4A
:101D70009B6803F00C03042B3FD0082B3FD1214B71
:101D80005A6802F03F025B6813F4800F12D01D4BBB
:101D90005968C1F388111C480023A1FB0001FEF71C
:101DA0002FFA184B5B68C3F3014301335B00B0FBB0
:101DB000F3F025E0134B5968C1F3881C4FEA4C112E
:101DC000B1EB0C006EEB0E0E4FEA8E1343EA9063FC
:101DD0008101091A63EB0E03DB0043EA5173C9006A
:101DE00011EB0C0C43F10003990200234FEA8C2005
:101DF00041EA9C51FEF704FAD3E7034800E00348A8
:101E000008BD00BF0038024040787D010024F40086
:101E1000002800F09B8070B50D4604464F4B1B68B0
:101E200003F007038B4208D2CBB24C4A13701368FD
:101E300003F007038B4240F08B80236813F0020FFE
:101E400017D013F0040F04D0454A936843F4E053CD
:101E50009360236813F0080F04D0414A936843F459
:101E6000604393603E4A936823F0F003A1680B43FC
:101E70009360236813F0010F32D06368012B21D0E7
:101E80009A1E012A25D9364A126812F0020F61D033
:101E900033498A6822F0030213438B60FFF70EFC7C
:101EA00006462F4B9B6803F00C036268B3EB820F6E
:101EB00016D0FFF703FC801B41F288339842F0D91B
:101EC000032042E0264A126812F4003FE0D10120CC
:101ED0003BE0234A126812F0007FD9D1012034E0A0
:101EE0001E4B1B6803F00703AB4207D9EAB21B4B3A
:101EF0001A701B6803F00703AB422DD1236813F05F
:101F0000040F06D0164A936823F4E053E1680B43AC
:101F10009360236813F0080F07D0114A936823F4E5
:101F20006043216943EAC1039360FFF71FFF0C4B35
:101F30009B68C3F303130B4AD35CD8400A4B186069
:101F40000A4B1868FFF76EFB002070BD0120704738
:101F50000120FAE70120F8E70120F6E7003C024003
:101F600000380240508300080000002008000020D4
:101F7000014B1868704700BF0000002008B5FFF74C
:101F8000F7FF044B9B68C3F38223034AD35CD8401A
:101F900008BD00BF003802406083000808B5FFF7A5
:101FA000E7FF044B9B68C3F34233034AD35CD8403A
:101FB00008BD00BF003802406083000800285AD0E6
:101FC00010B50446436A33B94368B3F5827F05D040
:101FD0000023C36102E00023036143610023A36285
:101FE00094F85130002B40D0022384F851302268FD
:101FF000136823F040031360636803F48273A268DC
:1020000002F404421343E26802F4006213432269BB
:1020100002F002021343626902F001021343A26953
:1020200002F400721343E26902F038021343226A99
:1020300002F080021343A26A02F4005221681343A3
:102040000B60638B03F00403626A02F010022168E4
:1020500013434B602268D36923F40063D3610020EB
:102060006065012384F8513010BD84F8503020465B
:10207000FFF74CF9B8E701207047026802F10C0342
:1020800053E8003F23F490730C3242E800310029FA
:10209000F3D1026802F1140353E8003F23F0010377
:1020A000143242E800310029F3D1036B012B05D033
:1020B000202380F84230002303637047026802F156
:1020C0000C0353E8003F23F010030C3242E80031C8
:1020D0000029F3D1ECE7000038B504460268136923
:1020E00023F44053C1680B431361836802691343AF
:1020F00042691343C2691A430168CB6823F416434B
:1021000023F00C031343CB600268536923F440733C
:1021100081690B4353610368314A934206D002F54B
:102120008062934202D0FFF729FF01E0FFF736FFFC
:10213000E369B3F5004F29D00021031849411B186A
:1021400041F10001C90041EA5371DB0018186368CE
:102150004FEA83024FEA937341F10001FEF750F812
:10216000204DA5FB00325109642303FB11031B0121
:102170003233A5FB03235B0903F0F00202EB0112EB
:1021800003F00F03216813448B6038BD002302184D
:1021900043EB0301121841F10001C90041EA5271F9
:1021A000D200101841F10001626892185B41FEF7FD
:1021B00027F80C4DA5FB00325109642303FB1103E2
:1021C000DB003233A5FB03235B095A0002F4F872EB
:1021D00002EB011203F00703216813448B60D4E77C
:1021E000001001401F85EB512DE9F04383B00546F7
:1021F0000E4617469946DDF828802C68246836EA92
:1022000004030CBF4FF0010C4FF0000CBC4528D16B
:10221000B8F1FF3FF1D0FFF751FAA0EB09004045BC
:1022200023D8B8F1000F22D02B68DA6812F0040F1F
:10223000E3D0802EE1D0402EDFD01A6812F0080FD4
:10224000DBD0002401941A6801925B680193019B22
:102250002846FFF712FF08236B6485F840400120F1
:1022600000E0002003B0BDE8F0830320FAE703207C
:10227000F8E760B310B5044690F8413013B3242357
:1022800084F841302268D36823F40053D360204699
:10229000FFF722FF2268136923F490431361226839
:1022A000536923F02A0353612268D36843F400532F
:1022B000D36000206064202384F8413084F84230E9
:1022C000606310BD80F84030FFF74AF9D7E701207E
:1022D00070472DE9F04182B01E4690F84130DBB2E4
:1022E000202B56D104460D469046002955D00AB9F8
:1022F00001204FE000234364212380F84130FFF7A1
:10230000DDF90746A4F82480A4F82680A368B3F575
:10231000805F02D04FF0000814E023692BB34FF028
:1023200000080FE0202384F84130032032E038F821
:10233000023B2268C3F308035360E28C92B2013A75
:1023400092B2E284E38C9BB293B100963B460022AA
:1023500080212046FFF748FF0028E3D1002DE6D07A
:1023600015F8012B23685A60E7E7A8460025E9E73E
:1023700000963B46002240212046FFF735FF18B962
:10238000202384F8413005E0202384F841300320E5
:1023900000E0022002B0BDE8F0810120FAE7000071
:1023A00008B50349034800F049F8034B187008BD0D
:1023B000EC0A002010000020F00A0020024B01224D
:1023C0001A701878704700BF0C000020024B0122E1
:1023D0001A701878704700BF0C000020002070476A
:1023E0000020704701207047134B5B7A13BB10B578
:1023F000044603F0FF00104B93F809C05FFA8CFC11
:102400004FF0000E03F80CE093F809C003EB8C0CBE
:10241000CCF804405C7A1C4422725A7A541CE4B210
:102420005C7230320A703A234B702F238B7081F824
:1024300003E010BD01207047F40A002008B5002217
:10244000FFF7D2FF08BD0000014B1868704700BFBE
:102450002400002070B50D4E0D4D761BB61006D031
:10246000002455F8043B01349847A642F9D1094E9F
:10247000094D761B05F05CFFB61006D0002455F818
:10248000043B01349847A642F9D170BD708700081B
:10249000708700087887000870870008830730B5C8
:1024A00048D0541E002A3FD0CAB2034601E0013C86
:1024B0003AD303F8012B9D07F9D1032C2DD9CDB2C6
:1024C00045EA05250F2C45EA054536D9A4F1100249
:1024D00022F00F0C03F1200EE6444FEA121C03F128
:1024E000100242E9045542E9025510327245F8D112
:1024F0000CF1010214F00C0F03EB021204F00F0CAC
:1025000013D0ACF1040323F003030433134442F863
:10251000045B9342FBD10CF003042CB1CAB21C44FF
:1025200003F8012B9C42FBD130BD64461346002CBE
:10253000F4D1F9E703461446BFE71A46A446E0E79C
:102540000FB400B5074983B004AB086853F8042BF7
:102550008168019300F008F803B05DF804EB04B063
:10256000704700BF240000202DE9F04FD5B01C4675
:10257000079191460546099003F0F6F80268179214
:1025800010460E94FEF7BCF816901DB1AB6B002BF5
:1025900000F02A82079A536EDD0740F13881B2F9C4
:1025A0000C2091B28F0409D4079B42F400529A8107
:1025B00091B21A465B6E23F4005353660E0740F146
:1025C000CB80079B1B69002B00F0C68001F01A032B
:1025D0000A2B00F0CF8000242BAB4D46CDE92944D7
:1025E000CDE91944CDE91B441294289398461894D8
:1025F00000230B940024CDE914342B78002B00F039
:102600009D81AA4604E01AF8013F002B00F0C78024
:10261000252BF8D1BAEB050640F0C5809AF80030BA
:10262000002B00F08B8100234FF0FF329AF80160FD
:102630008DF883300A930AF1010A08921F462B2471
:102640004FF020090AF1010AA6F120035A2B00F2EB
:10265000ED80DFE813F0EB02EB00EB00E602EB00AD
:10266000EB00EB006A00EB00EB005C028002EB0089
:1026700067028A02EB0085025B005B005B005B0087
:102680005B005B005B005B005B00EB00EB00EB00C2
:10269000EB00EB00EB00EB007A01EB00F801D2015C
:1026A0007A017A017A01EB00EB00EB00EB00E1022A
:1026B000EB00EB002D02EB00EB00EB000202EB0065
:1026C000A402EB00EB008307EB00EB00EB00EB0058
:1026D000EB00EB00EB00EB007A01EB00F801D4011A
:1026E0007A017A017A01C702D401CD01EB00D4024C
:1026F000EB006C022F02B502CD01EB0002027E005E
:102700008007EB00EB006107EB007E00A6F13003D1
:1027100000221AF8016B02EB820203EB4202A6F1DF
:102720003003092BF5D90A928EE7DDF824B058461C
:1027300003F01AF843681B931846FDF7E1FF1C905D
:102740000646584603F010F883681993002E40F0AF
:10275000CD869AF8006075E7079D0998294601F033
:10276000ADFC002841F01C83A98901F01A030A2B53
:102770007FF431AF079AB2F90E30002BFFF62BAF82
:10278000536ED80702D4890541F13B810799099816
:1027900023464A4655B0BDE8F04F01F04FBCBAEBB6
:1027A000050600F0CB802A9B33442A93299B0133F2
:1027B000072BC8E90056299305DC08F108080B9B94
:1027C00033440B932AE70799099828AA03F0ACFF32
:1027D00080B90DF1AC08F2E70799099828AA03F02F
:1027E000A3FF002800F09B800D9B1BB109981946A0
:1027F00002F090FE079A536ED90740F1EA80938960
:102800005B0601F1D9820B9855B0BDE8F08F079BAC
:10281000B3F90C20900591B23FF5C4AE1D46986DFA
:1028200002F0AAFFB5F90C2091B2BBE6002E00F031
:10283000858000228DF8EC608DF883200123CDE99E
:102840000C32069308920F92139210923BAD17F040
:10285000020302D006990231069117F0840B07D1CA
:102860000A990698A1EB0009B9F1000F00F37083F3
:102870002A9C8AB1299A0DF1830101320134C8F8EA
:102880000010072A4FF001012A942992C8F8041079
:1028900000F3B68308F1080883B1299B21AA01330C
:1028A0000234C8F80020072B4FF002022A94299323
:1028B000C8F8042000F3B28308F10808BBF1800FC8
:1028C00000F06982089B0C9AA3EB020BBBF1000F8E
:1028D00000F3AA82FB0500F100820C9BC8F80430CB
:1028E0001C44299BC8F800500133072B2A942993D4
:1028F00000F3228308F10808780705D50A9B069A99
:102900009D1A002D00F39683DDE90A2306998A4279
:10291000ACBF9B185B180B93002C7FF45DAF0023BA
:1029200029930D9B1BB10D99099802F0F3FD0DF150
:10293000AC0855462B78002B7FF463AE2A9B002B06
:1029400041F0D3810023299354E70E9B073323F0F2
:102950000702F2E80234CDE91434DDE9143424F03E
:1029600000440E92994618462146B54B4FF0FF326F
:10297000FEF78AFB002840F0EF84B14B4846214621
:102980004FF0FF32FEF762FB002840F0E584DDE9FE
:10299000140100220023FEF74FFB002840F0678758
:1029A0009DF88320A74DA84B27F080070321472ED1
:1029B000C8BF1D4600230D9306910C9108930F93F9
:1029C00013931093002A3FF442AF069B0133069302
:1029D0003DE7079B9B899A053FF512AF079CA06DC9
:1029E00002F0CCFEA3890BE7099802F09BFCD1E52D
:1029F0009AF8006047F0200724E647F01007BA066F
:102A00000E9B40F13B84073323F007031A465B68B3
:102A100052F8084B0E929946002BC0F24C84089B4A
:102A2000013300F0D88254EA090327F0800B40F00C
:102A3000D382089B002B40F0D4825F46002308938A
:102A40000C9354AD1DE10E9B002253F8041B8DF82E
:102A500083208DF8EC100E93F0E60E9C089B54F842
:102A6000045B4FF000098DF88390002D00F09385F2
:102A70005A1C00F051861A4649462846FDF748FD83
:102A80000D90002801F00E810D9BCDF820905B1B6E
:102A90000C930E9423EAE3739DF883200693CDF8FC
:102AA0003490CDF83C90CDF84C90CDF8409089E72B
:102AB00047F0100717F0200900F0D2830E9B073370
:102AC00023F00703D3F8049053F8084B0E9327F430
:102AD000806B002300228DF88320089A511C00F09F
:102AE000B88054EA09012BF0800740F0B180002A39
:102AF00040F0F685002BA1D11BF001030C9300F0F0
:102B0000148430238DF84F310DF24F15B9E00E9B30
:102B100053F8042B0A92002A80F2DA830A9A0E9361
:102B200052420A929AF8006047F004078AE5BD060F
:102B300000F1D184FC0600F1D885780600F1A58665
:102B4000B90540F1D2850E9B0B9953F8042B0E93D7
:102B500011705546EEE69AF800608DF8834071E5F5
:102B60009AF8006047F080076CE5524612F8016B56
:102B70002A2E01F03F82A6F13003092B924698BF1E
:102B8000002201F2BC801AF8016B02EB820203EB17
:102B90004202A6F13003092BF5D9089254E547F01B
:102BA000100B1BF0200900F076830E9B073323F0F7
:102BB0000703D3F8049053F8084B0E93012389E7D9
:102BC0000E9B53F8044B0E93302378268DF88430F7
:102BD0001E4B189347F0020B8DF885604FF00009EB
:102BE000022377E79AF80060682E03BF9AF8016025
:102BF00047F400770AF1010A47F0400722E59AF806
:102C000000606C2E03BF9AF8016047F020070AF1BC
:102C1000010A47F0100715E59AF8006047F0080729
:102C200010E59AF8006047F001070BE59DF8833046
:102C3000002B7FF48EAD9AF800608DF8839001E54B
:102C4000FFFFEF7F6C830008708300087C8300081F
:102C5000BB46012B00F0C081022B54AD20D1189A45
:102C600004F00F032409D35C05F8013D44EA09741C
:102C70004FEA191954EA0903F2D154AB5B1B5F46C2
:102C80000C9308990C989DF8832081424FF0000323
:102C9000B8BF01460D9306910F931393109391E6DD
:102CA00004F00703E40844EA49744FEAD9093033D1
:102CB00054EA09012A4605F8013DF1D11BF0010F44
:102CC000DBD0302BD9D03023023A05F8013C54AB8D
:102CD0009B1A5F460C931546D3E7652E40F3E680BA
:102CE000DDE9140100220023FEF79CF9002800F022
:102CF000DC81299BBF4AC8F800200133013401223E
:102D0000072B2A942993C8F8042000F3CC8408F1F7
:102D10000808229B129A934280F2D682169B179A39
:102D20001C44C8E90023299B2A940133072B2993CB
:102D300000F3248408F10808129B5D1E002D7FF724
:102D4000DBAD102D299BDFF8B09240F3BD844946DE
:102D50002246B946DDF824B0079C10260F4605E050
:102D600008F10808103D102D40F3AA8401331032F9
:102D7000072BC8E90076CDE92932F1DD28AA2146E2
:102D8000584603F0D1FC00287FF42EADDDE929324E
:102D90000DF1AC08E6E70A9B069AA3EB020BBBF128
:102DA000000F7FF78FADBBF1100F299ADFF8489223
:102DB0002CDD1D9621464E46079CDDF824901023FD
:102DC00006E0ABF1100BBBF1100F08F108081ADD9B
:102DD00001321031072AC8E90063CDE92921F0DD6D
:102DE00028AA214648460DF1AC0803F09DFC0028B6
:102DF0007FF4FAACABF1100BBBF1100FDDE9292128
:102E00004FF01003E4DCB1461D9E0C4601325C44D9
:102E1000072ACDE92924C8F80090C8F804B000F3C7
:102E2000A08308F108084DE5BBF1100F299ADFF8DF
:102E3000C8912DDD41462046A8464C46079DDDF849
:102E40002490102306E0ABF1100BBBF1100F01F141
:102E5000080119DD01321030072AC1E90043CDE92C
:102E60002920F0DD28AA2946484603F05DFC002809
:102E70007FF4BAACABF1100BBBF1100FDDE92920E8
:102E80002BA94FF01003E5DC4546A14688460446D1
:102E900001325C44072ACDE92924C8F80090C8F81B
:102EA00004B000F3D08108F1080813E5129B012B50
:102EB00040F38081299EC8F8005001360134012377
:102EC000072E2A942996C8F8043000F37C8308F171
:102ED0000808169B179A01361C44072EC8E90023E0
:102EE000CDE9296400F37C8308F10808DDE91401C9
:102EF00000220023FEF796F8002840F07881129B0C
:102F00000136013B01351C44072EC8F800502996B4
:102F1000C8F804302A9400F35D8108F108081A9B70
:102F2000C8F8043001361C44072E24ABCDE92964CF
:102F3000C8F800307FF7DEAC0799099828AA03F09B
:102F4000F3FB00287FF450AC2A9C0DF1AC08D3E4CD
:102F5000B9F1100FDDE929212BDDCDE91D3B1F96CD
:102F6000DDF824B04E461024A946079D04E0103E2B
:102F7000102E08F1080817DD0132204B1031072A06
:102F8000C8E90034CDE92921F1DD28AA29465846AF
:102F90000DF1AC0803F0C8FB00287FF425AC103E0F
:102FA000102EDDE92921E7DCDDE91D3B4D46B14668
:102FB0001F9EC8F80490013209EB0104072A0F494B
:102FC000C8F80010CDE9292400F351839DF883202F
:102FD00008F108084DE4BB460A2C79F1000380F0A3
:102FE0000C83303401238DF84F415F460C930DF272
:102FF0004F1546E6AC830008C0830008B083000884
:10300000079909981D9328AA03F08EFB00287FF4E6
:10301000EBAB2A9C1D9B0DF1AC083DE40799099888
:1030200028AA03F081FB00287FF4DEAB2A9C0DF177
:10303000AC0843E4102D299B21DD099FDDF81C908D
:10304000102604E0103D102D08F1080817DD0133AB
:10305000BB4A1034072BC8E90026CDE92934F1DD3D
:1030600028AA494638460DF1AC0803F05DFB00285C
:103070007FF4BAAB103D102DDDE92934E7DC0133D4
:10308000AF4AC8F804502C44072BCDE92934C8F8BE
:1030900000207FF739AC0799099828AA03F044FB70
:1030A00000287FF4A1AB2A9C2EE42299002940F34A
:1030B0001481DDF84090129B9945A8BF9946B9F15B
:1030C000000F0BDD299B01334C44072BC8E9005945
:1030D0002A94299300F39A8508F10808109EB9F103
:1030E000000FA8BFA6EB0906002E00F34683DDF80B
:1030F00040B07905AB4400F1CE84229B129A9342F2
:1031000002DBFA0740F1B883169A17991444C8E90C
:103110000012299A2A940132072A299200F3838502
:1031200008F10808129AAE18A6EB0B06D51AAE42A3
:10313000A8BF2E46002E0DDD299BC8F800B0013334
:103140003444072BC8F804602A94299300F3F185CE
:1031500008F10808002EA8BFAD1B002D7FF7CCABEF
:10316000102D299BDFF8DC9140F3AE8249462246C0
:10317000B946DDF824B0079C10260F4605E008F19B
:103180000808103D102D40F39B8201331032072BAD
:10319000C8E90076CDE92932F1DD28AA2146584652
:1031A00003F0C2FA00287FF41FABDDE929320DF1EC
:1031B000AC08E6E7FE073FF57DAE299EC8F8005053
:1031C000013601340123072E2A942996C8F80430C9
:1031D0007FF7A3AE0799099828AA03F0A5FA00285B
:1031E0007FF402ABDDE929640DF1AC0897E6129B90
:1031F0005D1E002D7FF793AE102DDFF8489140F350
:103200007F8222460897099C079F4FF0100B05E02C
:1032100008F10808103D102D40F37082013610327D
:10322000072EC8E9009BCDE92962F1DD28AA3946BD
:10323000204603F079FA00287FF4D6AADDE9296256
:103240000DF1AC08E6E70799099828AA03F06CFA93
:1032500000287FF4C9AA2A9C0DF1AC08FFF73ABBFD
:1032600017F0100372D117F0400200F0BD820E9AE1
:1032700052F8044B0E929946A4B228E453F8044B3A
:103280000E93FB0656D47D0651D544F3C0394B4608
:1032900024B2FFF7C1BB1BF0100340F036811BF0D6
:1032A000400200F092820E9A52F8044B0E92994618
:1032B000A4B201230EE42D2364428DF8833069EB20
:1032C0004909BB46012308E4F8077FF515AB25E55E
:1032D0009AF800600E93FFF7B5B9299B1A4AC8F80F
:1032E0000020013301340122072B2A942993C8F8C6
:1032F000042000F3708408F10808002940F01E82C1
:10330000129A07F0010313433FF4F6AA169B17998C
:10331000E218C8E90013299B2A920133072B29934D
:1033200000F3618308F1080819E254ADA9E4B80577
:1033300000F1B4824FEAE4794B46FFF76DBB00BF62
:10334000B0830008C0830008AC8300080E9B53F8CC
:10335000044B0E93FFF7BBBBDDE9140102460B469D
:10336000FDF792FE002840F0A085612E00F0508508
:10337000412E00F09982089B013326F0200306932A
:1033800000F08F85472B00F07985DDE9141247F4B2
:1033900080730F931346002BC0F2ED850C9300232E
:1033A0001D938B460D93069B462B00F04A84452BBC
:1033B00000F04F850899019126A9049123A9039152
:1033C00022A9029102210C9B099800915A4600F013
:1033D00083FF069B472B054640F01C8617F0010F24
:1033E000B9460F9F40F0D984269B5B1B1293069B26
:1033F000472B00F01883069B462B00F05F84229B2E
:103400001093109B069A013B412A229300F0AA8553
:10341000F2B20021002BB8BF109B8DF89020BABFEC
:10342000C3F101032D222B22092B8DF8912040F3AB
:1034300063850DF19F04BD4F2246104687FB032193
:10344000DA17C2EBA10202EB8201A3EB410130319A
:1034500000F8011C19466329134600F1FF32ECDC29
:103460003033D9B2831E9C4202F8011C40F2CE8553
:1034700013460DF1920201E013F8011B02F8011B43
:103480009C42F9D10DF1A1030DF192021B1A1344D4
:1034900024AA9B1A1A93129B1A9A012B1A440C9273
:1034A00040F372850C9B169A13440C930C9A0023DC
:1034B00029F4806722EAE27247F480770F9306923C
:1034C000139310931D9B002B40F0DE829DF8832008
:1034D0000893FFF777BA0E9B0B9853F8041B0E93D3
:1034E000C217C1E900025546FFF724BA199B002B09
:1034F0003FF42FA9199B1B78002B3FF42AA99AF8B7
:10350000006047F48067FFF79DB80E9B53F8044BAB
:103510000E930123FFF7DEBA854B189317F02009AD
:1035200049D00E9B073323F00703D3F8049053F8D8
:10353000084B0E93F80709D554EA090306D0302347
:103540008DF8856047F002078DF8843027F4806B92
:103550000223FFF7BFBABB46FFF723BB754B189397
:10356000DCE70799099828AA03F0DEF800287FF421
:103570003BA92A9C0DF1AC08FFF7A4B9079909985B
:1035800028AA03F0D1F800287FF42EA92A9C0DF177
:10359000AC08FFF7D1BB062B294628BF06230895A8
:1035A0000D952A460693644D0E940C930F9113913A
:1035B0001091FFF707BA17F0100369D00E9B53F86C
:1035C000044B0E93B6E70799099828AA03F0ACF8C4
:1035D00000287FF409A9DDE929640DF1AC0878E43D
:1035E0000799099828AA03F09FF800287FF4FCA8FF
:1035F000DDE929640DF1AC0878E40BF48063002266
:10360000CDE90CA80696DDF8648054AF16469A46BC
:103610000CE00023204649460A22FCF7F1FD0A2C63
:1036200079F100031BD3044689462F4620460A221F
:1036300000234946FCF7E4FD30327D1E013607F8D1
:10364000012CBAF1000FE4D098F800309E42E0D18E
:10365000FF2EDED00A2C79F1000380F0F480CDF843
:1036600064801296DDE90CA8069EFFF706BB079959
:1036700009981D9328AA03F057F800287FF4B4A8EE
:103680009DF883202A9C1D9B0DF1AC08FFF7F1B833
:1036900017F0400200F0B6800E9A52F8044B0E92DA
:1036A0009946A4B246E70799099828AA03F03CF87E
:1036B00000287FF499A82A9C0DF1AC08FFF729BBDC
:1036C00014463A464F46914601332C44072BC8F81E
:1036D0000090C8F80450CDE929347FF70BA92BE4FA
:1036E000012BBB467FF4B8AA7BE40E9B0B9953F8E1
:1036F000042B554611600E93FFF71CB9089F144622
:1037000001362C44072ECDE92964C8F80090C8F88A
:1037100004507FF702AC5DE52846CDF820900E946A
:10372000FCF7EEFF03460C90FFF7B4B967666666D8
:103730007C83000890830008A4830008169B1798D8
:10374000E218C8E90003299B2A920133072B299329
:1037500000F3498108F108080029C0F2FA821299A1
:10376000C8F8005001338C18072BCDE92934C8F86C
:1037700004107FF7BFA8FFF7DFBB102E299BDFF8EF
:10378000C09252DD484642462146A846B946099CA9
:10379000079D4FF0100B074603E00832103E102E35
:1037A0003DDD01331031072BC2E9007BCDE9293122
:1037B000F3DD28AA2946204602F0B6FF00287FF450
:1037C00013A8DDE929312BAAE8E70E9B1BF4007949
:1037D00014BF53F8044B53F8044B0E931CBF91468F
:1037E000E4B20123FFF776B90E9B17F4007914BFFA
:1037F00053F8044B53F8044B0E931CBF9146E4B2AC
:10380000FFF765B90E9B17F4007914BF53F8044B0A
:1038100053F8044B0E931CBF9146E4B28AE645462A
:1038200090463A460C464F46914601333444072BA6
:10383000CDE92934C8F80090C8F8046000F3E680A8
:1038400008F1080853E41C9B1B99ED1A1A462846F8
:1038500002F0FCFE98F801300BB108F10108204697
:1038600049460A2200230026FCF7CAFCDBE62D228B
:103870008DF88320FFF796B8129AAE18A6EB0B06C8
:10388000D51AAE42A8BF2E4664E40E9B0B9953F89E
:10389000042B0E9311805546FFF74CB844F3C01922
:1038A0004B4664B2FFF7B8B830238DF88430582304
:1038B0008DF88530089B632B47F0020400F39B8250
:1038C00000230D933BADDDE9141247F481730F9390
:1038D0001346002B2746C0F220820C9326F02003CB
:1038E000069300238B461D93612E00F0ED82412E3E
:1038F0007FF459AD22AA0C99584602F017FE002217
:103900004FF07F53FDF726F902460B46CDE9102311
:1039100000220023FDF786FB08B101232293494BC7
:103920000C93089BCDE912A6CDE91E78DDF830A0F6
:10393000DDE9106703F1FF39AB46109506E0002280
:10394000002309F1FF39FDF76DFBE8B93E4B00227A
:1039500030463946FDF7FEF80F460646FDF7AAFB4E
:103960000446FDF78DF80B46024639463046FCF713
:1039700039FF1AF80430B9F1FF3FD8464D460BF82D
:10398000013B06460F46DAD1304639462F4BDDF86B
:1039900048A0139ECDF848800022A946DDF87C801F
:1039A000109D1E9FCDE91001FDF764FB002840F03B
:1039B0003482DDE91001254B0022FDF733FB10B105
:1039C000E10700F12A824B46002B06DB01335B4402
:1039D00030220BF8012B5B45FBD1ABEB0503B9465D
:1039E00012930F9F03E50799099828AA02F09CFEFD
:1039F00000287EF4F9AEDDE9293222990DF1AC08F8
:103A0000AAE6906D01F0BAFEFEF7C0BE07990998CC
:103A100028AA02F089FE00287EF4E6AE2A9C0DF169
:103A2000AC08FFF764BB229B1093DA1C02DB089AF8
:103A300093420DDD023E26F020030693E1E400BF31
:103A4000C083000890830008000030400000E03F81
:103A5000109B129A9342C0F2568119F0010F00F0A8
:103A60008782169A13440C9319F4806F03D0109B2D
:103A7000002B00F350820C9B23EAE3730693672626
:103A800000230F9313931DE52D2200238DF883202F
:103A90000893FEF79ABF129BCDF830A04246DDF89E
:103AA0004C801097EB1808935E46199FDDF87090D4
:103AB000DDF824A0DDF81CB00F9B13952146B8F16A
:103AC000000F2ED0002B6BD1013F08F1FF381B9B5C
:103AD000C2E90039299B01334944072B2A912993D4
:103AE00062DC0832089B38789B1B8342A8BF0346E0
:103AF000002B1C460ADD2998013019440728C2E929
:103B000000632A9129905ADC38780832002CACBF27
:103B1000051B0546002D15DC06440F9BB8F1000F70
:103B2000D0D1002B3CD1DDE91235EB189E4219971C
:103B3000B346DDF830A0109F90460C4628BF9B4648
:103B4000FFF7DBBA102D29981DDD102404E0103D8D
:103B5000102D02F1080216DD0130AC4B10310728A0
:103B6000C2E90034CDE92901F1DD28AA59465046C1
:103B700002F0DAFD00287EF437AE103D102DDDE9AD
:103B800029012BAAE8DC0130A04B55602944072805
:103B9000CDE9290113602CDC387808320644BCE7F3
:103BA0000F9B013B0F9392E728AA5946504602F01B
:103BB000BBFD00287EF418AE2A992BAA92E728AA0A
:103BC0005946504602F0B0FD00287EF40DAE38781C
:103BD0002A992BAA9AE70799099828AA02F0A4FD26
:103BE00000287EF401AE22992A9C0DF1AC08FFF763
:103BF00084BB28AA5946504602F096FD00287EF460
:103C0000F3AD38782A992BAA064486E707990998D4
:103C100028AA02F089FD00287EF4E6AD2A9C0DF169
:103C2000AC08FFF75BBA0799099828AA02F07CFD57
:103C300000287EF4D9AD229B2A9C0DF1AC08FFF739
:103C400071BA0899019126A9049123A9039122A987
:103C5000029103210C9B099800915A4600F03CFB0D
:103C60000378302B054600F09581229B089AB946CF
:103C700013440F9FEC180C99584600220023FDF7BF
:103C8000D1F910B12346FFF7B0BB269BA342BFF486
:103C9000ACAB30215A1C26921970269B9C42F9D855
:103CA000FFF7A3BB089B9DF883200E9406930C930B
:103CB00008900F9013901090FEF784BE229A1092F5
:103CC000002A40F38181089909F001030B4340F079
:103CD0005581109B0C93662619F4806F40F01C816F
:103CE0000C9B23EAE3730693CAE60799099828AA6E
:103CF00002F01AFD00283EF425AEFEF77BBD00233E
:103D00000893FEF7A1BC129B169A9A18109B0C926E
:103D1000002B40F34D816726DEE726F02003069353
:103D2000DDE914349B4604F100430C932D231D93CD
:103D3000DAE50799099828AA02F0F6FC00287EF433
:103D400053AD229D129B2A9C5D1B0DF1AC08FFF721
:103D500001BA4E421031DFF8B49034DA4146DDF852
:103D600024B0A8461024079D03E00831103E102E11
:103D700027DD01331032072BC1E90094CDE9293248
:103D8000F3DD28AA2946584602F0CEFC00287EF42E
:103D90002BADDDE929322BA9E8E7089BEC186AE78F
:103DA000079B5B6EDD0707D4079B9B899C0503D4AB
:103DB000079B986D01F0E2FC4FF0FF330B93FEF789
:103DC00022BD4546884601333244072BCDE92932CE
:103DD000C8F80090C8F804607FF7A4AA079909986A
:103DE00028AA02F0A1FC00287EF4FEACDDE929320D
:103DF0000DF1AC08B3E40998591C01F031FD0546FA
:103E0000002800F00D810D905DE500BFC083000823
:103E100030238DF8843078234AE5129B26930C9B3F
:103E20001BF8012CD97B8A425B4609D1302003F86C
:103E3000010C269B5A1E269213F8012C9142F6D0B3
:103E4000392A0BBF0C9A0132927AD2B203F8012CB4
:103E5000C3E508990C9B09984C1C26A9049123A939
:103E6000039122A9029102215A460194009100F087
:103E700033FA0546B9462C440F9FFCE6089B002BFD
:103E800008BF0123089347F480730F93159B002B01
:103E9000C0F2AE80DDF850B01D900C930D90FFF78E
:103EA00089BA06230893FFF770BA159B604D002B63
:103EB000B4BF2D229DF883205E4BB8BF8DF88320C0
:103EC00027F08007FEF772BD22AA0C99584602F02F
:103ED0002DFB00224FF07F53FCF73CFE02460B46C1
:103EE000CDE9102300220023FDF79CF808B101233F
:103EF0002293514B0C9314E5002962D130228DF8A6
:103F000092200DF19302303302F8013B24ABD31A17
:103F10001A93FFF7C0BA672619990B78FF2B7BD04D
:103F20000024109A204603E001300131FF2B08D015
:103F3000934206DAD21A4B78002BF5D10B78013474
:103F4000F4E71991109213900F940F9A139B1C99F8
:103F500013440C9A01FB03230C9323EAE3730693A7
:103F6000FFF7B0BA06F10F02D2B20121FFF752BA41
:103F7000109B0C9378E500230D93D1E6169BD31884
:103F800019440C916626A7E619F0010F3FF48EAA9A
:103F9000FFF788BA0C99584600220023FDF742F833
:103FA00000287FF462AE089BC3F1010322935DE613
:103FB000C3F101031A4422EAE2730C9206936726C6
:103FC0005EE50DF192029EE7089A09F0010959EAAF
:103FD000020304D10123069366260C9350E5169B39
:103FE00001331A4422EAE2730C920693662647E5EF
:103FF0000D9095E60E9B9AF80160924653F8042BBB
:104000000E9342EAE2720892FEF71CBB02231A9357
:10401000FFF741BA089C2DE700230F93139394E711
:10402000079A938943F040039381FEF7E3BB00BFF7
:1040300074830008788300087C830008F0B51F466D
:104040008B89ADF26C4D23F00203ADF80C304B6E52
:104050001993CB89ADF80E30CB6907934B6A09935E
:104060001AAB009304934FF48063154606460293FF
:10407000059316A800230C46069301F079FB2A4607
:104080003B4669463046FEF76FFA051E07DB694678
:10409000304601F013F9002818BF4FF0FF35BDF886
:1040A0000C305B0603D5A38943F04003A381169827
:1040B00001F060FB28460DF26C4DF0BD38B5334B76
:1040C0001B6805460C460BB19A6B12B3B4F90C3061
:1040D00018079AB225D5216900292DD012F00100C8
:1040E00007D00020A06060694042A06139B1002083
:1040F00038BD950758BF6069A0600029F7D1120646
:1041000058BF0846F4D543F04003A3814FF0FF3079
:1041100038BD184601F006F9B4F90C3018079AB208
:10412000D9D4D1062AD5520714D4216943F0080303
:10413000A3819AB20029D1D102F42070B0F5007F9A
:10414000CCD02146284601F01BFBB4F90C30216984
:104150009AB2C3E7216B51B104F14002914204D0FD
:10416000284601F0D7F9B4F90C3000222263216906
:104170000022C4E9001223F02403D7E7092243F008
:1041800040032A604FF0FF30A38138BD2400002097
:10419000024B13B1024800F005B870470000000060
:1041A00049540008002301461A46184603F0ECB9AA
:1041B0002DE9F04F03690C69A34283B0C0F28680F9
:1041C000013C01F11405A30000F11408009355F817
:1041D000243058F8242001338A469A4208EB84019F
:1041E000814605EB84070191B2FBF3F638D3002337
:1041F000AE4640469B465EF8041B02681FFA81FCEF
:1042000006FB0C33090C4FEA134C06FB01CC99B2A8
:10421000ABEB01011FFA8CF311FA82F1C3EB1242EE
:1042200002EB214289B241EA0241774540F8041B82
:104230004FEA1C434FEA224BDDD2009B58F8033073
:1042400073B9019B043B984504D307E0984504F1FA
:10425000FF3403D253F80429002AF7D0C9F81040DC
:104260005146484602F03AF800282BDB013640461A
:10427000002355F8041BD0F800C08AB29A1A0B0C20
:1042800012FA8CF2C3EB1C4303EB224392B242EAD4
:104290000342AF4240F8042B4FEA2343E9D258F8D7
:1042A000242008EB84036AB9043B984504D307E053
:1042B000984504F1FF3403D253F80429002AF7D0BB
:1042C000C9F81040304603B0BDE8F08F002003B0BD
:1042D000BDE8F08F000000002DE9F04F016C99B0AF
:1042E00090469946CDE90489259D044641B1426C2A
:1042F0004A60012393408B6001F094FD0023236406
:10430000B9F1000AB4BF012300232B60764BBCBF78
:104310002AF0004ACDF814A033EA0A0300F0AA807C
:10432000DDE904231046194600220023CDE90A01E5
:10433000FCF778FE074670B1249A01231360269B90
:10434000002B00F0E48269481860431E0393039831
:1043500019B0BDE8F08F16AB019317AB0093204660
:10436000DDE90A2302F080F85FEA1A56054640F0BC
:104370009780DDE916763E4406F23240202840F36D
:10438000B583C0F140000AFA00FA06F2124028FA9A
:1043900000F04AEA0000FCF763FB0123013EA1F1B3
:1043A000F8710F93524B0022FCF71CFA48A3D3E993
:1043B0000023FCF7CFFB48A3D3E90023FCF714FA52
:1043C000804630468946FCF75BFB45A3D3E90023D2
:1043D000FCF7C0FB02460B4640464946FCF704FA90
:1043E00080468946FCF766FE00228346002340464D
:1043F0004946FCF721FE002840F07C82BBF1160FF5
:1044000000F26B823B4B03EBCB03D3E90023DDE9E6
:104410000A01FCF711FE002872D00023BE1B0E9388
:10442000731E0BF1FF3B069300F15E82002309939C
:10443000BBF1000F6BDA099BCDF81CB0A3EB0B03AB
:104440000993CBF100030D93229B092B4FF0000B36
:1044500066D8052B40F34883043B22930026229B19
:10446000023B032B00F26886DFE813F05C0459047A
:1044700050043304249A42F20F73CAF3130A1360F0
:104480005AEA08031AD1269B002B00F064861A4BC7
:1044900003930833269A0398136019B0BDE8F08F90
:1044A000DDE90A12C2F31303084643F07F510F9768
:1044B000A6F2FF36169F41F4401173E7269B002BAE
:1044C00040F0EA830D4B039341E700BFAFF3008058
:1044D00061436F63A787D23FB3C8608B288AC63F0A
:1044E000FB799F501344D33F0000F07FAD83000859
:1044F0000000F83F20850008D4830008D08300081E
:10450000BE1B731E069300F185840E900990069BD6
:104510005B44CDE9063B00230D93229B092B98D9E0
:104520000023CDE9223301264FF0FF330C96089388
:10453000089B129300216164204601F04DFC03901A
:10454000002800F00186039B2364089B0E2B00F2D9
:104550001381002E00F010810799002940F35C843C
:10456000AE4B01F00F0203EBC2034FEA2118C9055D
:10457000D3E9006740F11484A94BDDE90A01D3E9CE
:104580000823FCF711FCCDE9100108F00F084FF0EB
:10459000030AB8F1000F13D0DFF8849218F0010F6E
:1045A00009D030463946D9E90023FCF7D3FA0AF19D
:1045B000010A06460F465FEA680809F10809EDD1CD
:1045C000DDE9100132463B46FCF7EEFB80468946AA
:1045D0000E9B43B1934B002240464946FCF72CFD0D
:1045E000002840F030855046FCF74AFA42464B46D8
:1045F000FCF7B0FA8C4B0022FCF7F6F8A1F15073EF
:10460000CDE910011193089B002B00F09780079BC8
:104610001493089B13930C9B002B00F0A584139A12
:104620007E4B8249039E03EBC20353E90223002021
:10463000FCF7BAFBDDE91023FCF7D4F8CDE9100153
:1046400049464046FCF736FD0746FCF719FA024694
:104650000B4640464946FCF7C5F83037DDE91023E4
:1046600006F8017B80468946FCF7E6FC002840F00E
:104670002985CDF854B00027DDE910AB1095139DC6
:1046800013942AE00137AF4280F22C85684B5046E4
:1046900059460022FCF75EFA654B002282468B46A3
:1046A00040464946FCF756FA89468046FCF702FD2B
:1046B0000446FCF7E5F902460B4640464946FCF73E
:1046C00091F8303406F8014B52465B4680468946E5
:1046D000FCF7B2FC002840F0F38442464B465149B7
:1046E0000020FCF77FF852465B46FCF7A5FC00284B
:1046F000C8D0DDE91343109D039A079302E0964268
:1047000000F0C884B24616F8013D392BF7D00133CA
:10471000DBB23370079B01330793C8E15046FCF7C7
:10472000AFF942464B46FCF715FA3F4B0022FCF727
:104730005BF8A1F15073CDE9100111933D4B404658
:1047400049460022FCF74EF8DDE910894B46424607
:1047500006460F46FCF78EFC8146002840F0AA84EE
:10476000DDE91001024601F1004330463946FCF70D
:1047700063FC002840F04583179B002BC0F28C801F
:10478000079A0E2A00F38880244B03EBC203D3E977
:1047900000AB239B002B1BDA089B002B18DC40F09E
:1047A0002E83244B002250465946FCF7D3F902468B
:1047B0000B46DDE90A01FCF749FCDDF820904E4686
:1047C000002800F0C782239BDDF80C80DF43C9E29C
:1047D000DDE90A7852465B4638464146FCF7E4FA82
:1047E000FCF768FC81460990FCF74AF952465B46A3
:1047F000FCF7B0F9039E0B46024641463846FBF7EC
:10480000F1FF09F1300306F8013B089B012B00F092
:104810005C830694012704951C462AE02085000845
:10482000F88400080000F03F00001C400000E03F5A
:10483000000024400000144052465B464046494672
:10484000FCF7B2FAFCF736FC0546FCF719F95246BC
:104850005B46FCF77FF901370B4602464946404666
:10486000FBF7C0FF05F13003A74206F8013B00F05B
:104870002983AC4B0022FCF76DF90022002380460F
:104880008946FCF7CFFB0028D6D0049D069C079BE9
:1048900001330793B2460AE10C9A002A3DD0229ACE
:1048A000012A40F39C82089B03F1FF380D9B43458E
:1048B000C0F26D82A3EB0808089B002BC0F23C837A
:1048C000069A1A440692099A17461A440992012137
:1048D000204601F04FFB064623E00123BE1B0E934A
:1048E000731E06937FF5A2ADC6F101030993002361
:1048F00006939DE55846FCF7C3F842464B46FCF745
:1049000091FB00287FF47AAD0BF1FF3B76E5864BF7
:104910000393039819B0BDE8F08FDDF83480099F48
:104920000C9E002F0CDD069900290B4608DD099A24
:10493000B942A8BF3B46D21AFF1ACB1A0992069376
:104940000D9BDBB10C9B002B00F05D82B8F1000FDA
:104950000FDD31464246204601F0E8FB2A4601467B
:104960000646204601F034FB29460546204601F064
:1049700059FA0D9BB3EB080240F0D8820121204682
:1049800001F0F8FABBF1000F814600F3B480229BDE
:10499000012B40F386814FF0000A0120BBF1000F8C
:1049A00040F0B580069A104410F01F0000F093808C
:1049B000C0F12003042B40F3D283099BC0F11C00FB
:1049C00003440244099307440692099B002B05DD2A
:1049D00029461A46204601F009FC0546069B002B95
:1049E00005DD49461A46204601F000FC81460E9B33
:1049F000002B40F03681089B002B40F31D810C9B5F
:104A0000002B40F0A080079B01330793DDF80C805A
:104A1000DDF820A0012707E0294600230A222046CE
:104A200001F00AFA0137054649462846FFF7C0FB60
:104A3000574500F1300308F8013BEDDB089A002AE6
:104A4000C8BF9346039AD8BF4FF0010B9344002789
:104A5000294601222046049301F0C8FB4946054639
:104A600001F03CFC002840F3A8811BF8013C039AAC
:104A70000BF1FF3B04E05A4500F0AA811BF8013D11
:104A8000392B0BF1010AF6D001338BF8003049467F
:104A9000204601F0C7F956B12FB1B74203D03946CD
:104AA000204601F0BFF93146204601F0BBF9294606
:104AB000204601F0B7F900238AF80030249B079ABA
:104AC0001A60269B002B3FF442AC0398C3F800A069
:104AD00019B0BDE8F08F1C20099B03440993069B85
:104AE00003440744069370E70126B8E4C0F12000B0
:104AF00008FA00F04FE401465A46204601F016FB42
:104B0000229B012B814640F3B3814FF0000AD9F874
:104B1000103009EB8303186901F0DEF9C0F12000C1
:104B200040E700BF00002440AC830008314600236A
:104B30000A22204601F080F9129B002B064640F322
:104B4000E782CDE90783002F00F31A81BAF1000F45
:104B500040F0D581B046049B039F089903F0010201
:104B60007B1E1944229B0C92134309910A934946D8
:104B70002846FFF71DFB31468346284601F0AEFB71
:104B8000424649468246204601F0C8FBC2680146BB
:104B90000BF13003002A42D106902846089301F019
:104BA0009DFB06990490204601F03CF9049A089B6D
:104BB0001AB90A99002900F09B82BAF1000FC0F2DD
:104BC000638122994AEA010A0C9951EA0A0100F02C
:104BD0005B81002A00F3B481099A3B7007F1010A56
:104BE0009742D34600F0B281294600230A2220468C
:104BF00001F022F94645054631464FF000034FF0DB
:104C00000A02204612D001F017F941460646002359
:104C10000A22204601F010F957468046A7E72046B1
:104C2000049301F0FFF8049B0122C6E701F004F9A8
:104C30005746064680469AE7229B022B79DC0C9B5E
:104C4000002B80D1079B4946013328460793FFF785
:104C5000AFFADDF80CB000F130030BF8013B002790
:104C6000F6E64946284601F039FB0028BFF6C3AEF8
:104C7000294600230A22204601F0DEF8079B03F1B3
:104C8000FF380C9B0546002B7FF450AF129B002B86
:104C900040F335820893B9E6AF4B03930333FFF734
:104CA000F9BBDDE9041200297FF475AEC2F31303EA
:104CB000002B7FF470AEA94B1340002B00F0FE8157
:104CC000099B01330993069B013306934FF0010AB8
:104CD00063E601230C93239B079A13441293013339
:104CE000012B1F460893B8BF01270021172F6164CD
:104CF0007FF722AC012204235B0003F11400B842C9
:104D0000114602F10102F7D9616415E401230C9305
:104D1000239B002B4CDD129308931F46E5E70023ED
:104D20000C93D8E700230C93F2E7129BCDF81C807C
:104D30000893089B002B7FF446AD49460522204688
:104D400001F07AF801468146284601F0C7FA0028AA
:104D50007FF739AD0398079F3123804600F8013B68
:104D6000013703904946204601F05CF87B1CDDF8D2
:104D70000CA00793CDF80C80002E7FF494AE96E63D
:104D800031463A46204601F031FA0646DEE60D9BF2
:104D9000CDF83480A8EB03039B444FF000088BE56B
:104DA000DDE90A234FF0020ACDE91023FFF7F1BB3A
:104DB000012323930893FFF7BBBB03D1049BDB07BD
:104DC0003FF553AEDA461BF8013D302BFAD05EE6D4
:104DD000079B039A013307933123137057E60F9A09
:104DE000002A00F0268103F23343069ADDF834806E
:104DF0001A440692099A17461A44099267E54FF039
:104E000000094E46DFE429460D9A204601F08EF94E
:104E10000546B3E50E9067E500F00F81079A504B09
:104E2000564206F00F0203EBC203D3E90023DDE98B
:104E30000A01FBF78FFE36118046894600F071812A
:104E4000484F00234FF0020AF20706D5D7E90023A6
:104E5000FBF780FE0AF1010A0123761007F108072B
:104E6000F2D1002B3FF4B4AB80468946FFF7B0BBCC
:104E7000049B002B7FF449AEDDE90412C2F3130357
:104E8000002B3FF418AF40E6002A12DD294601222C
:104E90002046049301F0AAF94946054601F01EFA9E
:104EA0000028049B40F31881392B00F0F9800BF1A6
:104EB0003103BA460AF8013B079B01333746079393
:104EC0004646E4E50995069C049D02460B46FBF721
:104ED0008BFC52465B4680468946FCF7CBF860B9AE
:104EE00052465B4640464946FCF79CF800283FF492
:104EF000CEAC099BD9077FF5CAAC039A02E471686E
:104F0000204600F069FF0746002800F00E81336953
:104F100002339A0006F10C010C30FBF749FB3946CD
:104F20000122204601F062F9804614E62946204617
:104F300001F0FCF8054621E5DDE908239F1AC6E4E7
:104F4000392B00F0AD80BA460133B3E7079A01323E
:104F50003746079246467BE5D08300080000F07F85
:104F600020850008F8840008DDF84CA0844901EB96
:104F7000CA01DDE9102351E90201FBF7EBFDCDE9A0
:104F8000100149464046FCF795F80646FBF778FDC8
:104F90000B46024649464046FBF724FC039F534616
:104FA0003036012B07F8016B8046894600F0AE8051
:104FB000139E039B1E44734B002240464946FBF759
:104FC000C9FD89468046FCF775F88246FBF758FD17
:104FD0000AF1300A02460B4640464946FBF702FCFE
:104FE00007F801ABB74280468946E4D1664B002200
:104FF000DDE91001FBF7F8FB42464B46FCF71CF8D5
:10500000002864D1DDE910235F490020FBF7EAFBAB
:1050100042464B46FCF72EF800283FF4ADABB246B3
:10502000013E1AF8013C302BF9D0149B0133079351
:105030003DE5169BC3F13603D7E6DDE90A894FF05B
:10504000020AFFF7C5BA089B002B3FF467AB129B1F
:10505000002B7FF791AB079A013ACDE91332404616
:10506000484B00224946FBF775FD804689460AF108
:105070000100FBF705FD42464B46FBF76BFD434B3A
:105080000022FBF7B1FBA1F15073CDE910011193A0
:10509000FFF7C1BA079B013307933123FFF739BBF1
:1050A000079BBB4601330793392337460BF8013B77
:1050B0004646DCE44FF000094E464BE69A466CE467
:1050C000109D139C149B01330793B246EFE4149B8D
:1050D000039A0793FFF716BB7FF4EBAEDA077FF571
:1050E000E8AEE1E6DDF854B0109D139CFFF744BB39
:1050F000392BD5D0BAF1000F3FF7D9AED9E6229BB4
:10510000022B3FF712AECDF81C809BE53E466DE7C3
:10511000229B022B3FF709AE129BCDF81C8008930F
:1051200011E54FF0020AFFF753BA194B19483A46F6
:1051300040F2EA2102F06EFA00266664314620460B
:1051400000F04AFE039078B9114B124800224FF448
:10515000D57102F05FFA104B0393FFF7F8B83FF4F4
:1051600034ACC0F13C00B7E4039B236401224FF050
:10517000FF33239612930C920893FFF7FDBA00BFFA
:1051800020850008000024400000E03F00001C4093
:10519000E0830008F4830008D4830008B1F90C20F0
:1051A000F8B50C461107074642D4636842F4006222
:1051B000002BA28159DDA56A002D54D000233E6842
:1051C0003B6093B212F4805253D1E1690123384617
:1051D000A847421C63D0A389A56A5B0705D563680D
:1051E000C01A236B0BB1E36BC01AE16902460023BE
:1051F0003846A847411C3ED13B68002B3BD01D2BB5
:1052000001D0162B52D1A3892269226023F40063B6
:1052100000216160A381216B3E6021B304F1400352
:10522000994202D0384600F075F900202063F8BD9D
:105230002669C6B193B2256826609A070CBF6369D8
:105240000023AD1BA3600CE0D4F824C0E1692B4619
:1052500032463846E047B0F1000CA5EB0C05664439
:1052600016DD002DF0DC0020F8BDE36B002BA2DC86
:10527000F9E7206DB1E7B4F90C302269226023F41C
:105280000063A3810022DB046260C4D52065C2E70D
:10529000A38943F040034FF0FF30A381F8BD3B6882
:1052A000002B98D01D2B06D0162B04D0A38943F0D9
:1052B0004003A381F8BD3E60D5E700BF38B50C467A
:1052C000054608B1836BA3B1B4F90C00B8B1636EA5
:1052D000DB0701D4810515D528462146FFF75EFF7F
:1052E000636EDA07054602D4A3899B050ED52846CE
:1052F00038BD00F017F8B4F90C000028E7D10546D6
:10530000284638BDA06D00F037FAE5E7A06D00F043
:1053100035FA284638BD00BF014900F001BA00BF88
:10532000F17600082DE9F0478246394800F024FA6A
:10533000DAF83840002C66D1DAF80450354ACAF859
:105340003C200323CAE9B843DFF8CC90DFF8CC80D7
:10535000334F344E04230AF53B72CAF8E822214643
:10536000C5E90243C5E90044C5E904446C66082266
:10537000AC6105F15C00FDF791F8C5E90759C5E995
:105380000987EE6205F1580000F0F2F9DAF80850EA
:10539000254BEB602146C5E90044C5E904446C6631
:1053A000AC60AC61082205F15C00FDF777F8C5E957
:1053B0000759C5E90987EE6205F1580000F0D8F9F0
:1053C000DAF80C50194BEB602146C5E90044C5E9F9
:1053D00004446C66AC60AC61082205F15C00FDF72A
:1053E0005DF805F15800C5E90759C5E90A76C5F821
:1053F000248000F0BDF90123CAF838300448BDE824
:10540000F04700F0BBB9BDE8F047014800F0B6B97D
:105410000C0B002019530008C1650008E565000861
:105420002566000845660008090001001200020018
:10543000014800F0A1B900BF080B0020014800F0AE
:105440009DB900BF080B002038B5084B084D5B1B09
:105450009C1007D0043B1D44013C55F80439984783
:10546000002CF9D1BDE8384002F068BF7C87000805
:1054700078870008F8B5244F0C46064600F0A0FCDB
:10548000BA685568C4F57E630F3325F003052B44D5
:1054900023F47F6323F00F03A3F58054B4F5805FFA
:1054A00007DB0021304601F079F8BB682B449842B5
:1054B00004D0304600F08AFC0020F8BD614230463E
:1054C00001F06CF801300DD0104ABB682D1B45F07F
:1054D00001055D60136830461B1B136000F076FC0D
:1054E0000120F8BD0021304601F058F8BA68831A4F
:1054F0000F2BDEDD43F001035360054B03491B68AE
:10550000C01A0860D5E700BF54040020100B00202B
:105510005C080020002961D0F8B50C46064600F072
:105520004FFC54F8042C7B4FA4F1080522F0010134
:1055300005EB010CB868DCF80430604523F0030388
:1055400000F08B80D207CCF8043032D454F8082C09
:10555000AD1A1144AA6807F1080082426AD00CEB28
:105560000304D4F804E0EC68D4601EF0010FA260DC
:1055700000F0978041F001036B60CCF80010B1F5AA
:10558000007F35D27A68CB08480901210133814078
:105590001143796007EBC30257F83310083AC5E9A5
:1055A000021247F83350CD603046BDE8F84000F0B5
:1055B0000DBC0CEB03025268D00710D4194407F15C
:1055C0000800DCF80830834273D0DCF80C20DA6085
:1055D000936041F001036B606950D0E7704741F080
:1055E0000103B1F5007F44F8043CCCF80010C9D3A6
:1055F000B1F5206F4FEA512348D28B0903F13900EE
:1056000003F13802C300F818FB580838984259D003
:105610005A6822F003028A4202D99B689842F7D165
:10562000D868C5E902308560DD603046BDE8F840E5
:1056300000F0CCBB0CEB03025268D20763D40B44DE
:10564000DCE90212CA60916043F001026A603046F0
:10565000EB50BDE8F84000F0B9BB0B44D10707D4CC
:1056600054F8082CAD1A1344D5E90212CA609160AF
:1056700043F001026A60284ABD6012689A4293D8DA
:10568000264B30461968FFF7F5FE8DE7142B0AD933
:10569000542B1FD80B0B03F16F0003F16E02C300F4
:1056A000B1E719448DE703F15C0003F15B02C3002D
:1056B000A9E741F00103C7E90455C5E902006B60A1
:1056C000695071E779689210012404FA02F20A43E2
:1056D0007A60A6E7B3F5AA7F06D8CB0B03F1780072
:1056E00003F17702C3008EE740F25452934206D88A
:1056F0008B0C03F17D0003F17C02C30083E74FF4C0
:105700007E737E227FE741F001036B60CCF80010CE
:105710004AE700BF5404002060080020400B00202E
:105720002DE9F8430746884600F538764FF0000922
:10573000D6E90154013D11D4A389012B05F1FF35B0
:1057400008D9B4F90E300133214603D03846C0479A
:1057500049EA00096B1C04F16804EDD13668002E9B
:10576000E6D14846BDE8F883004870475409002058
:10577000704700BF704700BF704700BF704700BF51
:105780002DE9F0418B890C46990796B008D504F1B4
:1057900043030122C4E90432236016B0BDE8F0815E
:1057A000B4F90E100029064627DB6A4602F0A2F87B
:1057B000002821DB019D05F47045A5F50055B5FADB
:1057C00085F54FF480686D094FF400674146304617
:1057D00000F046F8B4F90C30F0B1204AF26343F01F
:1057E0008003C4F81480A3812060206135BB3B4353
:1057F000A38116B0BDE8F081A38913F0800519D00C
:105800004FF040084146304600F02AF80025B4F930
:105810000C302F460028E0D19A05BED423F00303B4
:1058200004F1430243F002030121C4E90421A381EE
:105830002260B2E74FF480682F46C7E7B4F90E1034
:10584000304602F0E1F910B9B4F90C30CFE7A38982
:1058500023F0030343F001031BB2C8E71953000808
:105860002DE9F04F01F10B06162E83B0044624D823
:10587000102900F2BA8000F0A3FA102618220220A4
:10588000B54F3A44A2F1080153688B4200F0BA8048
:105890005A68D96822F003021A449D68E9608D6055
:1058A000516841F001012046516003F1080500F004
:1058B0008DFA284603B0BDE8F08F36F0070600F1F8
:1058C0009480B14200F2918000F07AFAB6F5FC7F44
:1058D000C0F09A81730A00F08F80042B00F26F8170
:1058E000B30903F1390003F1380CC3009A4F3B446C
:1058F000A3F108055B689D4206D10CE0002980F207
:105900002781DB689D4206D05A6822F00302911B72
:105910000F29F3DD60463D69DFF840C265457CD064
:105920006A6822F00302931B0F2B00F37B81002B8C
:10593000C7E904CC80F26C81B2F5007F80F01A8157
:10594000D308796801334FEA521E012202FA0EF29F
:105950000A4357F833E0C5F808E007EBC3010839FC
:10596000E9607A6047F83350CEF80C50831001217B
:105970009940914257D8114206D120F003004900C6
:10598000114200F10400FAD007EBC0094D468646EB
:10599000D5F80C80454508D11DE1002B80F224810B
:1059A000D8F80C80454500F01681D8F8042022F084
:1059B0000302931B0F2BF0DD2046D8E9025408EBBD
:1059C000060146F00106C8F80460EC60A56043F0EB
:1059D0000104C7E90411C1E902CC4C6048F8023067
:1059E00000F0F4F908F1080502E00C23236000251B
:1059F000284603B0BDE8F08F4FF4007340204FF00D
:105A00003F0C73E7D3689A4208BF02307FF440AF7F
:105A10003D69DFF848C1654582D17A68831001216C
:105A200099409142A7D9BD686B6823F003094E45A0
:105A300003D8A9EB06030F2B7ADCDFF824B1494B1E
:105A4000DBF800201B680132334405EB090A00F043
:105A5000338103F580530F3323F47F6828F00F0858
:105A60004146204600F09AFD411C024600F0F380BA
:105A7000824500F2EE803C4B1968414419600846AB
:105A800000F04E81DBF80010019301311BBFA2EB47
:105A90000A0A5044CBF80020186012F0070B00F0FF
:105AA0001781CBF108010A44CBF5805190440831AD
:105AB000A1EB0801C1F30B0A51462046009200F009
:105AC0006DFD421CDDE9002300F04F81801A00EBE0
:105AD0000A081968BA6048F001005144BD4250609C
:105AE000196000F02981B9F10F0F40F22781686831
:105AF000A9F10C0C2CF0070C00F0010040EA0C009E
:105B000068604FF0050E05EB0C00BCF10F0FC0E90B
